{"abi":[{"inputs":[{"internalType":"uint256","name":"minimalCampaignContributionWei","type":"uint256"}],"name":"deployNewCrowdfundingCampaign","outputs":[],"stateMutability":"nonpayable","type":"function"},{"inputs":[{"internalType":"uint256","name":"","type":"uint256"}],"name":"deployedCrowdfundingCampaigns","outputs":[{"internalType":"address","name":"","type":"address"}],"stateMutability":"view","type":"function"},{"inputs":[],"name":"getAllDeployedCrowdfundingCampaigns","outputs":[{"internalType":"address[]","name":"","type":"address[]"}],"stateMutability":"view","type":"function"}],"devdoc":{"kind":"dev","methods":{},"version":1},"evm":{"assembly":"    /* \"Crowdfunding.sol\":58:641  contract CrowdfundingFactory {... */\n  mstore(0x40, 0x80)\n  callvalue\n  dup1\n  iszero\n  tag_1\n  jumpi\n  0x00\n  dup1\n  revert\ntag_1:\n  pop\n  dataSize(sub_0)\n  dup1\n  dataOffset(sub_0)\n  0x00\n  codecopy\n  0x00\n  return\nstop\n\nsub_0: assembly {\n        /* \"Crowdfunding.sol\":58:641  contract CrowdfundingFactory {... */\n      mstore(0x40, 0x80)\n      callvalue\n      dup1\n      iszero\n      tag_1\n      jumpi\n      0x00\n      dup1\n      revert\n    tag_1:\n      pop\n      jumpi(tag_2, lt(calldatasize, 0x04))\n      shr(0xe0, calldataload(0x00))\n      dup1\n      0x5a9b3722\n      eq\n      tag_3\n      jumpi\n      dup1\n      0xa7d4d132\n      eq\n      tag_4\n      jumpi\n      dup1\n      0xd8cd5313\n      eq\n      tag_5\n      jumpi\n    tag_2:\n      0x00\n      dup1\n      revert\n        /* \"Crowdfunding.sol\":93:139  address[] public deployedCrowdfundingCampaigns */\n    tag_3:\n      tag_6\n      0x04\n      dup1\n      calldatasize\n      sub\n      dup2\n      add\n      swap1\n      tag_7\n      swap2\n      swap1\n      tag_8\n      jump\t// in\n    tag_7:\n      tag_9\n      jump\t// in\n    tag_6:\n      mload(0x40)\n      tag_10\n      swap2\n      swap1\n      tag_11\n      jump\t// in\n    tag_10:\n      mload(0x40)\n      dup1\n      swap2\n      sub\n      swap1\n      return\n        /* \"Crowdfunding.sol\":472:639  function getAllDeployedCrowdfundingCampaigns()... */\n    tag_4:\n      tag_12\n      tag_13\n      jump\t// in\n    tag_12:\n      mload(0x40)\n      tag_14\n      swap2\n      swap1\n      tag_15\n      jump\t// in\n    tag_14:\n      mload(0x40)\n      dup1\n      swap2\n      sub\n      swap1\n      return\n        /* \"Crowdfunding.sol\":146:466  function deployNewCrowdfundingCampaign(... */\n    tag_5:\n      tag_16\n      0x04\n      dup1\n      calldatasize\n      sub\n      dup2\n      add\n      swap1\n      tag_17\n      swap2\n      swap1\n      tag_8\n      jump\t// in\n    tag_17:\n      tag_18\n      jump\t// in\n    tag_16:\n      stop\n        /* \"Crowdfunding.sol\":93:139  address[] public deployedCrowdfundingCampaigns */\n    tag_9:\n      0x00\n      dup2\n      dup2\n      sload\n      dup2\n      lt\n      tag_19\n      jumpi\n      0x00\n      dup1\n      revert\n    tag_19:\n      swap1\n      0x00\n      mstore\n      keccak256(0x00, 0x20)\n      add\n      0x00\n      swap2\n      pop\n      sload\n      swap1\n      0x0100\n      exp\n      swap1\n      div\n      0xffffffffffffffffffffffffffffffffffffffff\n      and\n      dup2\n      jump\t// out\n        /* \"Crowdfunding.sol\":472:639  function getAllDeployedCrowdfundingCampaigns()... */\n    tag_13:\n        /* \"Crowdfunding.sol\":564:580  address[] memory */\n      0x60\n        /* \"Crowdfunding.sol\":603:632  deployedCrowdfundingCampaigns */\n      0x00\n        /* \"Crowdfunding.sol\":596:632  return deployedCrowdfundingCampaigns */\n      dup1\n      sload\n      dup1\n      0x20\n      mul\n      0x20\n      add\n      mload(0x40)\n      swap1\n      dup2\n      add\n      0x40\n      mstore\n      dup1\n      swap3\n      swap2\n      swap1\n      dup2\n      dup2\n      mstore\n      0x20\n      add\n      dup3\n      dup1\n      sload\n      dup1\n      iszero\n      tag_22\n      jumpi\n      0x20\n      mul\n      dup3\n      add\n      swap2\n      swap1\n      0x00\n      mstore\n      keccak256(0x00, 0x20)\n      swap1\n    tag_23:\n      dup2\n      0x00\n      swap1\n      sload\n      swap1\n      0x0100\n      exp\n      swap1\n      div\n      0xffffffffffffffffffffffffffffffffffffffff\n      and\n      0xffffffffffffffffffffffffffffffffffffffff\n      and\n      dup2\n      mstore\n      0x20\n      add\n      swap1\n      0x01\n      add\n      swap1\n      dup1\n      dup4\n      gt\n      tag_23\n      jumpi\n    tag_22:\n      pop\n      pop\n      pop\n      pop\n      pop\n      swap1\n      pop\n        /* \"Crowdfunding.sol\":472:639  function getAllDeployedCrowdfundingCampaigns()... */\n      swap1\n      jump\t// out\n        /* \"Crowdfunding.sol\":146:466  function deployNewCrowdfundingCampaign(... */\n    tag_18:\n        /* \"Crowdfunding.sol\":256:287  address deployedCampaignAddress */\n      0x00\n        /* \"Crowdfunding.sol\":336:366  minimalCampaignContributionWei */\n      dup2\n        /* \"Crowdfunding.sol\":368:378  msg.sender */\n      caller\n        /* \"Crowdfunding.sol\":311:379  new CrowdfundingCampaign(minimalCampaignContributionWei, msg.sender) */\n      mload(0x40)\n      tag_25\n      swap1\n      tag_26\n      jump\t// in\n    tag_25:\n      tag_27\n      swap3\n      swap2\n      swap1\n      tag_28\n      jump\t// in\n    tag_27:\n      mload(0x40)\n      dup1\n      swap2\n      sub\n      swap1\n      0x00\n      create\n      dup1\n      iszero\n      dup1\n      iszero\n      tag_29\n      jumpi\n      returndatasize\n      0x00\n      dup1\n      returndatacopy\n      revert(0x00, returndatasize)\n    tag_29:\n      pop\n        /* \"Crowdfunding.sol\":256:389  address deployedCampaignAddress = address(... */\n      swap1\n      pop\n        /* \"Crowdfunding.sol\":400:429  deployedCrowdfundingCampaigns */\n      0x00\n        /* \"Crowdfunding.sol\":435:458  deployedCampaignAddress */\n      dup2\n        /* \"Crowdfunding.sol\":400:459  deployedCrowdfundingCampaigns.push(deployedCampaignAddress) */\n      swap1\n      dup1\n      0x01\n      dup2\n      sload\n      add\n      dup1\n      dup3\n      sstore\n      dup1\n      swap2\n      pop\n      pop\n      0x01\n      swap1\n      sub\n      swap1\n      0x00\n      mstore\n      keccak256(0x00, 0x20)\n      add\n      0x00\n      swap1\n      swap2\n      swap1\n      swap2\n      swap1\n      swap2\n      0x0100\n      exp\n      dup2\n      sload\n      dup2\n      0xffffffffffffffffffffffffffffffffffffffff\n      mul\n      not\n      and\n      swap1\n      dup4\n      0xffffffffffffffffffffffffffffffffffffffff\n      and\n      mul\n      or\n      swap1\n      sstore\n      pop\n        /* \"Crowdfunding.sol\":246:466  {... */\n      pop\n        /* \"Crowdfunding.sol\":146:466  function deployNewCrowdfundingCampaign(... */\n      pop\n      jump\t// out\n    tag_26:\n      dataSize(sub_0)\n      dup1\n      dataOffset(sub_0)\n      dup4\n      codecopy\n      add\n      swap1\n      jump\t// out\n        /* \"#utility.yul\":7:146   */\n    tag_32:\n        /* \"#utility.yul\":53:58   */\n      0x00\n        /* \"#utility.yul\":91:97   */\n      dup2\n        /* \"#utility.yul\":78:98   */\n      calldataload\n        /* \"#utility.yul\":69:98   */\n      swap1\n      pop\n        /* \"#utility.yul\":107:140   */\n      tag_34\n        /* \"#utility.yul\":134:139   */\n      dup2\n        /* \"#utility.yul\":107:140   */\n      tag_35\n      jump\t// in\n    tag_34:\n        /* \"#utility.yul\":59:146   */\n      swap3\n      swap2\n      pop\n      pop\n      jump\t// out\n        /* \"#utility.yul\":152:481   */\n    tag_8:\n        /* \"#utility.yul\":211:217   */\n      0x00\n        /* \"#utility.yul\":260:262   */\n      0x20\n        /* \"#utility.yul\":248:257   */\n      dup3\n        /* \"#utility.yul\":239:246   */\n      dup5\n        /* \"#utility.yul\":235:258   */\n      sub\n        /* \"#utility.yul\":231:263   */\n      slt\n        /* \"#utility.yul\":228:230   */\n      iszero\n      tag_37\n      jumpi\n        /* \"#utility.yul\":266:345   */\n      tag_38\n      tag_39\n      jump\t// in\n    tag_38:\n        /* \"#utility.yul\":228:230   */\n    tag_37:\n        /* \"#utility.yul\":386:387   */\n      0x00\n        /* \"#utility.yul\":411:464   */\n      tag_40\n        /* \"#utility.yul\":456:463   */\n      dup5\n        /* \"#utility.yul\":447:453   */\n      dup3\n        /* \"#utility.yul\":436:445   */\n      dup6\n        /* \"#utility.yul\":432:454   */\n      add\n        /* \"#utility.yul\":411:464   */\n      tag_32\n      jump\t// in\n    tag_40:\n        /* \"#utility.yul\":401:464   */\n      swap2\n      pop\n        /* \"#utility.yul\":357:474   */\n      pop\n        /* \"#utility.yul\":218:481   */\n      swap3\n      swap2\n      pop\n      pop\n      jump\t// out\n        /* \"#utility.yul\":487:666   */\n    tag_41:\n        /* \"#utility.yul\":556:566   */\n      0x00\n        /* \"#utility.yul\":577:623   */\n      tag_43\n        /* \"#utility.yul\":619:622   */\n      dup4\n        /* \"#utility.yul\":611:617   */\n      dup4\n        /* \"#utility.yul\":577:623   */\n      tag_44\n      jump\t// in\n    tag_43:\n        /* \"#utility.yul\":655:659   */\n      0x20\n        /* \"#utility.yul\":650:653   */\n      dup4\n        /* \"#utility.yul\":646:660   */\n      add\n        /* \"#utility.yul\":632:660   */\n      swap1\n      pop\n        /* \"#utility.yul\":567:666   */\n      swap3\n      swap2\n      pop\n      pop\n      jump\t// out\n        /* \"#utility.yul\":672:780   */\n    tag_44:\n        /* \"#utility.yul\":749:773   */\n      tag_46\n        /* \"#utility.yul\":767:772   */\n      dup2\n        /* \"#utility.yul\":749:773   */\n      tag_47\n      jump\t// in\n    tag_46:\n        /* \"#utility.yul\":744:747   */\n      dup3\n        /* \"#utility.yul\":737:774   */\n      mstore\n        /* \"#utility.yul\":727:780   */\n      pop\n      pop\n      jump\t// out\n        /* \"#utility.yul\":786:904   */\n    tag_48:\n        /* \"#utility.yul\":873:897   */\n      tag_50\n        /* \"#utility.yul\":891:896   */\n      dup2\n        /* \"#utility.yul\":873:897   */\n      tag_47\n      jump\t// in\n    tag_50:\n        /* \"#utility.yul\":868:871   */\n      dup3\n        /* \"#utility.yul\":861:898   */\n      mstore\n        /* \"#utility.yul\":851:904   */\n      pop\n      pop\n      jump\t// out\n        /* \"#utility.yul\":940:1672   */\n    tag_51:\n        /* \"#utility.yul\":1059:1062   */\n      0x00\n        /* \"#utility.yul\":1088:1142   */\n      tag_53\n        /* \"#utility.yul\":1136:1141   */\n      dup3\n        /* \"#utility.yul\":1088:1142   */\n      tag_54\n      jump\t// in\n    tag_53:\n        /* \"#utility.yul\":1158:1244   */\n      tag_55\n        /* \"#utility.yul\":1237:1243   */\n      dup2\n        /* \"#utility.yul\":1232:1235   */\n      dup6\n        /* \"#utility.yul\":1158:1244   */\n      tag_56\n      jump\t// in\n    tag_55:\n        /* \"#utility.yul\":1151:1244   */\n      swap4\n      pop\n        /* \"#utility.yul\":1268:1324   */\n      tag_57\n        /* \"#utility.yul\":1318:1323   */\n      dup4\n        /* \"#utility.yul\":1268:1324   */\n      tag_58\n      jump\t// in\n    tag_57:\n        /* \"#utility.yul\":1347:1354   */\n      dup1\n        /* \"#utility.yul\":1378:1379   */\n      0x00\n        /* \"#utility.yul\":1363:1647   */\n    tag_59:\n        /* \"#utility.yul\":1388:1394   */\n      dup4\n        /* \"#utility.yul\":1385:1386   */\n      dup2\n        /* \"#utility.yul\":1382:1395   */\n      lt\n        /* \"#utility.yul\":1363:1647   */\n      iszero\n      tag_61\n      jumpi\n        /* \"#utility.yul\":1464:1470   */\n      dup2\n        /* \"#utility.yul\":1458:1471   */\n      mload\n        /* \"#utility.yul\":1491:1554   */\n      tag_62\n        /* \"#utility.yul\":1550:1553   */\n      dup9\n        /* \"#utility.yul\":1535:1548   */\n      dup3\n        /* \"#utility.yul\":1491:1554   */\n      tag_41\n      jump\t// in\n    tag_62:\n        /* \"#utility.yul\":1484:1554   */\n      swap8\n      pop\n        /* \"#utility.yul\":1577:1637   */\n      tag_63\n        /* \"#utility.yul\":1630:1636   */\n      dup4\n        /* \"#utility.yul\":1577:1637   */\n      tag_64\n      jump\t// in\n    tag_63:\n        /* \"#utility.yul\":1567:1637   */\n      swap3\n      pop\n        /* \"#utility.yul\":1423:1647   */\n      pop\n        /* \"#utility.yul\":1410:1411   */\n      0x01\n        /* \"#utility.yul\":1407:1408   */\n      dup2\n        /* \"#utility.yul\":1403:1412   */\n      add\n        /* \"#utility.yul\":1398:1412   */\n      swap1\n      pop\n        /* \"#utility.yul\":1363:1647   */\n      jump(tag_59)\n    tag_61:\n        /* \"#utility.yul\":1367:1381   */\n      pop\n        /* \"#utility.yul\":1663:1666   */\n      dup6\n        /* \"#utility.yul\":1656:1666   */\n      swap4\n      pop\n        /* \"#utility.yul\":1064:1672   */\n      pop\n      pop\n      pop\n      swap3\n      swap2\n      pop\n      pop\n      jump\t// out\n        /* \"#utility.yul\":1678:1796   */\n    tag_65:\n        /* \"#utility.yul\":1765:1789   */\n      tag_67\n        /* \"#utility.yul\":1783:1788   */\n      dup2\n        /* \"#utility.yul\":1765:1789   */\n      tag_68\n      jump\t// in\n    tag_67:\n        /* \"#utility.yul\":1760:1763   */\n      dup3\n        /* \"#utility.yul\":1753:1790   */\n      mstore\n        /* \"#utility.yul\":1743:1796   */\n      pop\n      pop\n      jump\t// out\n        /* \"#utility.yul\":1802:2024   */\n    tag_11:\n        /* \"#utility.yul\":1895:1899   */\n      0x00\n        /* \"#utility.yul\":1933:1935   */\n      0x20\n        /* \"#utility.yul\":1922:1931   */\n      dup3\n        /* \"#utility.yul\":1918:1936   */\n      add\n        /* \"#utility.yul\":1910:1936   */\n      swap1\n      pop\n        /* \"#utility.yul\":1946:2017   */\n      tag_70\n        /* \"#utility.yul\":2014:2015   */\n      0x00\n        /* \"#utility.yul\":2003:2012   */\n      dup4\n        /* \"#utility.yul\":1999:2016   */\n      add\n        /* \"#utility.yul\":1990:1996   */\n      dup5\n        /* \"#utility.yul\":1946:2017   */\n      tag_48\n      jump\t// in\n    tag_70:\n        /* \"#utility.yul\":1900:2024   */\n      swap3\n      swap2\n      pop\n      pop\n      jump\t// out\n        /* \"#utility.yul\":2030:2403   */\n    tag_15:\n        /* \"#utility.yul\":2173:2177   */\n      0x00\n        /* \"#utility.yul\":2211:2213   */\n      0x20\n        /* \"#utility.yul\":2200:2209   */\n      dup3\n        /* \"#utility.yul\":2196:2214   */\n      add\n        /* \"#utility.yul\":2188:2214   */\n      swap1\n      pop\n        /* \"#utility.yul\":2260:2269   */\n      dup2\n        /* \"#utility.yul\":2254:2258   */\n      dup2\n        /* \"#utility.yul\":2250:2270   */\n      sub\n        /* \"#utility.yul\":2246:2247   */\n      0x00\n        /* \"#utility.yul\":2235:2244   */\n      dup4\n        /* \"#utility.yul\":2231:2248   */\n      add\n        /* \"#utility.yul\":2224:2271   */\n      mstore\n        /* \"#utility.yul\":2288:2396   */\n      tag_72\n        /* \"#utility.yul\":2391:2395   */\n      dup2\n        /* \"#utility.yul\":2382:2388   */\n      dup5\n        /* \"#utility.yul\":2288:2396   */\n      tag_51\n      jump\t// in\n    tag_72:\n        /* \"#utility.yul\":2280:2396   */\n      swap1\n      pop\n        /* \"#utility.yul\":2178:2403   */\n      swap3\n      swap2\n      pop\n      pop\n      jump\t// out\n        /* \"#utility.yul\":2409:2741   */\n    tag_28:\n        /* \"#utility.yul\":2530:2534   */\n      0x00\n        /* \"#utility.yul\":2568:2570   */\n      0x40\n        /* \"#utility.yul\":2557:2566   */\n      dup3\n        /* \"#utility.yul\":2553:2571   */\n      add\n        /* \"#utility.yul\":2545:2571   */\n      swap1\n      pop\n        /* \"#utility.yul\":2581:2652   */\n      tag_74\n        /* \"#utility.yul\":2649:2650   */\n      0x00\n        /* \"#utility.yul\":2638:2647   */\n      dup4\n        /* \"#utility.yul\":2634:2651   */\n      add\n        /* \"#utility.yul\":2625:2631   */\n      dup6\n        /* \"#utility.yul\":2581:2652   */\n      tag_65\n      jump\t// in\n    tag_74:\n        /* \"#utility.yul\":2662:2734   */\n      tag_75\n        /* \"#utility.yul\":2730:2732   */\n      0x20\n        /* \"#utility.yul\":2719:2728   */\n      dup4\n        /* \"#utility.yul\":2715:2733   */\n      add\n        /* \"#utility.yul\":2706:2712   */\n      dup5\n        /* \"#utility.yul\":2662:2734   */\n      tag_48\n      jump\t// in\n    tag_75:\n        /* \"#utility.yul\":2535:2741   */\n      swap4\n      swap3\n      pop\n      pop\n      pop\n      jump\t// out\n        /* \"#utility.yul\":2828:2960   */\n    tag_58:\n        /* \"#utility.yul\":2895:2899   */\n      0x00\n        /* \"#utility.yul\":2918:2921   */\n      dup2\n        /* \"#utility.yul\":2910:2921   */\n      swap1\n      pop\n        /* \"#utility.yul\":2948:2952   */\n      0x20\n        /* \"#utility.yul\":2943:2946   */\n      dup3\n        /* \"#utility.yul\":2939:2953   */\n      add\n        /* \"#utility.yul\":2931:2953   */\n      swap1\n      pop\n        /* \"#utility.yul\":2900:2960   */\n      swap2\n      swap1\n      pop\n      jump\t// out\n        /* \"#utility.yul\":2966:3080   */\n    tag_54:\n        /* \"#utility.yul\":3033:3039   */\n      0x00\n        /* \"#utility.yul\":3067:3072   */\n      dup2\n        /* \"#utility.yul\":3061:3073   */\n      mload\n        /* \"#utility.yul\":3051:3073   */\n      swap1\n      pop\n        /* \"#utility.yul\":3040:3080   */\n      swap2\n      swap1\n      pop\n      jump\t// out\n        /* \"#utility.yul\":3086:3199   */\n    tag_64:\n        /* \"#utility.yul\":3156:3160   */\n      0x00\n        /* \"#utility.yul\":3188:3192   */\n      0x20\n        /* \"#utility.yul\":3183:3186   */\n      dup3\n        /* \"#utility.yul\":3179:3193   */\n      add\n        /* \"#utility.yul\":3171:3193   */\n      swap1\n      pop\n        /* \"#utility.yul\":3161:3199   */\n      swap2\n      swap1\n      pop\n      jump\t// out\n        /* \"#utility.yul\":3205:3389   */\n    tag_56:\n        /* \"#utility.yul\":3304:3315   */\n      0x00\n        /* \"#utility.yul\":3338:3344   */\n      dup3\n        /* \"#utility.yul\":3333:3336   */\n      dup3\n        /* \"#utility.yul\":3326:3345   */\n      mstore\n        /* \"#utility.yul\":3378:3382   */\n      0x20\n        /* \"#utility.yul\":3373:3376   */\n      dup3\n        /* \"#utility.yul\":3369:3383   */\n      add\n        /* \"#utility.yul\":3354:3383   */\n      swap1\n      pop\n        /* \"#utility.yul\":3316:3389   */\n      swap3\n      swap2\n      pop\n      pop\n      jump\t// out\n        /* \"#utility.yul\":3395:3491   */\n    tag_47:\n        /* \"#utility.yul\":3432:3439   */\n      0x00\n        /* \"#utility.yul\":3461:3485   */\n      tag_83\n        /* \"#utility.yul\":3479:3484   */\n      dup3\n        /* \"#utility.yul\":3461:3485   */\n      tag_84\n      jump\t// in\n    tag_83:\n        /* \"#utility.yul\":3450:3485   */\n      swap1\n      pop\n        /* \"#utility.yul\":3440:3491   */\n      swap2\n      swap1\n      pop\n      jump\t// out\n        /* \"#utility.yul\":3497:3623   */\n    tag_84:\n        /* \"#utility.yul\":3534:3541   */\n      0x00\n        /* \"#utility.yul\":3574:3616   */\n      0xffffffffffffffffffffffffffffffffffffffff\n        /* \"#utility.yul\":3567:3572   */\n      dup3\n        /* \"#utility.yul\":3563:3617   */\n      and\n        /* \"#utility.yul\":3552:3617   */\n      swap1\n      pop\n        /* \"#utility.yul\":3542:3623   */\n      swap2\n      swap1\n      pop\n      jump\t// out\n        /* \"#utility.yul\":3629:3706   */\n    tag_68:\n        /* \"#utility.yul\":3666:3673   */\n      0x00\n        /* \"#utility.yul\":3695:3700   */\n      dup2\n        /* \"#utility.yul\":3684:3700   */\n      swap1\n      pop\n        /* \"#utility.yul\":3674:3706   */\n      swap2\n      swap1\n      pop\n      jump\t// out\n        /* \"#utility.yul\":3835:3952   */\n    tag_39:\n        /* \"#utility.yul\":3944:3945   */\n      0x00\n        /* \"#utility.yul\":3941:3942   */\n      dup1\n        /* \"#utility.yul\":3934:3946   */\n      revert\n        /* \"#utility.yul\":3958:4080   */\n    tag_35:\n        /* \"#utility.yul\":4031:4055   */\n      tag_91\n        /* \"#utility.yul\":4049:4054   */\n      dup2\n        /* \"#utility.yul\":4031:4055   */\n      tag_68\n      jump\t// in\n    tag_91:\n        /* \"#utility.yul\":4024:4029   */\n      dup2\n        /* \"#utility.yul\":4021:4056   */\n      eq\n        /* \"#utility.yul\":4011:4013   */\n      tag_92\n      jumpi\n        /* \"#utility.yul\":4070:4071   */\n      0x00\n        /* \"#utility.yul\":4067:4068   */\n      dup1\n        /* \"#utility.yul\":4060:4072   */\n      revert\n        /* \"#utility.yul\":4011:4013   */\n    tag_92:\n        /* \"#utility.yul\":4001:4080   */\n      pop\n      jump\t// out\n    stop\n\n    sub_0: assembly {\n            /* \"Crowdfunding.sol\":643:5078  contract CrowdfundingCampaign {... */\n          mstore(0x40, 0x80)\n            /* \"Crowdfunding.sol\":1295:1642  constructor(... */\n          callvalue\n          dup1\n          iszero\n          tag_1\n          jumpi\n          0x00\n          dup1\n          revert\n        tag_1:\n          pop\n          mload(0x40)\n          sub(codesize, bytecodeSize)\n          dup1\n          bytecodeSize\n          dup4\n          codecopy\n          dup2\n          dup2\n          add\n          0x40\n          mstore\n          dup2\n          add\n          swap1\n          tag_2\n          swap2\n          swap1\n          tag_3\n          jump\t// in\n        tag_2:\n            /* \"Crowdfunding.sol\":1436:1466  minimalCampaignContributionWei */\n          dup2\n            /* \"Crowdfunding.sol\":1411:1433  minimalContributionWei */\n          0x01\n            /* \"Crowdfunding.sol\":1411:1466  minimalContributionWei = minimalCampaignContributionWei */\n          dup2\n          swap1\n          sstore\n          pop\n            /* \"Crowdfunding.sol\":1493:1515  campaignFounderAddress */\n          dup1\n            /* \"Crowdfunding.sol\":1476:1490  founderAddress */\n          0x00\n          dup1\n            /* \"Crowdfunding.sol\":1476:1515  founderAddress = campaignFounderAddress */\n          0x0100\n          exp\n          dup2\n          sload\n          dup2\n          0xffffffffffffffffffffffffffffffffffffffff\n          mul\n          not\n          and\n          swap1\n          dup4\n          0xffffffffffffffffffffffffffffffffffffffff\n          and\n          mul\n          or\n          swap1\n          sstore\n          pop\n            /* \"Crowdfunding.sol\":1530:1635  InfoAddressAction(... */\n          0x4860a979207f9627f5143e066655de8cd6ba791950619a1f7f9731b33f431e5a\n            /* \"Crowdfunding.sol\":1561:1571  msg.sender */\n          caller\n            /* \"Crowdfunding.sol\":1530:1635  InfoAddressAction(... */\n          mload(0x40)\n          tag_6\n          swap2\n          swap1\n          tag_7\n          jump\t// in\n        tag_6:\n          mload(0x40)\n          dup1\n          swap2\n          sub\n          swap1\n          log1\n            /* \"Crowdfunding.sol\":1295:1642  constructor(... */\n          pop\n          pop\n            /* \"Crowdfunding.sol\":643:5078  contract CrowdfundingCampaign {... */\n          jump(tag_8)\n            /* \"#utility.yul\":7:150   */\n        tag_10:\n            /* \"#utility.yul\":64:69   */\n          0x00\n            /* \"#utility.yul\":95:101   */\n          dup2\n            /* \"#utility.yul\":89:102   */\n          mload\n            /* \"#utility.yul\":80:102   */\n          swap1\n          pop\n            /* \"#utility.yul\":111:144   */\n          tag_12\n            /* \"#utility.yul\":138:143   */\n          dup2\n            /* \"#utility.yul\":111:144   */\n          tag_13\n          jump\t// in\n        tag_12:\n            /* \"#utility.yul\":70:150   */\n          swap3\n          swap2\n          pop\n          pop\n          jump\t// out\n            /* \"#utility.yul\":156:299   */\n        tag_14:\n            /* \"#utility.yul\":213:218   */\n          0x00\n            /* \"#utility.yul\":244:250   */\n          dup2\n            /* \"#utility.yul\":238:251   */\n          mload\n            /* \"#utility.yul\":229:251   */\n          swap1\n          pop\n            /* \"#utility.yul\":260:293   */\n          tag_16\n            /* \"#utility.yul\":287:292   */\n          dup2\n            /* \"#utility.yul\":260:293   */\n          tag_17\n          jump\t// in\n        tag_16:\n            /* \"#utility.yul\":219:299   */\n          swap3\n          swap2\n          pop\n          pop\n          jump\t// out\n            /* \"#utility.yul\":305:812   */\n        tag_3:\n            /* \"#utility.yul\":384:390   */\n          0x00\n            /* \"#utility.yul\":392:398   */\n          dup1\n            /* \"#utility.yul\":441:443   */\n          0x40\n            /* \"#utility.yul\":429:438   */\n          dup4\n            /* \"#utility.yul\":420:427   */\n          dup6\n            /* \"#utility.yul\":416:439   */\n          sub\n            /* \"#utility.yul\":412:444   */\n          slt\n            /* \"#utility.yul\":409:411   */\n          iszero\n          tag_19\n          jumpi\n            /* \"#utility.yul\":447:526   */\n          tag_20\n          tag_21\n          jump\t// in\n        tag_20:\n            /* \"#utility.yul\":409:411   */\n        tag_19:\n            /* \"#utility.yul\":567:568   */\n          0x00\n            /* \"#utility.yul\":592:656   */\n          tag_22\n            /* \"#utility.yul\":648:655   */\n          dup6\n            /* \"#utility.yul\":639:645   */\n          dup3\n            /* \"#utility.yul\":628:637   */\n          dup7\n            /* \"#utility.yul\":624:646   */\n          add\n            /* \"#utility.yul\":592:656   */\n          tag_14\n          jump\t// in\n        tag_22:\n            /* \"#utility.yul\":582:656   */\n          swap3\n          pop\n            /* \"#utility.yul\":538:666   */\n          pop\n            /* \"#utility.yul\":705:707   */\n          0x20\n            /* \"#utility.yul\":731:795   */\n          tag_23\n            /* \"#utility.yul\":787:794   */\n          dup6\n            /* \"#utility.yul\":778:784   */\n          dup3\n            /* \"#utility.yul\":767:776   */\n          dup7\n            /* \"#utility.yul\":763:785   */\n          add\n            /* \"#utility.yul\":731:795   */\n          tag_10\n          jump\t// in\n        tag_23:\n            /* \"#utility.yul\":721:795   */\n          swap2\n          pop\n            /* \"#utility.yul\":676:805   */\n          pop\n            /* \"#utility.yul\":399:812   */\n          swap3\n          pop\n          swap3\n          swap1\n          pop\n          jump\t// out\n            /* \"#utility.yul\":818:936   */\n        tag_24:\n            /* \"#utility.yul\":905:929   */\n          tag_26\n            /* \"#utility.yul\":923:928   */\n          dup2\n            /* \"#utility.yul\":905:929   */\n          tag_27\n          jump\t// in\n        tag_26:\n            /* \"#utility.yul\":900:903   */\n          dup3\n            /* \"#utility.yul\":893:930   */\n          mstore\n            /* \"#utility.yul\":883:936   */\n          pop\n          pop\n          jump\t// out\n            /* \"#utility.yul\":942:1308   */\n        tag_28:\n            /* \"#utility.yul\":1084:1087   */\n          0x00\n            /* \"#utility.yul\":1105:1172   */\n          tag_30\n            /* \"#utility.yul\":1169:1171   */\n          0x26\n            /* \"#utility.yul\":1164:1167   */\n          dup4\n            /* \"#utility.yul\":1105:1172   */\n          tag_31\n          jump\t// in\n        tag_30:\n            /* \"#utility.yul\":1098:1172   */\n          swap2\n          pop\n            /* \"#utility.yul\":1181:1274   */\n          tag_32\n            /* \"#utility.yul\":1270:1273   */\n          dup3\n            /* \"#utility.yul\":1181:1274   */\n          tag_33\n          jump\t// in\n        tag_32:\n            /* \"#utility.yul\":1299:1301   */\n          0x40\n            /* \"#utility.yul\":1294:1297   */\n          dup3\n            /* \"#utility.yul\":1290:1302   */\n          add\n            /* \"#utility.yul\":1283:1302   */\n          swap1\n          pop\n            /* \"#utility.yul\":1088:1308   */\n          swap2\n          swap1\n          pop\n          jump\t// out\n            /* \"#utility.yul\":1314:1843   */\n        tag_7:\n            /* \"#utility.yul\":1508:1512   */\n          0x00\n            /* \"#utility.yul\":1546:1548   */\n          0x40\n            /* \"#utility.yul\":1535:1544   */\n          dup3\n            /* \"#utility.yul\":1531:1549   */\n          add\n            /* \"#utility.yul\":1523:1549   */\n          swap1\n          pop\n            /* \"#utility.yul\":1559:1630   */\n          tag_35\n            /* \"#utility.yul\":1627:1628   */\n          0x00\n            /* \"#utility.yul\":1616:1625   */\n          dup4\n            /* \"#utility.yul\":1612:1629   */\n          add\n            /* \"#utility.yul\":1603:1609   */\n          dup5\n            /* \"#utility.yul\":1559:1630   */\n          tag_24\n          jump\t// in\n        tag_35:\n            /* \"#utility.yul\":1677:1686   */\n          dup2\n            /* \"#utility.yul\":1671:1675   */\n          dup2\n            /* \"#utility.yul\":1667:1687   */\n          sub\n            /* \"#utility.yul\":1662:1664   */\n          0x20\n            /* \"#utility.yul\":1651:1660   */\n          dup4\n            /* \"#utility.yul\":1647:1665   */\n          add\n            /* \"#utility.yul\":1640:1688   */\n          mstore\n            /* \"#utility.yul\":1705:1836   */\n          tag_36\n            /* \"#utility.yul\":1831:1835   */\n          dup2\n            /* \"#utility.yul\":1705:1836   */\n          tag_28\n          jump\t// in\n        tag_36:\n            /* \"#utility.yul\":1697:1836   */\n          swap1\n          pop\n            /* \"#utility.yul\":1513:1843   */\n          swap3\n          swap2\n          pop\n          pop\n          jump\t// out\n            /* \"#utility.yul\":1930:2099   */\n        tag_31:\n            /* \"#utility.yul\":2014:2025   */\n          0x00\n            /* \"#utility.yul\":2048:2054   */\n          dup3\n            /* \"#utility.yul\":2043:2046   */\n          dup3\n            /* \"#utility.yul\":2036:2055   */\n          mstore\n            /* \"#utility.yul\":2088:2092   */\n          0x20\n            /* \"#utility.yul\":2083:2086   */\n          dup3\n            /* \"#utility.yul\":2079:2093   */\n          add\n            /* \"#utility.yul\":2064:2093   */\n          swap1\n          pop\n            /* \"#utility.yul\":2026:2099   */\n          swap3\n          swap2\n          pop\n          pop\n          jump\t// out\n            /* \"#utility.yul\":2105:2201   */\n        tag_27:\n            /* \"#utility.yul\":2142:2149   */\n          0x00\n            /* \"#utility.yul\":2171:2195   */\n          tag_41\n            /* \"#utility.yul\":2189:2194   */\n          dup3\n            /* \"#utility.yul\":2171:2195   */\n          tag_42\n          jump\t// in\n        tag_41:\n            /* \"#utility.yul\":2160:2195   */\n          swap1\n          pop\n            /* \"#utility.yul\":2150:2201   */\n          swap2\n          swap1\n          pop\n          jump\t// out\n            /* \"#utility.yul\":2207:2333   */\n        tag_42:\n            /* \"#utility.yul\":2244:2251   */\n          0x00\n            /* \"#utility.yul\":2284:2326   */\n          0xffffffffffffffffffffffffffffffffffffffff\n            /* \"#utility.yul\":2277:2282   */\n          dup3\n            /* \"#utility.yul\":2273:2327   */\n          and\n            /* \"#utility.yul\":2262:2327   */\n          swap1\n          pop\n            /* \"#utility.yul\":2252:2333   */\n          swap2\n          swap1\n          pop\n          jump\t// out\n            /* \"#utility.yul\":2339:2416   */\n        tag_44:\n            /* \"#utility.yul\":2376:2383   */\n          0x00\n            /* \"#utility.yul\":2405:2410   */\n          dup2\n            /* \"#utility.yul\":2394:2410   */\n          swap1\n          pop\n            /* \"#utility.yul\":2384:2416   */\n          swap2\n          swap1\n          pop\n          jump\t// out\n            /* \"#utility.yul\":2545:2662   */\n        tag_21:\n            /* \"#utility.yul\":2654:2655   */\n          0x00\n            /* \"#utility.yul\":2651:2652   */\n          dup1\n            /* \"#utility.yul\":2644:2656   */\n          revert\n            /* \"#utility.yul\":2668:2893   */\n        tag_33:\n            /* \"#utility.yul\":2808:2842   */\n          0x48617320737461727465642061206e65772063726f776466756e64696e672070\n            /* \"#utility.yul\":2804:2805   */\n          0x00\n            /* \"#utility.yul\":2796:2802   */\n          dup3\n            /* \"#utility.yul\":2792:2806   */\n          add\n            /* \"#utility.yul\":2785:2843   */\n          mstore\n            /* \"#utility.yul\":2877:2885   */\n          0x726f6a6563740000000000000000000000000000000000000000000000000000\n            /* \"#utility.yul\":2872:2874   */\n          0x20\n            /* \"#utility.yul\":2864:2870   */\n          dup3\n            /* \"#utility.yul\":2860:2875   */\n          add\n            /* \"#utility.yul\":2853:2886   */\n          mstore\n            /* \"#utility.yul\":2774:2893   */\n          pop\n          jump\t// out\n            /* \"#utility.yul\":2899:3021   */\n        tag_13:\n            /* \"#utility.yul\":2972:2996   */\n          tag_51\n            /* \"#utility.yul\":2990:2995   */\n          dup2\n            /* \"#utility.yul\":2972:2996   */\n          tag_27\n          jump\t// in\n        tag_51:\n            /* \"#utility.yul\":2965:2970   */\n          dup2\n            /* \"#utility.yul\":2962:2997   */\n          eq\n            /* \"#utility.yul\":2952:2954   */\n          tag_52\n          jumpi\n            /* \"#utility.yul\":3011:3012   */\n          0x00\n            /* \"#utility.yul\":3008:3009   */\n          dup1\n            /* \"#utility.yul\":3001:3013   */\n          revert\n            /* \"#utility.yul\":2952:2954   */\n        tag_52:\n            /* \"#utility.yul\":2942:3021   */\n          pop\n          jump\t// out\n            /* \"#utility.yul\":3027:3149   */\n        tag_17:\n            /* \"#utility.yul\":3100:3124   */\n          tag_54\n            /* \"#utility.yul\":3118:3123   */\n          dup2\n            /* \"#utility.yul\":3100:3124   */\n          tag_44\n          jump\t// in\n        tag_54:\n            /* \"#utility.yul\":3093:3098   */\n          dup2\n            /* \"#utility.yul\":3090:3125   */\n          eq\n            /* \"#utility.yul\":3080:3082   */\n          tag_55\n          jumpi\n            /* \"#utility.yul\":3139:3140   */\n          0x00\n            /* \"#utility.yul\":3136:3137   */\n          dup1\n            /* \"#utility.yul\":3129:3141   */\n          revert\n            /* \"#utility.yul\":3080:3082   */\n        tag_55:\n            /* \"#utility.yul\":3070:3149   */\n          pop\n          jump\t// out\n            /* \"Crowdfunding.sol\":643:5078  contract CrowdfundingCampaign {... */\n        tag_8:\n          dataSize(sub_0)\n          dup1\n          dataOffset(sub_0)\n          0x00\n          codecopy\n          0x00\n          return\n        stop\n\n        sub_0: assembly {\n                /* \"Crowdfunding.sol\":643:5078  contract CrowdfundingCampaign {... */\n              mstore(0x40, 0x80)\n              jumpi(tag_1, lt(calldatasize, 0x04))\n              shr(0xe0, calldataload(0x00))\n              dup1\n              0x5dc4086f\n              gt\n              tag_13\n              jumpi\n              dup1\n              0x5dc4086f\n              eq\n              tag_7\n              jumpi\n              dup1\n              0x744ce792\n              eq\n              tag_8\n              jumpi\n              dup1\n              0x8810c6d9\n              eq\n              tag_9\n              jumpi\n              dup1\n              0xa0ba95df\n              eq\n              tag_10\n              jumpi\n              dup1\n              0xcf569977\n              eq\n              tag_11\n              jumpi\n              dup1\n              0xd7d1bbdb\n              eq\n              tag_12\n              jumpi\n              jump(tag_1)\n            tag_13:\n              dup1\n              0x0d3546ac\n              eq\n              tag_2\n              jumpi\n              dup1\n              0x2a45c222\n              eq\n              tag_3\n              jumpi\n              dup1\n              0x434d4604\n              eq\n              tag_4\n              jumpi\n              dup1\n              0x4377cf65\n              eq\n              tag_5\n              jumpi\n              dup1\n              0x46bb2833\n              eq\n              tag_6\n              jumpi\n            tag_1:\n              0x00\n              dup1\n              revert\n                /* \"Crowdfunding.sol\":3943:4094  function contributeToTheCampaign() external payable {... */\n            tag_2:\n              tag_14\n              tag_15\n              jump\t// in\n            tag_14:\n              stop\n                /* \"Crowdfunding.sol\":4733:5076  function consumeRequest(uint256 requestNumber)... */\n            tag_3:\n              tag_16\n              0x04\n              dup1\n              calldatasize\n              sub\n              dup2\n              add\n              swap1\n              tag_17\n              swap2\n              swap1\n              tag_18\n              jump\t// in\n            tag_17:\n              tag_19\n              jump\t// in\n            tag_16:\n              stop\n                /* \"Crowdfunding.sol\":1078:1147  mapping(uint256 => mapping(address => bool)) public approvalsRegistry */\n            tag_4:\n              callvalue\n              dup1\n              iszero\n              tag_20\n              jumpi\n              0x00\n              dup1\n              revert\n            tag_20:\n              pop\n              tag_21\n              0x04\n              dup1\n              calldatasize\n              sub\n              dup2\n              add\n              swap1\n              tag_22\n              swap2\n              swap1\n              tag_23\n              jump\t// in\n            tag_22:\n              tag_24\n              jump\t// in\n            tag_21:\n              mload(0x40)\n              tag_25\n              swap2\n              swap1\n              tag_26\n              jump\t// in\n            tag_25:\n              mload(0x40)\n              dup1\n              swap2\n              sub\n              swap1\n              return\n                /* \"Crowdfunding.sol\":978:1013  uint256 public numberOfContributors */\n            tag_5:\n              callvalue\n              dup1\n              iszero\n              tag_27\n              jumpi\n              0x00\n              dup1\n              revert\n            tag_27:\n              pop\n              tag_28\n              tag_29\n              jump\t// in\n            tag_28:\n              mload(0x40)\n              tag_30\n              swap2\n              swap1\n              tag_31\n              jump\t// in\n            tag_30:\n              mload(0x40)\n              dup1\n              swap2\n              sub\n              swap1\n              return\n                /* \"Crowdfunding.sol\":679:708  address public founderAddress */\n            tag_6:\n              callvalue\n              dup1\n              iszero\n              tag_32\n              jumpi\n              0x00\n              dup1\n              revert\n            tag_32:\n              pop\n              tag_33\n              tag_34\n              jump\t// in\n            tag_33:\n              mload(0x40)\n              tag_35\n              swap2\n              swap1\n              tag_36\n              jump\t// in\n            tag_35:\n              mload(0x40)\n              dup1\n              swap2\n              sub\n              swap1\n              return\n                /* \"Crowdfunding.sol\":1020:1072  mapping(address => bool) public contributorsRegistry */\n            tag_7:\n              callvalue\n              dup1\n              iszero\n              tag_37\n              jumpi\n              0x00\n              dup1\n              revert\n            tag_37:\n              pop\n              tag_38\n              0x04\n              dup1\n              calldatasize\n              sub\n              dup2\n              add\n              swap1\n              tag_39\n              swap2\n              swap1\n              tag_40\n              jump\t// in\n            tag_39:\n              tag_41\n              jump\t// in\n            tag_38:\n              mload(0x40)\n              tag_42\n              swap2\n              swap1\n              tag_26\n              jump\t// in\n            tag_42:\n              mload(0x40)\n              dup1\n              swap2\n              sub\n              swap1\n              return\n                /* \"Crowdfunding.sol\":714:751  uint256 public minimalContributionWei */\n            tag_8:\n              callvalue\n              dup1\n              iszero\n              tag_43\n              jumpi\n              0x00\n              dup1\n              revert\n            tag_43:\n              pop\n              tag_44\n              tag_45\n              jump\t// in\n            tag_44:\n              mload(0x40)\n              tag_46\n              swap2\n              swap1\n              tag_31\n              jump\t// in\n            tag_46:\n              mload(0x40)\n              dup1\n              swap2\n              sub\n              swap1\n              return\n                /* \"Crowdfunding.sol\":4100:4488  function createSpendingRequest(... */\n            tag_9:\n              callvalue\n              dup1\n              iszero\n              tag_47\n              jumpi\n              0x00\n              dup1\n              revert\n            tag_47:\n              pop\n              tag_48\n              0x04\n              dup1\n              calldatasize\n              sub\n              dup2\n              add\n              swap1\n              tag_49\n              swap2\n              swap1\n              tag_50\n              jump\t// in\n            tag_49:\n              tag_51\n              jump\t// in\n            tag_48:\n              stop\n                /* \"Crowdfunding.sol\":1153:1220  mapping(uint256 => SpendingRequest) public spendingRequestsRegistry */\n            tag_10:\n              callvalue\n              dup1\n              iszero\n              tag_52\n              jumpi\n              0x00\n              dup1\n              revert\n            tag_52:\n              pop\n              tag_53\n              0x04\n              dup1\n              calldatasize\n              sub\n              dup2\n              add\n              swap1\n              tag_54\n              swap2\n              swap1\n              tag_18\n              jump\t// in\n            tag_54:\n              tag_55\n              jump\t// in\n            tag_53:\n              mload(0x40)\n              tag_56\n              swap6\n              swap5\n              swap4\n              swap3\n              swap2\n              swap1\n              tag_57\n              jump\t// in\n            tag_56:\n              mload(0x40)\n              dup1\n              swap2\n              sub\n              swap1\n              return\n                /* \"Crowdfunding.sol\":941:972  uint256 public numberOfRequests */\n            tag_11:\n              callvalue\n              dup1\n              iszero\n              tag_58\n              jumpi\n              0x00\n              dup1\n              revert\n            tag_58:\n              pop\n              tag_59\n              tag_60\n              jump\t// in\n            tag_59:\n              mload(0x40)\n              tag_61\n              swap2\n              swap1\n              tag_31\n              jump\t// in\n            tag_61:\n              mload(0x40)\n              dup1\n              swap2\n              sub\n              swap1\n              return\n                /* \"Crowdfunding.sol\":4494:4727  function approveRequest(uint256 requestNumber) public {... */\n            tag_12:\n              callvalue\n              dup1\n              iszero\n              tag_62\n              jumpi\n              0x00\n              dup1\n              revert\n            tag_62:\n              pop\n              tag_63\n              0x04\n              dup1\n              calldatasize\n              sub\n              dup2\n              add\n              swap1\n              tag_64\n              swap2\n              swap1\n              tag_18\n              jump\t// in\n            tag_64:\n              tag_65\n              jump\t// in\n            tag_63:\n              stop\n                /* \"Crowdfunding.sol\":3943:4094  function contributeToTheCampaign() external payable {... */\n            tag_15:\n                /* \"Crowdfunding.sol\":4005:4045  verifyContributionEligibility(msg.value) */\n              tag_67\n                /* \"Crowdfunding.sol\":4035:4044  msg.value */\n              callvalue\n                /* \"Crowdfunding.sol\":4005:4034  verifyContributionEligibility */\n              tag_68\n                /* \"Crowdfunding.sol\":4005:4045  verifyContributionEligibility(msg.value) */\n              jump\t// in\n            tag_67:\n                /* \"Crowdfunding.sol\":4055:4087  registerContribution(msg.sender) */\n              tag_69\n                /* \"Crowdfunding.sol\":4076:4086  msg.sender */\n              caller\n                /* \"Crowdfunding.sol\":4055:4075  registerContribution */\n              tag_70\n                /* \"Crowdfunding.sol\":4055:4087  registerContribution(msg.sender) */\n              jump\t// in\n            tag_69:\n                /* \"Crowdfunding.sol\":3943:4094  function contributeToTheCampaign() external payable {... */\n              jump\t// out\n                /* \"Crowdfunding.sol\":4733:5076  function consumeRequest(uint256 requestNumber)... */\n            tag_19:\n                /* \"Crowdfunding.sol\":1743:1757  founderAddress */\n              0x00\n              dup1\n              sload\n              swap1\n              0x0100\n              exp\n              swap1\n              div\n              0xffffffffffffffffffffffffffffffffffffffff\n              and\n                /* \"Crowdfunding.sol\":1729:1757  msg.sender == founderAddress */\n              0xffffffffffffffffffffffffffffffffffffffff\n              and\n                /* \"Crowdfunding.sol\":1729:1739  msg.sender */\n              caller\n                /* \"Crowdfunding.sol\":1729:1757  msg.sender == founderAddress */\n              0xffffffffffffffffffffffffffffffffffffffff\n              and\n              eq\n                /* \"Crowdfunding.sol\":1708:1823  require(... */\n              tag_72\n              jumpi\n              mload(0x40)\n              0x08c379a000000000000000000000000000000000000000000000000000000000\n              dup2\n              mstore\n              0x04\n              add\n              tag_73\n              swap1\n              tag_74\n              jump\t// in\n            tag_73:\n              mload(0x40)\n              dup1\n              swap2\n              sub\n              swap1\n              revert\n            tag_72:\n                /* \"Crowdfunding.sol\":4851:4891  SpendingRequest storage requestToConsume */\n              0x00\n                /* \"Crowdfunding.sol\":4894:4918  spendingRequestsRegistry */\n              0x06\n                /* \"Crowdfunding.sol\":4894:4955  spendingRequestsRegistry[... */\n              0x00\n                /* \"Crowdfunding.sol\":4932:4945  requestNumber */\n              dup4\n                /* \"Crowdfunding.sol\":4894:4955  spendingRequestsRegistry[... */\n              dup2\n              mstore\n              0x20\n              add\n              swap1\n              dup2\n              mstore\n              0x20\n              add\n              0x00\n              keccak256\n                /* \"Crowdfunding.sol\":4851:4955  SpendingRequest storage requestToConsume = spendingRequestsRegistry[... */\n              swap1\n              pop\n                /* \"Crowdfunding.sol\":4966:5019  verifyRequestConsumptionEligibility(requestToConsume) */\n              tag_76\n                /* \"Crowdfunding.sol\":5002:5018  requestToConsume */\n              dup2\n                /* \"Crowdfunding.sol\":4966:5001  verifyRequestConsumptionEligibility */\n              tag_77\n                /* \"Crowdfunding.sol\":4966:5019  verifyRequestConsumptionEligibility(requestToConsume) */\n              jump\t// in\n            tag_76:\n                /* \"Crowdfunding.sol\":5029:5069  consumeSpendingRequest(requestToConsume) */\n              tag_78\n                /* \"Crowdfunding.sol\":5052:5068  requestToConsume */\n              dup2\n                /* \"Crowdfunding.sol\":5029:5051  consumeSpendingRequest */\n              tag_79\n                /* \"Crowdfunding.sol\":5029:5069  consumeSpendingRequest(requestToConsume) */\n              jump\t// in\n            tag_78:\n                /* \"Crowdfunding.sol\":4841:5076  {... */\n              pop\n                /* \"Crowdfunding.sol\":4733:5076  function consumeRequest(uint256 requestNumber)... */\n              pop\n              jump\t// out\n                /* \"Crowdfunding.sol\":1078:1147  mapping(uint256 => mapping(address => bool)) public approvalsRegistry */\n            tag_24:\n              mstore(0x20, 0x05)\n              dup2\n              0x00\n              mstore\n              mstore(0x20, keccak256(0x00, 0x40))\n              dup1\n              0x00\n              mstore\n              keccak256(0x00, 0x40)\n              0x00\n              swap2\n              pop\n              swap2\n              pop\n              swap1\n              sload\n              swap1\n              0x0100\n              exp\n              swap1\n              div\n              0xff\n              and\n              dup2\n              jump\t// out\n                /* \"Crowdfunding.sol\":978:1013  uint256 public numberOfContributors */\n            tag_29:\n              sload(0x03)\n              dup2\n              jump\t// out\n                /* \"Crowdfunding.sol\":679:708  address public founderAddress */\n            tag_34:\n              0x00\n              dup1\n              sload\n              swap1\n              0x0100\n              exp\n              swap1\n              div\n              0xffffffffffffffffffffffffffffffffffffffff\n              and\n              dup2\n              jump\t// out\n                /* \"Crowdfunding.sol\":1020:1072  mapping(address => bool) public contributorsRegistry */\n            tag_41:\n              mstore(0x20, 0x04)\n              dup1\n              0x00\n              mstore\n              keccak256(0x00, 0x40)\n              0x00\n              swap2\n              pop\n              sload\n              swap1\n              0x0100\n              exp\n              swap1\n              div\n              0xff\n              and\n              dup2\n              jump\t// out\n                /* \"Crowdfunding.sol\":714:751  uint256 public minimalContributionWei */\n            tag_45:\n              sload(0x01)\n              dup2\n              jump\t// out\n                /* \"Crowdfunding.sol\":4100:4488  function createSpendingRequest(... */\n            tag_51:\n                /* \"Crowdfunding.sol\":1743:1757  founderAddress */\n              0x00\n              dup1\n              sload\n              swap1\n              0x0100\n              exp\n              swap1\n              div\n              0xffffffffffffffffffffffffffffffffffffffff\n              and\n                /* \"Crowdfunding.sol\":1729:1757  msg.sender == founderAddress */\n              0xffffffffffffffffffffffffffffffffffffffff\n              and\n                /* \"Crowdfunding.sol\":1729:1739  msg.sender */\n              caller\n                /* \"Crowdfunding.sol\":1729:1757  msg.sender == founderAddress */\n              0xffffffffffffffffffffffffffffffffffffffff\n              and\n              eq\n                /* \"Crowdfunding.sol\":1708:1823  require(... */\n              tag_81\n              jumpi\n              mload(0x40)\n              0x08c379a000000000000000000000000000000000000000000000000000000000\n              dup2\n              mstore\n              0x04\n              add\n              tag_82\n              swap1\n              tag_74\n              jump\t// in\n            tag_82:\n              mload(0x40)\n              dup1\n              swap2\n              sub\n              swap1\n              revert\n            tag_81:\n                /* \"Crowdfunding.sol\":4266:4307  SpendingRequest memory newSpendingRequest */\n              0x00\n                /* \"Crowdfunding.sol\":4310:4407  createRequest(... */\n              tag_84\n                /* \"Crowdfunding.sol\":4337:4348  description */\n              dup5\n                /* \"Crowdfunding.sol\":4362:4367  value */\n              dup5\n                /* \"Crowdfunding.sol\":4381:4397  recipientAddress */\n              dup5\n                /* \"Crowdfunding.sol\":4310:4323  createRequest */\n              tag_85\n                /* \"Crowdfunding.sol\":4310:4407  createRequest(... */\n              jump\t// in\n            tag_84:\n                /* \"Crowdfunding.sol\":4266:4407  SpendingRequest memory newSpendingRequest = createRequest(... */\n              swap1\n              pop\n                /* \"Crowdfunding.sol\":4463:4481  newSpendingRequest */\n              dup1\n                /* \"Crowdfunding.sol\":4418:4442  spendingRequestsRegistry */\n              0x06\n                /* \"Crowdfunding.sol\":4418:4460  spendingRequestsRegistry[numberOfRequests] */\n              0x00\n                /* \"Crowdfunding.sol\":4443:4459  numberOfRequests */\n              sload(0x02)\n                /* \"Crowdfunding.sol\":4418:4460  spendingRequestsRegistry[numberOfRequests] */\n              dup2\n              mstore\n              0x20\n              add\n              swap1\n              dup2\n              mstore\n              0x20\n              add\n              0x00\n              keccak256\n                /* \"Crowdfunding.sol\":4418:4481  spendingRequestsRegistry[numberOfRequests] = newSpendingRequest */\n              0x00\n              dup3\n              add\n              mload\n              dup2\n              0x00\n              add\n              swap1\n              dup1\n              mload\n              swap1\n              0x20\n              add\n              swap1\n              tag_86\n              swap3\n              swap2\n              swap1\n              tag_87\n              jump\t// in\n            tag_86:\n              pop\n              0x20\n              dup3\n              add\n              mload\n              dup2\n              0x01\n              add\n              sstore\n              0x40\n              dup3\n              add\n              mload\n              dup2\n              0x02\n              add\n              exp(0x0100, 0x00)\n              dup2\n              sload\n              dup2\n              0xffffffffffffffffffffffffffffffffffffffff\n              mul\n              not\n              and\n              swap1\n              dup4\n              0xffffffffffffffffffffffffffffffffffffffff\n              and\n              mul\n              or\n              swap1\n              sstore\n              pop\n              0x60\n              dup3\n              add\n              mload\n              dup2\n              0x03\n              add\n              sstore\n              0x80\n              dup3\n              add\n              mload\n              dup2\n              0x04\n              add\n              exp(0x0100, 0x00)\n              dup2\n              sload\n              dup2\n              0xff\n              mul\n              not\n              and\n              swap1\n              dup4\n              iszero\n              iszero\n              mul\n              or\n              swap1\n              sstore\n              pop\n              swap1\n              pop\n              pop\n                /* \"Crowdfunding.sol\":4256:4488  {... */\n              pop\n                /* \"Crowdfunding.sol\":4100:4488  function createSpendingRequest(... */\n              pop\n              pop\n              pop\n              jump\t// out\n                /* \"Crowdfunding.sol\":1153:1220  mapping(uint256 => SpendingRequest) public spendingRequestsRegistry */\n            tag_55:\n              mstore(0x20, 0x06)\n              dup1\n              0x00\n              mstore\n              keccak256(0x00, 0x40)\n              0x00\n              swap2\n              pop\n              swap1\n              pop\n              dup1\n              0x00\n              add\n              dup1\n              sload\n              tag_88\n              swap1\n              tag_89\n              jump\t// in\n            tag_88:\n              dup1\n              0x1f\n              add\n              0x20\n              dup1\n              swap2\n              div\n              mul\n              0x20\n              add\n              mload(0x40)\n              swap1\n              dup2\n              add\n              0x40\n              mstore\n              dup1\n              swap3\n              swap2\n              swap1\n              dup2\n              dup2\n              mstore\n              0x20\n              add\n              dup3\n              dup1\n              sload\n              tag_90\n              swap1\n              tag_89\n              jump\t// in\n            tag_90:\n              dup1\n              iszero\n              tag_91\n              jumpi\n              dup1\n              0x1f\n              lt\n              tag_92\n              jumpi\n              0x0100\n              dup1\n              dup4\n              sload\n              div\n              mul\n              dup4\n              mstore\n              swap2\n              0x20\n              add\n              swap2\n              jump(tag_91)\n            tag_92:\n              dup3\n              add\n              swap2\n              swap1\n              0x00\n              mstore\n              keccak256(0x00, 0x20)\n              swap1\n            tag_93:\n              dup2\n              sload\n              dup2\n              mstore\n              swap1\n              0x01\n              add\n              swap1\n              0x20\n              add\n              dup1\n              dup4\n              gt\n              tag_93\n              jumpi\n              dup3\n              swap1\n              sub\n              0x1f\n              and\n              dup3\n              add\n              swap2\n            tag_91:\n              pop\n              pop\n              pop\n              pop\n              pop\n              swap1\n              dup1\n              0x01\n              add\n              sload\n              swap1\n              dup1\n              0x02\n              add\n              0x00\n              swap1\n              sload\n              swap1\n              0x0100\n              exp\n              swap1\n              div\n              0xffffffffffffffffffffffffffffffffffffffff\n              and\n              swap1\n              dup1\n              0x03\n              add\n              sload\n              swap1\n              dup1\n              0x04\n              add\n              0x00\n              swap1\n              sload\n              swap1\n              0x0100\n              exp\n              swap1\n              div\n              0xff\n              and\n              swap1\n              pop\n              dup6\n              jump\t// out\n                /* \"Crowdfunding.sol\":941:972  uint256 public numberOfRequests */\n            tag_60:\n              sload(0x02)\n              dup2\n              jump\t// out\n                /* \"Crowdfunding.sol\":4494:4727  function approveRequest(uint256 requestNumber) public {... */\n            tag_65:\n                /* \"Crowdfunding.sol\":4558:4581  address approverAddress */\n              0x00\n                /* \"Crowdfunding.sol\":4584:4594  msg.sender */\n              caller\n                /* \"Crowdfunding.sol\":4558:4594  address approverAddress = msg.sender */\n              swap1\n              pop\n                /* \"Crowdfunding.sol\":4605:4662  verifyApprovalEligibility(approverAddress, requestNumber) */\n              tag_95\n                /* \"Crowdfunding.sol\":4631:4646  approverAddress */\n              dup2\n                /* \"Crowdfunding.sol\":4648:4661  requestNumber */\n              dup4\n                /* \"Crowdfunding.sol\":4605:4630  verifyApprovalEligibility */\n              tag_96\n                /* \"Crowdfunding.sol\":4605:4662  verifyApprovalEligibility(approverAddress, requestNumber) */\n              jump\t// in\n            tag_95:\n                /* \"Crowdfunding.sol\":4672:4720  registerApproval(approverAddress, requestNumber) */\n              tag_97\n                /* \"Crowdfunding.sol\":4689:4704  approverAddress */\n              dup2\n                /* \"Crowdfunding.sol\":4706:4719  requestNumber */\n              dup4\n                /* \"Crowdfunding.sol\":4672:4688  registerApproval */\n              tag_98\n                /* \"Crowdfunding.sol\":4672:4720  registerApproval(approverAddress, requestNumber) */\n              jump\t// in\n            tag_97:\n                /* \"Crowdfunding.sol\":4548:4727  {... */\n              pop\n                /* \"Crowdfunding.sol\":4494:4727  function approveRequest(uint256 requestNumber) public {... */\n              pop\n              jump\t// out\n                /* \"Crowdfunding.sol\":1866:2141  function verifyContributionEligibility(uint256 contributionValue)... */\n            tag_68:\n                /* \"Crowdfunding.sol\":2018:2040  minimalContributionWei */\n              sload(0x01)\n                /* \"Crowdfunding.sol\":1997:2014  contributionValue */\n              dup2\n                /* \"Crowdfunding.sol\":1997:2040  contributionValue >= minimalContributionWei */\n              lt\n              iszero\n                /* \"Crowdfunding.sol\":1976:2134  require(... */\n              tag_100\n              jumpi\n              mload(0x40)\n              0x08c379a000000000000000000000000000000000000000000000000000000000\n              dup2\n              mstore\n              0x04\n              add\n              tag_101\n              swap1\n              tag_102\n              jump\t// in\n            tag_101:\n              mload(0x40)\n              dup1\n              swap2\n              sub\n              swap1\n              revert\n            tag_100:\n                /* \"Crowdfunding.sol\":1866:2141  function verifyContributionEligibility(uint256 contributionValue)... */\n              pop\n              jump\t// out\n                /* \"Crowdfunding.sol\":2147:2310  function registerContribution(address contributorAddress) internal {... */\n            tag_70:\n                /* \"Crowdfunding.sol\":2267:2271  true */\n              0x01\n                /* \"Crowdfunding.sol\":2224:2244  contributorsRegistry */\n              0x04\n                /* \"Crowdfunding.sol\":2224:2264  contributorsRegistry[contributorAddress] */\n              0x00\n                /* \"Crowdfunding.sol\":2245:2263  contributorAddress */\n              dup4\n                /* \"Crowdfunding.sol\":2224:2264  contributorsRegistry[contributorAddress] */\n              0xffffffffffffffffffffffffffffffffffffffff\n              and\n              0xffffffffffffffffffffffffffffffffffffffff\n              and\n              dup2\n              mstore\n              0x20\n              add\n              swap1\n              dup2\n              mstore\n              0x20\n              add\n              0x00\n              keccak256\n              0x00\n                /* \"Crowdfunding.sol\":2224:2271  contributorsRegistry[contributorAddress] = true */\n              0x0100\n              exp\n              dup2\n              sload\n              dup2\n              0xff\n              mul\n              not\n              and\n              swap1\n              dup4\n              iszero\n              iszero\n              mul\n              or\n              swap1\n              sstore\n              pop\n                /* \"Crowdfunding.sol\":2281:2301  numberOfContributors */\n              0x03\n              0x00\n                /* \"Crowdfunding.sol\":2281:2303  numberOfContributors++ */\n              dup2\n              sload\n              dup1\n              swap3\n              swap2\n              swap1\n              tag_104\n              swap1\n              tag_105\n              jump\t// in\n            tag_104:\n              swap2\n              swap1\n              pop\n              sstore\n              pop\n                /* \"Crowdfunding.sol\":2147:2310  function registerContribution(address contributorAddress) internal {... */\n              pop\n              jump\t// out\n                /* \"Crowdfunding.sol\":3296:3693  function verifyRequestConsumptionEligibility(... */\n            tag_77:\n                /* \"Crowdfunding.sol\":3443:3459  requestToConsume */\n              dup1\n                /* \"Crowdfunding.sol\":3443:3468  requestToConsume.consumed */\n              0x04\n              add\n              0x00\n              swap1\n              sload\n              swap1\n              0x0100\n              exp\n              swap1\n              div\n              0xff\n              and\n                /* \"Crowdfunding.sol\":3442:3468  !requestToConsume.consumed */\n              iszero\n                /* \"Crowdfunding.sol\":3421:3532  require(... */\n              tag_107\n              jumpi\n              mload(0x40)\n              0x08c379a000000000000000000000000000000000000000000000000000000000\n              dup2\n              mstore\n              0x04\n              add\n              tag_108\n              swap1\n              tag_109\n              jump\t// in\n            tag_108:\n              mload(0x40)\n              dup1\n              swap2\n              sub\n              swap1\n              revert\n            tag_107:\n                /* \"Crowdfunding.sol\":3621:3622  2 */\n              0x02\n                /* \"Crowdfunding.sol\":3598:3618  numberOfContributors */\n              sload(0x03)\n                /* \"Crowdfunding.sol\":3598:3622  numberOfContributors / 2 */\n              tag_110\n              swap2\n              swap1\n              tag_111\n              jump\t// in\n            tag_110:\n                /* \"Crowdfunding.sol\":3564:3580  requestToConsume */\n              dup2\n                /* \"Crowdfunding.sol\":3564:3594  requestToConsume.approvalCount */\n              0x03\n              add\n              sload\n                /* \"Crowdfunding.sol\":3564:3623  requestToConsume.approvalCount > (numberOfContributors / 2) */\n              gt\n                /* \"Crowdfunding.sol\":3543:3686  require(... */\n              tag_112\n              jumpi\n              mload(0x40)\n              0x08c379a000000000000000000000000000000000000000000000000000000000\n              dup2\n              mstore\n              0x04\n              add\n              tag_113\n              swap1\n              tag_114\n              jump\t// in\n            tag_113:\n              mload(0x40)\n              dup1\n              swap2\n              sub\n              swap1\n              revert\n            tag_112:\n                /* \"Crowdfunding.sol\":3296:3693  function verifyRequestConsumptionEligibility(... */\n              pop\n              jump\t// out\n                /* \"Crowdfunding.sol\":3699:3919  function consumeSpendingRequest(SpendingRequest storage requestToConsume)... */\n            tag_79:\n                /* \"Crowdfunding.sol\":3832:3836  true */\n              0x01\n                /* \"Crowdfunding.sol\":3804:3820  requestToConsume */\n              dup2\n                /* \"Crowdfunding.sol\":3804:3829  requestToConsume.consumed */\n              0x04\n              add\n              0x00\n                /* \"Crowdfunding.sol\":3804:3836  requestToConsume.consumed = true */\n              0x0100\n              exp\n              dup2\n              sload\n              dup2\n              0xff\n              mul\n              not\n              and\n              swap1\n              dup4\n              iszero\n              iszero\n              mul\n              or\n              swap1\n              sstore\n              pop\n                /* \"Crowdfunding.sol\":3846:3862  requestToConsume */\n              dup1\n                /* \"Crowdfunding.sol\":3846:3879  requestToConsume.recipientAddress */\n              0x02\n              add\n              0x00\n              swap1\n              sload\n              swap1\n              0x0100\n              exp\n              swap1\n              div\n              0xffffffffffffffffffffffffffffffffffffffff\n              and\n                /* \"Crowdfunding.sol\":3846:3888  requestToConsume.recipientAddress.transfer */\n              0xffffffffffffffffffffffffffffffffffffffff\n              and\n                /* \"Crowdfunding.sol\":3846:3912  requestToConsume.recipientAddress.transfer(requestToConsume.value) */\n              0x08fc\n                /* \"Crowdfunding.sol\":3889:3905  requestToConsume */\n              dup3\n                /* \"Crowdfunding.sol\":3889:3911  requestToConsume.value */\n              0x01\n              add\n              sload\n                /* \"Crowdfunding.sol\":3846:3912  requestToConsume.recipientAddress.transfer(requestToConsume.value) */\n              swap1\n              dup2\n              iszero\n              mul\n              swap1\n              mload(0x40)\n              0x00\n              mload(0x40)\n              dup1\n              dup4\n              sub\n              dup2\n              dup6\n              dup9\n              dup9\n              call\n              swap4\n              pop\n              pop\n              pop\n              pop\n              iszero\n              dup1\n              iszero\n              tag_117\n              jumpi\n              returndatasize\n              0x00\n              dup1\n              returndatacopy\n              revert(0x00, returndatasize)\n            tag_117:\n              pop\n                /* \"Crowdfunding.sol\":3699:3919  function consumeSpendingRequest(SpendingRequest storage requestToConsume)... */\n              pop\n              jump\t// out\n                /* \"Crowdfunding.sol\":2316:2794  function createRequest(... */\n            tag_85:\n                /* \"Crowdfunding.sol\":2455:2496  SpendingRequest memory newSpendingRequest */\n              tag_118\n              tag_119\n              jump\t// in\n            tag_118:\n                /* \"Crowdfunding.sol\":2508:2524  numberOfRequests */\n              0x02\n              0x00\n                /* \"Crowdfunding.sol\":2508:2526  numberOfRequests++ */\n              dup2\n              sload\n              dup1\n              swap3\n              swap2\n              swap1\n              tag_121\n              swap1\n              tag_105\n              jump\t// in\n            tag_121:\n              swap2\n              swap1\n              pop\n              sstore\n              pop\n                /* \"Crowdfunding.sol\":2556:2787  SpendingRequest({... */\n              mload(0x40)\n              dup1\n              0xa0\n              add\n              0x40\n              mstore\n              dup1\n                /* \"Crowdfunding.sol\":2603:2614  description */\n              dup6\n                /* \"Crowdfunding.sol\":2556:2787  SpendingRequest({... */\n              dup2\n              mstore\n              0x20\n              add\n                /* \"Crowdfunding.sol\":2639:2644  value */\n              dup5\n                /* \"Crowdfunding.sol\":2556:2787  SpendingRequest({... */\n              dup2\n              mstore\n              0x20\n              add\n                /* \"Crowdfunding.sol\":2688:2704  recipientAddress */\n              dup4\n                /* \"Crowdfunding.sol\":2556:2787  SpendingRequest({... */\n              0xffffffffffffffffffffffffffffffffffffffff\n              and\n              dup2\n              mstore\n              0x20\n              add\n                /* \"Crowdfunding.sol\":2771:2772  0 */\n              0x00\n                /* \"Crowdfunding.sol\":2556:2787  SpendingRequest({... */\n              dup2\n              mstore\n              0x20\n              add\n                /* \"Crowdfunding.sol\":2733:2738  false */\n              0x00\n                /* \"Crowdfunding.sol\":2556:2787  SpendingRequest({... */\n              iszero\n              iszero\n              dup2\n              mstore\n              pop\n                /* \"Crowdfunding.sol\":2537:2787  return... */\n              swap1\n              pop\n                /* \"Crowdfunding.sol\":2316:2794  function createRequest(... */\n              swap4\n              swap3\n              pop\n              pop\n              pop\n              jump\t// out\n                /* \"Crowdfunding.sol\":2800:3051  function verifyApprovalEligibility(... */\n            tag_96:\n                /* \"Crowdfunding.sol\":2937:2957  contributorsRegistry */\n              0x04\n                /* \"Crowdfunding.sol\":2937:2974  contributorsRegistry[approverAddress] */\n              0x00\n                /* \"Crowdfunding.sol\":2958:2973  approverAddress */\n              dup4\n                /* \"Crowdfunding.sol\":2937:2974  contributorsRegistry[approverAddress] */\n              0xffffffffffffffffffffffffffffffffffffffff\n              and\n              0xffffffffffffffffffffffffffffffffffffffff\n              and\n              dup2\n              mstore\n              0x20\n              add\n              swap1\n              dup2\n              mstore\n              0x20\n              add\n              0x00\n              keccak256\n              0x00\n              swap1\n              sload\n              swap1\n              0x0100\n              exp\n              swap1\n              div\n              0xff\n              and\n                /* \"Crowdfunding.sol\":2929:2975  require(contributorsRegistry[approverAddress]) */\n              tag_123\n              jumpi\n              0x00\n              dup1\n              revert\n            tag_123:\n                /* \"Crowdfunding.sol\":2994:3011  approvalsRegistry */\n              0x05\n                /* \"Crowdfunding.sol\":2994:3026  approvalsRegistry[requestNumber] */\n              0x00\n                /* \"Crowdfunding.sol\":3012:3025  requestNumber */\n              dup3\n                /* \"Crowdfunding.sol\":2994:3026  approvalsRegistry[requestNumber] */\n              dup2\n              mstore\n              0x20\n              add\n              swap1\n              dup2\n              mstore\n              0x20\n              add\n              0x00\n              keccak256\n                /* \"Crowdfunding.sol\":2994:3043  approvalsRegistry[requestNumber][approverAddress] */\n              0x00\n                /* \"Crowdfunding.sol\":3027:3042  approverAddress */\n              dup4\n                /* \"Crowdfunding.sol\":2994:3043  approvalsRegistry[requestNumber][approverAddress] */\n              0xffffffffffffffffffffffffffffffffffffffff\n              and\n              0xffffffffffffffffffffffffffffffffffffffff\n              and\n              dup2\n              mstore\n              0x20\n              add\n              swap1\n              dup2\n              mstore\n              0x20\n              add\n              0x00\n              keccak256\n              0x00\n              swap1\n              sload\n              swap1\n              0x0100\n              exp\n              swap1\n              div\n              0xff\n              and\n                /* \"Crowdfunding.sol\":2993:3043  !approvalsRegistry[requestNumber][approverAddress] */\n              iszero\n                /* \"Crowdfunding.sol\":2985:3044  require(!approvalsRegistry[requestNumber][approverAddress]) */\n              tag_124\n              jumpi\n              0x00\n              dup1\n              revert\n            tag_124:\n                /* \"Crowdfunding.sol\":2800:3051  function verifyApprovalEligibility(... */\n              pop\n              pop\n              jump\t// out\n                /* \"Crowdfunding.sol\":3057:3290  function registerApproval(address approverAddress, uint256 requestNumber)... */\n            tag_98:\n                /* \"Crowdfunding.sol\":3162:3186  spendingRequestsRegistry */\n              0x06\n                /* \"Crowdfunding.sol\":3162:3201  spendingRequestsRegistry[requestNumber] */\n              0x00\n                /* \"Crowdfunding.sol\":3187:3200  requestNumber */\n              dup3\n                /* \"Crowdfunding.sol\":3162:3201  spendingRequestsRegistry[requestNumber] */\n              dup2\n              mstore\n              0x20\n              add\n              swap1\n              dup2\n              mstore\n              0x20\n              add\n              0x00\n              keccak256\n                /* \"Crowdfunding.sol\":3162:3215  spendingRequestsRegistry[requestNumber].approvalCount */\n              0x03\n              add\n              0x00\n                /* \"Crowdfunding.sol\":3162:3217  spendingRequestsRegistry[requestNumber].approvalCount++ */\n              dup2\n              sload\n              dup1\n              swap3\n              swap2\n              swap1\n              tag_126\n              swap1\n              tag_105\n              jump\t// in\n            tag_126:\n              swap2\n              swap1\n              pop\n              sstore\n              pop\n                /* \"Crowdfunding.sol\":3279:3283  true */\n              0x01\n                /* \"Crowdfunding.sol\":3227:3244  approvalsRegistry */\n              0x05\n                /* \"Crowdfunding.sol\":3227:3259  approvalsRegistry[requestNumber] */\n              0x00\n                /* \"Crowdfunding.sol\":3245:3258  requestNumber */\n              dup4\n                /* \"Crowdfunding.sol\":3227:3259  approvalsRegistry[requestNumber] */\n              dup2\n              mstore\n              0x20\n              add\n              swap1\n              dup2\n              mstore\n              0x20\n              add\n              0x00\n              keccak256\n                /* \"Crowdfunding.sol\":3227:3276  approvalsRegistry[requestNumber][approverAddress] */\n              0x00\n                /* \"Crowdfunding.sol\":3260:3275  approverAddress */\n              dup5\n                /* \"Crowdfunding.sol\":3227:3276  approvalsRegistry[requestNumber][approverAddress] */\n              0xffffffffffffffffffffffffffffffffffffffff\n              and\n              0xffffffffffffffffffffffffffffffffffffffff\n              and\n              dup2\n              mstore\n              0x20\n              add\n              swap1\n              dup2\n              mstore\n              0x20\n              add\n              0x00\n              keccak256\n              0x00\n                /* \"Crowdfunding.sol\":3227:3283  approvalsRegistry[requestNumber][approverAddress] = true */\n              0x0100\n              exp\n              dup2\n              sload\n              dup2\n              0xff\n              mul\n              not\n              and\n              swap1\n              dup4\n              iszero\n              iszero\n              mul\n              or\n              swap1\n              sstore\n              pop\n                /* \"Crowdfunding.sol\":3057:3290  function registerApproval(address approverAddress, uint256 requestNumber)... */\n              pop\n              pop\n              jump\t// out\n            tag_87:\n              dup3\n              dup1\n              sload\n              tag_127\n              swap1\n              tag_89\n              jump\t// in\n            tag_127:\n              swap1\n              0x00\n              mstore\n              keccak256(0x00, 0x20)\n              swap1\n              0x1f\n              add\n              0x20\n              swap1\n              div\n              dup2\n              add\n              swap3\n              dup3\n              tag_129\n              jumpi\n              0x00\n              dup6\n              sstore\n              jump(tag_128)\n            tag_129:\n              dup3\n              0x1f\n              lt\n              tag_130\n              jumpi\n              dup1\n              mload\n              not(0xff)\n              and\n              dup4\n              dup1\n              add\n              or\n              dup6\n              sstore\n              jump(tag_128)\n            tag_130:\n              dup3\n              dup1\n              add\n              0x01\n              add\n              dup6\n              sstore\n              dup3\n              iszero\n              tag_128\n              jumpi\n              swap2\n              dup3\n              add\n            tag_131:\n              dup3\n              dup2\n              gt\n              iszero\n              tag_132\n              jumpi\n              dup3\n              mload\n              dup3\n              sstore\n              swap2\n              0x20\n              add\n              swap2\n              swap1\n              0x01\n              add\n              swap1\n              jump(tag_131)\n            tag_132:\n            tag_128:\n              pop\n              swap1\n              pop\n              tag_133\n              swap2\n              swap1\n              tag_134\n              jump\t// in\n            tag_133:\n              pop\n              swap1\n              jump\t// out\n            tag_119:\n              mload(0x40)\n              dup1\n              0xa0\n              add\n              0x40\n              mstore\n              dup1\n              0x60\n              dup2\n              mstore\n              0x20\n              add\n              0x00\n              dup2\n              mstore\n              0x20\n              add\n              and(0xffffffffffffffffffffffffffffffffffffffff, 0x00)\n              dup2\n              mstore\n              0x20\n              add\n              0x00\n              dup2\n              mstore\n              0x20\n              add\n              iszero(iszero(0x00))\n              dup2\n              mstore\n              pop\n              swap1\n              jump\t// out\n            tag_134:\n            tag_135:\n              dup1\n              dup3\n              gt\n              iszero\n              tag_136\n              jumpi\n              0x00\n              dup2\n              0x00\n              swap1\n              sstore\n              pop\n              0x01\n              add\n              jump(tag_135)\n            tag_136:\n              pop\n              swap1\n              jump\t// out\n                /* \"#utility.yul\":7:419   */\n            tag_138:\n                /* \"#utility.yul\":85:90   */\n              0x00\n                /* \"#utility.yul\":110:176   */\n              tag_140\n                /* \"#utility.yul\":126:175   */\n              tag_141\n                /* \"#utility.yul\":168:174   */\n              dup5\n                /* \"#utility.yul\":126:175   */\n              tag_142\n              jump\t// in\n            tag_141:\n                /* \"#utility.yul\":110:176   */\n              tag_143\n              jump\t// in\n            tag_140:\n                /* \"#utility.yul\":101:176   */\n              swap1\n              pop\n                /* \"#utility.yul\":199:205   */\n              dup3\n                /* \"#utility.yul\":192:197   */\n              dup2\n                /* \"#utility.yul\":185:206   */\n              mstore\n                /* \"#utility.yul\":237:241   */\n              0x20\n                /* \"#utility.yul\":230:235   */\n              dup2\n                /* \"#utility.yul\":226:242   */\n              add\n                /* \"#utility.yul\":275:278   */\n              dup5\n                /* \"#utility.yul\":266:272   */\n              dup5\n                /* \"#utility.yul\":261:264   */\n              dup5\n                /* \"#utility.yul\":257:273   */\n              add\n                /* \"#utility.yul\":254:279   */\n              gt\n                /* \"#utility.yul\":251:253   */\n              iszero\n              tag_144\n              jumpi\n                /* \"#utility.yul\":282:361   */\n              tag_145\n              tag_146\n              jump\t// in\n            tag_145:\n                /* \"#utility.yul\":251:253   */\n            tag_144:\n                /* \"#utility.yul\":372:413   */\n              tag_147\n                /* \"#utility.yul\":406:412   */\n              dup5\n                /* \"#utility.yul\":401:404   */\n              dup3\n                /* \"#utility.yul\":396:399   */\n              dup6\n                /* \"#utility.yul\":372:413   */\n              tag_148\n              jump\t// in\n            tag_147:\n                /* \"#utility.yul\":91:419   */\n              pop\n              swap4\n              swap3\n              pop\n              pop\n              pop\n              jump\t// out\n                /* \"#utility.yul\":425:564   */\n            tag_149:\n                /* \"#utility.yul\":471:476   */\n              0x00\n                /* \"#utility.yul\":509:515   */\n              dup2\n                /* \"#utility.yul\":496:516   */\n              calldataload\n                /* \"#utility.yul\":487:516   */\n              swap1\n              pop\n                /* \"#utility.yul\":525:558   */\n              tag_151\n                /* \"#utility.yul\":552:557   */\n              dup2\n                /* \"#utility.yul\":525:558   */\n              tag_152\n              jump\t// in\n            tag_151:\n                /* \"#utility.yul\":477:564   */\n              swap3\n              swap2\n              pop\n              pop\n              jump\t// out\n                /* \"#utility.yul\":584:924   */\n            tag_153:\n                /* \"#utility.yul\":640:645   */\n              0x00\n                /* \"#utility.yul\":689:692   */\n              dup3\n                /* \"#utility.yul\":682:686   */\n              0x1f\n                /* \"#utility.yul\":674:680   */\n              dup4\n                /* \"#utility.yul\":670:687   */\n              add\n                /* \"#utility.yul\":666:693   */\n              slt\n                /* \"#utility.yul\":656:658   */\n              tag_155\n              jumpi\n                /* \"#utility.yul\":697:776   */\n              tag_156\n              tag_157\n              jump\t// in\n            tag_156:\n                /* \"#utility.yul\":656:658   */\n            tag_155:\n                /* \"#utility.yul\":814:820   */\n              dup2\n                /* \"#utility.yul\":801:821   */\n              calldataload\n                /* \"#utility.yul\":839:918   */\n              tag_158\n                /* \"#utility.yul\":914:917   */\n              dup5\n                /* \"#utility.yul\":906:912   */\n              dup3\n                /* \"#utility.yul\":899:903   */\n              0x20\n                /* \"#utility.yul\":891:897   */\n              dup7\n                /* \"#utility.yul\":887:904   */\n              add\n                /* \"#utility.yul\":839:918   */\n              tag_138\n              jump\t// in\n            tag_158:\n                /* \"#utility.yul\":830:918   */\n              swap2\n              pop\n                /* \"#utility.yul\":646:924   */\n              pop\n              swap3\n              swap2\n              pop\n              pop\n              jump\t// out\n                /* \"#utility.yul\":930:1069   */\n            tag_159:\n                /* \"#utility.yul\":976:981   */\n              0x00\n                /* \"#utility.yul\":1014:1020   */\n              dup2\n                /* \"#utility.yul\":1001:1021   */\n              calldataload\n                /* \"#utility.yul\":992:1021   */\n              swap1\n              pop\n                /* \"#utility.yul\":1030:1063   */\n              tag_161\n                /* \"#utility.yul\":1057:1062   */\n              dup2\n                /* \"#utility.yul\":1030:1063   */\n              tag_162\n              jump\t// in\n            tag_161:\n                /* \"#utility.yul\":982:1069   */\n              swap3\n              swap2\n              pop\n              pop\n              jump\t// out\n                /* \"#utility.yul\":1075:1404   */\n            tag_40:\n                /* \"#utility.yul\":1134:1140   */\n              0x00\n                /* \"#utility.yul\":1183:1185   */\n              0x20\n                /* \"#utility.yul\":1171:1180   */\n              dup3\n                /* \"#utility.yul\":1162:1169   */\n              dup5\n                /* \"#utility.yul\":1158:1181   */\n              sub\n                /* \"#utility.yul\":1154:1186   */\n              slt\n                /* \"#utility.yul\":1151:1153   */\n              iszero\n              tag_164\n              jumpi\n                /* \"#utility.yul\":1189:1268   */\n              tag_165\n              tag_166\n              jump\t// in\n            tag_165:\n                /* \"#utility.yul\":1151:1153   */\n            tag_164:\n                /* \"#utility.yul\":1309:1310   */\n              0x00\n                /* \"#utility.yul\":1334:1387   */\n              tag_167\n                /* \"#utility.yul\":1379:1386   */\n              dup5\n                /* \"#utility.yul\":1370:1376   */\n              dup3\n                /* \"#utility.yul\":1359:1368   */\n              dup6\n                /* \"#utility.yul\":1355:1377   */\n              add\n                /* \"#utility.yul\":1334:1387   */\n              tag_149\n              jump\t// in\n            tag_167:\n                /* \"#utility.yul\":1324:1387   */\n              swap2\n              pop\n                /* \"#utility.yul\":1280:1397   */\n              pop\n                /* \"#utility.yul\":1141:1404   */\n              swap3\n              swap2\n              pop\n              pop\n              jump\t// out\n                /* \"#utility.yul\":1410:2209   */\n            tag_50:\n                /* \"#utility.yul\":1497:1503   */\n              0x00\n                /* \"#utility.yul\":1505:1511   */\n              dup1\n                /* \"#utility.yul\":1513:1519   */\n              0x00\n                /* \"#utility.yul\":1562:1564   */\n              0x60\n                /* \"#utility.yul\":1550:1559   */\n              dup5\n                /* \"#utility.yul\":1541:1548   */\n              dup7\n                /* \"#utility.yul\":1537:1560   */\n              sub\n                /* \"#utility.yul\":1533:1565   */\n              slt\n                /* \"#utility.yul\":1530:1532   */\n              iszero\n              tag_169\n              jumpi\n                /* \"#utility.yul\":1568:1647   */\n              tag_170\n              tag_166\n              jump\t// in\n            tag_170:\n                /* \"#utility.yul\":1530:1532   */\n            tag_169:\n                /* \"#utility.yul\":1716:1717   */\n              0x00\n                /* \"#utility.yul\":1705:1714   */\n              dup5\n                /* \"#utility.yul\":1701:1718   */\n              add\n                /* \"#utility.yul\":1688:1719   */\n              calldataload\n                /* \"#utility.yul\":1746:1764   */\n              0xffffffffffffffff\n                /* \"#utility.yul\":1738:1744   */\n              dup2\n                /* \"#utility.yul\":1735:1765   */\n              gt\n                /* \"#utility.yul\":1732:1734   */\n              iszero\n              tag_171\n              jumpi\n                /* \"#utility.yul\":1768:1847   */\n              tag_172\n              tag_173\n              jump\t// in\n            tag_172:\n                /* \"#utility.yul\":1732:1734   */\n            tag_171:\n                /* \"#utility.yul\":1873:1936   */\n              tag_174\n                /* \"#utility.yul\":1928:1935   */\n              dup7\n                /* \"#utility.yul\":1919:1925   */\n              dup3\n                /* \"#utility.yul\":1908:1917   */\n              dup8\n                /* \"#utility.yul\":1904:1926   */\n              add\n                /* \"#utility.yul\":1873:1936   */\n              tag_153\n              jump\t// in\n            tag_174:\n                /* \"#utility.yul\":1863:1936   */\n              swap4\n              pop\n                /* \"#utility.yul\":1659:1946   */\n              pop\n                /* \"#utility.yul\":1985:1987   */\n              0x20\n                /* \"#utility.yul\":2011:2064   */\n              tag_175\n                /* \"#utility.yul\":2056:2063   */\n              dup7\n                /* \"#utility.yul\":2047:2053   */\n              dup3\n                /* \"#utility.yul\":2036:2045   */\n              dup8\n                /* \"#utility.yul\":2032:2054   */\n              add\n                /* \"#utility.yul\":2011:2064   */\n              tag_159\n              jump\t// in\n            tag_175:\n                /* \"#utility.yul\":2001:2064   */\n              swap3\n              pop\n                /* \"#utility.yul\":1956:2074   */\n              pop\n                /* \"#utility.yul\":2113:2115   */\n              0x40\n                /* \"#utility.yul\":2139:2192   */\n              tag_176\n                /* \"#utility.yul\":2184:2191   */\n              dup7\n                /* \"#utility.yul\":2175:2181   */\n              dup3\n                /* \"#utility.yul\":2164:2173   */\n              dup8\n                /* \"#utility.yul\":2160:2182   */\n              add\n                /* \"#utility.yul\":2139:2192   */\n              tag_149\n              jump\t// in\n            tag_176:\n                /* \"#utility.yul\":2129:2192   */\n              swap2\n              pop\n                /* \"#utility.yul\":2084:2202   */\n              pop\n                /* \"#utility.yul\":1520:2209   */\n              swap3\n              pop\n              swap3\n              pop\n              swap3\n              jump\t// out\n                /* \"#utility.yul\":2215:2544   */\n            tag_18:\n                /* \"#utility.yul\":2274:2280   */\n              0x00\n                /* \"#utility.yul\":2323:2325   */\n              0x20\n                /* \"#utility.yul\":2311:2320   */\n              dup3\n                /* \"#utility.yul\":2302:2309   */\n              dup5\n                /* \"#utility.yul\":2298:2321   */\n              sub\n                /* \"#utility.yul\":2294:2326   */\n              slt\n                /* \"#utility.yul\":2291:2293   */\n              iszero\n              tag_178\n              jumpi\n                /* \"#utility.yul\":2329:2408   */\n              tag_179\n              tag_166\n              jump\t// in\n            tag_179:\n                /* \"#utility.yul\":2291:2293   */\n            tag_178:\n                /* \"#utility.yul\":2449:2450   */\n              0x00\n                /* \"#utility.yul\":2474:2527   */\n              tag_180\n                /* \"#utility.yul\":2519:2526   */\n              dup5\n                /* \"#utility.yul\":2510:2516   */\n              dup3\n                /* \"#utility.yul\":2499:2508   */\n              dup6\n                /* \"#utility.yul\":2495:2517   */\n              add\n                /* \"#utility.yul\":2474:2527   */\n              tag_159\n              jump\t// in\n            tag_180:\n                /* \"#utility.yul\":2464:2527   */\n              swap2\n              pop\n                /* \"#utility.yul\":2420:2537   */\n              pop\n                /* \"#utility.yul\":2281:2544   */\n              swap3\n              swap2\n              pop\n              pop\n              jump\t// out\n                /* \"#utility.yul\":2550:3024   */\n            tag_23:\n                /* \"#utility.yul\":2618:2624   */\n              0x00\n                /* \"#utility.yul\":2626:2632   */\n              dup1\n                /* \"#utility.yul\":2675:2677   */\n              0x40\n                /* \"#utility.yul\":2663:2672   */\n              dup4\n                /* \"#utility.yul\":2654:2661   */\n              dup6\n                /* \"#utility.yul\":2650:2673   */\n              sub\n                /* \"#utility.yul\":2646:2678   */\n              slt\n                /* \"#utility.yul\":2643:2645   */\n              iszero\n              tag_182\n              jumpi\n                /* \"#utility.yul\":2681:2760   */\n              tag_183\n              tag_166\n              jump\t// in\n            tag_183:\n                /* \"#utility.yul\":2643:2645   */\n            tag_182:\n                /* \"#utility.yul\":2801:2802   */\n              0x00\n                /* \"#utility.yul\":2826:2879   */\n              tag_184\n                /* \"#utility.yul\":2871:2878   */\n              dup6\n                /* \"#utility.yul\":2862:2868   */\n              dup3\n                /* \"#utility.yul\":2851:2860   */\n              dup7\n                /* \"#utility.yul\":2847:2869   */\n              add\n                /* \"#utility.yul\":2826:2879   */\n              tag_159\n              jump\t// in\n            tag_184:\n                /* \"#utility.yul\":2816:2879   */\n              swap3\n              pop\n                /* \"#utility.yul\":2772:2889   */\n              pop\n                /* \"#utility.yul\":2928:2930   */\n              0x20\n                /* \"#utility.yul\":2954:3007   */\n              tag_185\n                /* \"#utility.yul\":2999:3006   */\n              dup6\n                /* \"#utility.yul\":2990:2996   */\n              dup3\n                /* \"#utility.yul\":2979:2988   */\n              dup7\n                /* \"#utility.yul\":2975:2997   */\n              add\n                /* \"#utility.yul\":2954:3007   */\n              tag_149\n              jump\t// in\n            tag_185:\n                /* \"#utility.yul\":2944:3007   */\n              swap2\n              pop\n                /* \"#utility.yul\":2899:3017   */\n              pop\n                /* \"#utility.yul\":2633:3024   */\n              swap3\n              pop\n              swap3\n              swap1\n              pop\n              jump\t// out\n                /* \"#utility.yul\":3030:3172   */\n            tag_186:\n                /* \"#utility.yul\":3133:3165   */\n              tag_188\n                /* \"#utility.yul\":3159:3164   */\n              dup2\n                /* \"#utility.yul\":3133:3165   */\n              tag_189\n              jump\t// in\n            tag_188:\n                /* \"#utility.yul\":3128:3131   */\n              dup3\n                /* \"#utility.yul\":3121:3166   */\n              mstore\n                /* \"#utility.yul\":3111:3172   */\n              pop\n              pop\n              jump\t// out\n                /* \"#utility.yul\":3178:3296   */\n            tag_190:\n                /* \"#utility.yul\":3265:3289   */\n              tag_192\n                /* \"#utility.yul\":3283:3288   */\n              dup2\n                /* \"#utility.yul\":3265:3289   */\n              tag_193\n              jump\t// in\n            tag_192:\n                /* \"#utility.yul\":3260:3263   */\n              dup3\n                /* \"#utility.yul\":3253:3290   */\n              mstore\n                /* \"#utility.yul\":3243:3296   */\n              pop\n              pop\n              jump\t// out\n                /* \"#utility.yul\":3302:3411   */\n            tag_194:\n                /* \"#utility.yul\":3383:3404   */\n              tag_196\n                /* \"#utility.yul\":3398:3403   */\n              dup2\n                /* \"#utility.yul\":3383:3404   */\n              tag_197\n              jump\t// in\n            tag_196:\n                /* \"#utility.yul\":3378:3381   */\n              dup3\n                /* \"#utility.yul\":3371:3405   */\n              mstore\n                /* \"#utility.yul\":3361:3411   */\n              pop\n              pop\n              jump\t// out\n                /* \"#utility.yul\":3417:3781   */\n            tag_198:\n                /* \"#utility.yul\":3505:3508   */\n              0x00\n                /* \"#utility.yul\":3533:3572   */\n              tag_200\n                /* \"#utility.yul\":3566:3571   */\n              dup3\n                /* \"#utility.yul\":3533:3572   */\n              tag_201\n              jump\t// in\n            tag_200:\n                /* \"#utility.yul\":3588:3659   */\n              tag_202\n                /* \"#utility.yul\":3652:3658   */\n              dup2\n                /* \"#utility.yul\":3647:3650   */\n              dup6\n                /* \"#utility.yul\":3588:3659   */\n              tag_203\n              jump\t// in\n            tag_202:\n                /* \"#utility.yul\":3581:3659   */\n              swap4\n              pop\n                /* \"#utility.yul\":3668:3720   */\n              tag_204\n                /* \"#utility.yul\":3713:3719   */\n              dup2\n                /* \"#utility.yul\":3708:3711   */\n              dup6\n                /* \"#utility.yul\":3701:3705   */\n              0x20\n                /* \"#utility.yul\":3694:3699   */\n              dup7\n                /* \"#utility.yul\":3690:3706   */\n              add\n                /* \"#utility.yul\":3668:3720   */\n              tag_205\n              jump\t// in\n            tag_204:\n                /* \"#utility.yul\":3745:3774   */\n              tag_206\n                /* \"#utility.yul\":3767:3773   */\n              dup2\n                /* \"#utility.yul\":3745:3774   */\n              tag_207\n              jump\t// in\n            tag_206:\n                /* \"#utility.yul\":3740:3743   */\n              dup5\n                /* \"#utility.yul\":3736:3775   */\n              add\n                /* \"#utility.yul\":3729:3775   */\n              swap2\n              pop\n                /* \"#utility.yul\":3509:3781   */\n              pop\n              swap3\n              swap2\n              pop\n              pop\n              jump\t// out\n                /* \"#utility.yul\":3787:4153   */\n            tag_208:\n                /* \"#utility.yul\":3929:3932   */\n              0x00\n                /* \"#utility.yul\":3950:4017   */\n              tag_210\n                /* \"#utility.yul\":4014:4016   */\n              0x25\n                /* \"#utility.yul\":4009:4012   */\n              dup4\n                /* \"#utility.yul\":3950:4017   */\n              tag_203\n              jump\t// in\n            tag_210:\n                /* \"#utility.yul\":3943:4017   */\n              swap2\n              pop\n                /* \"#utility.yul\":4026:4119   */\n              tag_211\n                /* \"#utility.yul\":4115:4118   */\n              dup3\n                /* \"#utility.yul\":4026:4119   */\n              tag_212\n              jump\t// in\n            tag_211:\n                /* \"#utility.yul\":4144:4146   */\n              0x40\n                /* \"#utility.yul\":4139:4142   */\n              dup3\n                /* \"#utility.yul\":4135:4147   */\n              add\n                /* \"#utility.yul\":4128:4147   */\n              swap1\n              pop\n                /* \"#utility.yul\":3933:4153   */\n              swap2\n              swap1\n              pop\n              jump\t// out\n                /* \"#utility.yul\":4159:4525   */\n            tag_213:\n                /* \"#utility.yul\":4301:4304   */\n              0x00\n                /* \"#utility.yul\":4322:4389   */\n              tag_215\n                /* \"#utility.yul\":4386:4388   */\n              0x26\n                /* \"#utility.yul\":4381:4384   */\n              dup4\n                /* \"#utility.yul\":4322:4389   */\n              tag_203\n              jump\t// in\n            tag_215:\n                /* \"#utility.yul\":4315:4389   */\n              swap2\n              pop\n                /* \"#utility.yul\":4398:4491   */\n              tag_216\n                /* \"#utility.yul\":4487:4490   */\n              dup3\n                /* \"#utility.yul\":4398:4491   */\n              tag_217\n              jump\t// in\n            tag_216:\n                /* \"#utility.yul\":4516:4518   */\n              0x40\n                /* \"#utility.yul\":4511:4514   */\n              dup3\n                /* \"#utility.yul\":4507:4519   */\n              add\n                /* \"#utility.yul\":4500:4519   */\n              swap1\n              pop\n                /* \"#utility.yul\":4305:4525   */\n              swap2\n              swap1\n              pop\n              jump\t// out\n                /* \"#utility.yul\":4531:4897   */\n            tag_218:\n                /* \"#utility.yul\":4673:4676   */\n              0x00\n                /* \"#utility.yul\":4694:4761   */\n              tag_220\n                /* \"#utility.yul\":4758:4760   */\n              0x44\n                /* \"#utility.yul\":4753:4756   */\n              dup4\n                /* \"#utility.yul\":4694:4761   */\n              tag_203\n              jump\t// in\n            tag_220:\n                /* \"#utility.yul\":4687:4761   */\n              swap2\n              pop\n                /* \"#utility.yul\":4770:4863   */\n              tag_221\n                /* \"#utility.yul\":4859:4862   */\n              dup3\n                /* \"#utility.yul\":4770:4863   */\n              tag_222\n              jump\t// in\n            tag_221:\n                /* \"#utility.yul\":4888:4890   */\n              0x60\n                /* \"#utility.yul\":4883:4886   */\n              dup3\n                /* \"#utility.yul\":4879:4891   */\n              add\n                /* \"#utility.yul\":4872:4891   */\n              swap1\n              pop\n                /* \"#utility.yul\":4677:4897   */\n              swap2\n              swap1\n              pop\n              jump\t// out\n                /* \"#utility.yul\":4903:5269   */\n            tag_223:\n                /* \"#utility.yul\":5045:5048   */\n              0x00\n                /* \"#utility.yul\":5066:5133   */\n              tag_225\n                /* \"#utility.yul\":5130:5132   */\n              0x28\n                /* \"#utility.yul\":5125:5128   */\n              dup4\n                /* \"#utility.yul\":5066:5133   */\n              tag_203\n              jump\t// in\n            tag_225:\n                /* \"#utility.yul\":5059:5133   */\n              swap2\n              pop\n                /* \"#utility.yul\":5142:5235   */\n              tag_226\n                /* \"#utility.yul\":5231:5234   */\n              dup3\n                /* \"#utility.yul\":5142:5235   */\n              tag_227\n              jump\t// in\n            tag_226:\n                /* \"#utility.yul\":5260:5262   */\n              0x40\n                /* \"#utility.yul\":5255:5258   */\n              dup3\n                /* \"#utility.yul\":5251:5263   */\n              add\n                /* \"#utility.yul\":5244:5263   */\n              swap1\n              pop\n                /* \"#utility.yul\":5049:5269   */\n              swap2\n              swap1\n              pop\n              jump\t// out\n                /* \"#utility.yul\":5275:5393   */\n            tag_228:\n                /* \"#utility.yul\":5362:5386   */\n              tag_230\n                /* \"#utility.yul\":5380:5385   */\n              dup2\n                /* \"#utility.yul\":5362:5386   */\n              tag_231\n              jump\t// in\n            tag_230:\n                /* \"#utility.yul\":5357:5360   */\n              dup3\n                /* \"#utility.yul\":5350:5387   */\n              mstore\n                /* \"#utility.yul\":5340:5393   */\n              pop\n              pop\n              jump\t// out\n                /* \"#utility.yul\":5399:5621   */\n            tag_36:\n                /* \"#utility.yul\":5492:5496   */\n              0x00\n                /* \"#utility.yul\":5530:5532   */\n              0x20\n                /* \"#utility.yul\":5519:5528   */\n              dup3\n                /* \"#utility.yul\":5515:5533   */\n              add\n                /* \"#utility.yul\":5507:5533   */\n              swap1\n              pop\n                /* \"#utility.yul\":5543:5614   */\n              tag_233\n                /* \"#utility.yul\":5611:5612   */\n              0x00\n                /* \"#utility.yul\":5600:5609   */\n              dup4\n                /* \"#utility.yul\":5596:5613   */\n              add\n                /* \"#utility.yul\":5587:5593   */\n              dup5\n                /* \"#utility.yul\":5543:5614   */\n              tag_190\n              jump\t// in\n            tag_233:\n                /* \"#utility.yul\":5497:5621   */\n              swap3\n              swap2\n              pop\n              pop\n              jump\t// out\n                /* \"#utility.yul\":5627:5837   */\n            tag_26:\n                /* \"#utility.yul\":5714:5718   */\n              0x00\n                /* \"#utility.yul\":5752:5754   */\n              0x20\n                /* \"#utility.yul\":5741:5750   */\n              dup3\n                /* \"#utility.yul\":5737:5755   */\n              add\n                /* \"#utility.yul\":5729:5755   */\n              swap1\n              pop\n                /* \"#utility.yul\":5765:5830   */\n              tag_235\n                /* \"#utility.yul\":5827:5828   */\n              0x00\n                /* \"#utility.yul\":5816:5825   */\n              dup4\n                /* \"#utility.yul\":5812:5829   */\n              add\n                /* \"#utility.yul\":5803:5809   */\n              dup5\n                /* \"#utility.yul\":5765:5830   */\n              tag_194\n              jump\t// in\n            tag_235:\n                /* \"#utility.yul\":5719:5837   */\n              swap3\n              swap2\n              pop\n              pop\n              jump\t// out\n                /* \"#utility.yul\":5843:6618   */\n            tag_57:\n                /* \"#utility.yul\":6078:6082   */\n              0x00\n                /* \"#utility.yul\":6116:6119   */\n              0xa0\n                /* \"#utility.yul\":6105:6114   */\n              dup3\n                /* \"#utility.yul\":6101:6120   */\n              add\n                /* \"#utility.yul\":6093:6120   */\n              swap1\n              pop\n                /* \"#utility.yul\":6166:6175   */\n              dup2\n                /* \"#utility.yul\":6160:6164   */\n              dup2\n                /* \"#utility.yul\":6156:6176   */\n              sub\n                /* \"#utility.yul\":6152:6153   */\n              0x00\n                /* \"#utility.yul\":6141:6150   */\n              dup4\n                /* \"#utility.yul\":6137:6154   */\n              add\n                /* \"#utility.yul\":6130:6177   */\n              mstore\n                /* \"#utility.yul\":6194:6272   */\n              tag_237\n                /* \"#utility.yul\":6267:6271   */\n              dup2\n                /* \"#utility.yul\":6258:6264   */\n              dup9\n                /* \"#utility.yul\":6194:6272   */\n              tag_198\n              jump\t// in\n            tag_237:\n                /* \"#utility.yul\":6186:6272   */\n              swap1\n              pop\n                /* \"#utility.yul\":6282:6354   */\n              tag_238\n                /* \"#utility.yul\":6350:6352   */\n              0x20\n                /* \"#utility.yul\":6339:6348   */\n              dup4\n                /* \"#utility.yul\":6335:6353   */\n              add\n                /* \"#utility.yul\":6326:6332   */\n              dup8\n                /* \"#utility.yul\":6282:6354   */\n              tag_228\n              jump\t// in\n            tag_238:\n                /* \"#utility.yul\":6364:6452   */\n              tag_239\n                /* \"#utility.yul\":6448:6450   */\n              0x40\n                /* \"#utility.yul\":6437:6446   */\n              dup4\n                /* \"#utility.yul\":6433:6451   */\n              add\n                /* \"#utility.yul\":6424:6430   */\n              dup7\n                /* \"#utility.yul\":6364:6452   */\n              tag_186\n              jump\t// in\n            tag_239:\n                /* \"#utility.yul\":6462:6534   */\n              tag_240\n                /* \"#utility.yul\":6530:6532   */\n              0x60\n                /* \"#utility.yul\":6519:6528   */\n              dup4\n                /* \"#utility.yul\":6515:6533   */\n              add\n                /* \"#utility.yul\":6506:6512   */\n              dup6\n                /* \"#utility.yul\":6462:6534   */\n              tag_228\n              jump\t// in\n            tag_240:\n                /* \"#utility.yul\":6544:6611   */\n              tag_241\n                /* \"#utility.yul\":6606:6609   */\n              0x80\n                /* \"#utility.yul\":6595:6604   */\n              dup4\n                /* \"#utility.yul\":6591:6610   */\n              add\n                /* \"#utility.yul\":6582:6588   */\n              dup5\n                /* \"#utility.yul\":6544:6611   */\n              tag_194\n              jump\t// in\n            tag_241:\n                /* \"#utility.yul\":6083:6618   */\n              swap7\n              swap6\n              pop\n              pop\n              pop\n              pop\n              pop\n              pop\n              jump\t// out\n                /* \"#utility.yul\":6624:7043   */\n            tag_114:\n                /* \"#utility.yul\":6790:6794   */\n              0x00\n                /* \"#utility.yul\":6828:6830   */\n              0x20\n                /* \"#utility.yul\":6817:6826   */\n              dup3\n                /* \"#utility.yul\":6813:6831   */\n              add\n                /* \"#utility.yul\":6805:6831   */\n              swap1\n              pop\n                /* \"#utility.yul\":6877:6886   */\n              dup2\n                /* \"#utility.yul\":6871:6875   */\n              dup2\n                /* \"#utility.yul\":6867:6887   */\n              sub\n                /* \"#utility.yul\":6863:6864   */\n              0x00\n                /* \"#utility.yul\":6852:6861   */\n              dup4\n                /* \"#utility.yul\":6848:6865   */\n              add\n                /* \"#utility.yul\":6841:6888   */\n              mstore\n                /* \"#utility.yul\":6905:7036   */\n              tag_243\n                /* \"#utility.yul\":7031:7035   */\n              dup2\n                /* \"#utility.yul\":6905:7036   */\n              tag_208\n              jump\t// in\n            tag_243:\n                /* \"#utility.yul\":6897:7036   */\n              swap1\n              pop\n                /* \"#utility.yul\":6795:7043   */\n              swap2\n              swap1\n              pop\n              jump\t// out\n                /* \"#utility.yul\":7049:7468   */\n            tag_109:\n                /* \"#utility.yul\":7215:7219   */\n              0x00\n                /* \"#utility.yul\":7253:7255   */\n              0x20\n                /* \"#utility.yul\":7242:7251   */\n              dup3\n                /* \"#utility.yul\":7238:7256   */\n              add\n                /* \"#utility.yul\":7230:7256   */\n              swap1\n              pop\n                /* \"#utility.yul\":7302:7311   */\n              dup2\n                /* \"#utility.yul\":7296:7300   */\n              dup2\n                /* \"#utility.yul\":7292:7312   */\n              sub\n                /* \"#utility.yul\":7288:7289   */\n              0x00\n                /* \"#utility.yul\":7277:7286   */\n              dup4\n                /* \"#utility.yul\":7273:7290   */\n              add\n                /* \"#utility.yul\":7266:7313   */\n              mstore\n                /* \"#utility.yul\":7330:7461   */\n              tag_245\n                /* \"#utility.yul\":7456:7460   */\n              dup2\n                /* \"#utility.yul\":7330:7461   */\n              tag_213\n              jump\t// in\n            tag_245:\n                /* \"#utility.yul\":7322:7461   */\n              swap1\n              pop\n                /* \"#utility.yul\":7220:7468   */\n              swap2\n              swap1\n              pop\n              jump\t// out\n                /* \"#utility.yul\":7474:7893   */\n            tag_102:\n                /* \"#utility.yul\":7640:7644   */\n              0x00\n                /* \"#utility.yul\":7678:7680   */\n              0x20\n                /* \"#utility.yul\":7667:7676   */\n              dup3\n                /* \"#utility.yul\":7663:7681   */\n              add\n                /* \"#utility.yul\":7655:7681   */\n              swap1\n              pop\n                /* \"#utility.yul\":7727:7736   */\n              dup2\n                /* \"#utility.yul\":7721:7725   */\n              dup2\n                /* \"#utility.yul\":7717:7737   */\n              sub\n                /* \"#utility.yul\":7713:7714   */\n              0x00\n                /* \"#utility.yul\":7702:7711   */\n              dup4\n                /* \"#utility.yul\":7698:7715   */\n              add\n                /* \"#utility.yul\":7691:7738   */\n              mstore\n                /* \"#utility.yul\":7755:7886   */\n              tag_247\n                /* \"#utility.yul\":7881:7885   */\n              dup2\n                /* \"#utility.yul\":7755:7886   */\n              tag_218\n              jump\t// in\n            tag_247:\n                /* \"#utility.yul\":7747:7886   */\n              swap1\n              pop\n                /* \"#utility.yul\":7645:7893   */\n              swap2\n              swap1\n              pop\n              jump\t// out\n                /* \"#utility.yul\":7899:8318   */\n            tag_74:\n                /* \"#utility.yul\":8065:8069   */\n              0x00\n                /* \"#utility.yul\":8103:8105   */\n              0x20\n                /* \"#utility.yul\":8092:8101   */\n              dup3\n                /* \"#utility.yul\":8088:8106   */\n              add\n                /* \"#utility.yul\":8080:8106   */\n              swap1\n              pop\n                /* \"#utility.yul\":8152:8161   */\n              dup2\n                /* \"#utility.yul\":8146:8150   */\n              dup2\n                /* \"#utility.yul\":8142:8162   */\n              sub\n                /* \"#utility.yul\":8138:8139   */\n              0x00\n                /* \"#utility.yul\":8127:8136   */\n              dup4\n                /* \"#utility.yul\":8123:8140   */\n              add\n                /* \"#utility.yul\":8116:8163   */\n              mstore\n                /* \"#utility.yul\":8180:8311   */\n              tag_249\n                /* \"#utility.yul\":8306:8310   */\n              dup2\n                /* \"#utility.yul\":8180:8311   */\n              tag_223\n              jump\t// in\n            tag_249:\n                /* \"#utility.yul\":8172:8311   */\n              swap1\n              pop\n                /* \"#utility.yul\":8070:8318   */\n              swap2\n              swap1\n              pop\n              jump\t// out\n                /* \"#utility.yul\":8324:8546   */\n            tag_31:\n                /* \"#utility.yul\":8417:8421   */\n              0x00\n                /* \"#utility.yul\":8455:8457   */\n              0x20\n                /* \"#utility.yul\":8444:8453   */\n              dup3\n                /* \"#utility.yul\":8440:8458   */\n              add\n                /* \"#utility.yul\":8432:8458   */\n              swap1\n              pop\n                /* \"#utility.yul\":8468:8539   */\n              tag_251\n                /* \"#utility.yul\":8536:8537   */\n              0x00\n                /* \"#utility.yul\":8525:8534   */\n              dup4\n                /* \"#utility.yul\":8521:8538   */\n              add\n                /* \"#utility.yul\":8512:8518   */\n              dup5\n                /* \"#utility.yul\":8468:8539   */\n              tag_228\n              jump\t// in\n            tag_251:\n                /* \"#utility.yul\":8422:8546   */\n              swap3\n              swap2\n              pop\n              pop\n              jump\t// out\n                /* \"#utility.yul\":8552:8681   */\n            tag_143:\n                /* \"#utility.yul\":8586:8592   */\n              0x00\n                /* \"#utility.yul\":8613:8633   */\n              tag_253\n              tag_254\n              jump\t// in\n            tag_253:\n                /* \"#utility.yul\":8603:8633   */\n              swap1\n              pop\n                /* \"#utility.yul\":8642:8675   */\n              tag_255\n                /* \"#utility.yul\":8670:8674   */\n              dup3\n                /* \"#utility.yul\":8662:8668   */\n              dup3\n                /* \"#utility.yul\":8642:8675   */\n              tag_256\n              jump\t// in\n            tag_255:\n                /* \"#utility.yul\":8593:8681   */\n              swap2\n              swap1\n              pop\n              jump\t// out\n                /* \"#utility.yul\":8687:8762   */\n            tag_254:\n                /* \"#utility.yul\":8720:8726   */\n              0x00\n                /* \"#utility.yul\":8753:8755   */\n              0x40\n                /* \"#utility.yul\":8747:8756   */\n              mload\n                /* \"#utility.yul\":8737:8756   */\n              swap1\n              pop\n                /* \"#utility.yul\":8727:8762   */\n              swap1\n              jump\t// out\n                /* \"#utility.yul\":8768:9076   */\n            tag_142:\n                /* \"#utility.yul\":8830:8834   */\n              0x00\n                /* \"#utility.yul\":8920:8938   */\n              0xffffffffffffffff\n                /* \"#utility.yul\":8912:8918   */\n              dup3\n                /* \"#utility.yul\":8909:8939   */\n              gt\n                /* \"#utility.yul\":8906:8908   */\n              iszero\n              tag_259\n              jumpi\n                /* \"#utility.yul\":8942:8960   */\n              tag_260\n              tag_261\n              jump\t// in\n            tag_260:\n                /* \"#utility.yul\":8906:8908   */\n            tag_259:\n                /* \"#utility.yul\":8980:9009   */\n              tag_262\n                /* \"#utility.yul\":9002:9008   */\n              dup3\n                /* \"#utility.yul\":8980:9009   */\n              tag_207\n              jump\t// in\n            tag_262:\n                /* \"#utility.yul\":8972:9009   */\n              swap1\n              pop\n                /* \"#utility.yul\":9064:9068   */\n              0x20\n                /* \"#utility.yul\":9058:9062   */\n              dup2\n                /* \"#utility.yul\":9054:9069   */\n              add\n                /* \"#utility.yul\":9046:9069   */\n              swap1\n              pop\n                /* \"#utility.yul\":8835:9076   */\n              swap2\n              swap1\n              pop\n              jump\t// out\n                /* \"#utility.yul\":9082:9181   */\n            tag_201:\n                /* \"#utility.yul\":9134:9140   */\n              0x00\n                /* \"#utility.yul\":9168:9173   */\n              dup2\n                /* \"#utility.yul\":9162:9174   */\n              mload\n                /* \"#utility.yul\":9152:9174   */\n              swap1\n              pop\n                /* \"#utility.yul\":9141:9181   */\n              swap2\n              swap1\n              pop\n              jump\t// out\n                /* \"#utility.yul\":9187:9356   */\n            tag_203:\n                /* \"#utility.yul\":9271:9282   */\n              0x00\n                /* \"#utility.yul\":9305:9311   */\n              dup3\n                /* \"#utility.yul\":9300:9303   */\n              dup3\n                /* \"#utility.yul\":9293:9312   */\n              mstore\n                /* \"#utility.yul\":9345:9349   */\n              0x20\n                /* \"#utility.yul\":9340:9343   */\n              dup3\n                /* \"#utility.yul\":9336:9350   */\n              add\n                /* \"#utility.yul\":9321:9350   */\n              swap1\n              pop\n                /* \"#utility.yul\":9283:9356   */\n              swap3\n              swap2\n              pop\n              pop\n              jump\t// out\n                /* \"#utility.yul\":9362:9547   */\n            tag_111:\n                /* \"#utility.yul\":9402:9403   */\n              0x00\n                /* \"#utility.yul\":9419:9439   */\n              tag_266\n                /* \"#utility.yul\":9437:9438   */\n              dup3\n                /* \"#utility.yul\":9419:9439   */\n              tag_231\n              jump\t// in\n            tag_266:\n                /* \"#utility.yul\":9414:9439   */\n              swap2\n              pop\n                /* \"#utility.yul\":9453:9473   */\n              tag_267\n                /* \"#utility.yul\":9471:9472   */\n              dup4\n                /* \"#utility.yul\":9453:9473   */\n              tag_231\n              jump\t// in\n            tag_267:\n                /* \"#utility.yul\":9448:9473   */\n              swap3\n              pop\n                /* \"#utility.yul\":9492:9493   */\n              dup3\n                /* \"#utility.yul\":9482:9484   */\n              tag_268\n              jumpi\n                /* \"#utility.yul\":9497:9515   */\n              tag_269\n              tag_270\n              jump\t// in\n            tag_269:\n                /* \"#utility.yul\":9482:9484   */\n            tag_268:\n                /* \"#utility.yul\":9539:9540   */\n              dup3\n                /* \"#utility.yul\":9536:9537   */\n              dup3\n                /* \"#utility.yul\":9532:9541   */\n              div\n                /* \"#utility.yul\":9527:9541   */\n              swap1\n              pop\n                /* \"#utility.yul\":9404:9547   */\n              swap3\n              swap2\n              pop\n              pop\n              jump\t// out\n                /* \"#utility.yul\":9553:9649   */\n            tag_193:\n                /* \"#utility.yul\":9590:9597   */\n              0x00\n                /* \"#utility.yul\":9619:9643   */\n              tag_272\n                /* \"#utility.yul\":9637:9642   */\n              dup3\n                /* \"#utility.yul\":9619:9643   */\n              tag_273\n              jump\t// in\n            tag_272:\n                /* \"#utility.yul\":9608:9643   */\n              swap1\n              pop\n                /* \"#utility.yul\":9598:9649   */\n              swap2\n              swap1\n              pop\n              jump\t// out\n                /* \"#utility.yul\":9655:9759   */\n            tag_189:\n                /* \"#utility.yul\":9700:9707   */\n              0x00\n                /* \"#utility.yul\":9729:9753   */\n              tag_275\n                /* \"#utility.yul\":9747:9752   */\n              dup3\n                /* \"#utility.yul\":9729:9753   */\n              tag_273\n              jump\t// in\n            tag_275:\n                /* \"#utility.yul\":9718:9753   */\n              swap1\n              pop\n                /* \"#utility.yul\":9708:9759   */\n              swap2\n              swap1\n              pop\n              jump\t// out\n                /* \"#utility.yul\":9765:9855   */\n            tag_197:\n                /* \"#utility.yul\":9799:9806   */\n              0x00\n                /* \"#utility.yul\":9842:9847   */\n              dup2\n                /* \"#utility.yul\":9835:9848   */\n              iszero\n                /* \"#utility.yul\":9828:9849   */\n              iszero\n                /* \"#utility.yul\":9817:9849   */\n              swap1\n              pop\n                /* \"#utility.yul\":9807:9855   */\n              swap2\n              swap1\n              pop\n              jump\t// out\n                /* \"#utility.yul\":9861:9987   */\n            tag_273:\n                /* \"#utility.yul\":9898:9905   */\n              0x00\n                /* \"#utility.yul\":9938:9980   */\n              0xffffffffffffffffffffffffffffffffffffffff\n                /* \"#utility.yul\":9931:9936   */\n              dup3\n                /* \"#utility.yul\":9927:9981   */\n              and\n                /* \"#utility.yul\":9916:9981   */\n              swap1\n              pop\n                /* \"#utility.yul\":9906:9987   */\n              swap2\n              swap1\n              pop\n              jump\t// out\n                /* \"#utility.yul\":9993:10070   */\n            tag_231:\n                /* \"#utility.yul\":10030:10037   */\n              0x00\n                /* \"#utility.yul\":10059:10064   */\n              dup2\n                /* \"#utility.yul\":10048:10064   */\n              swap1\n              pop\n                /* \"#utility.yul\":10038:10070   */\n              swap2\n              swap1\n              pop\n              jump\t// out\n                /* \"#utility.yul\":10076:10230   */\n            tag_148:\n                /* \"#utility.yul\":10160:10166   */\n              dup3\n                /* \"#utility.yul\":10155:10158   */\n              dup2\n                /* \"#utility.yul\":10150:10153   */\n              dup4\n                /* \"#utility.yul\":10137:10167   */\n              calldatacopy\n                /* \"#utility.yul\":10222:10223   */\n              0x00\n                /* \"#utility.yul\":10213:10219   */\n              dup4\n                /* \"#utility.yul\":10208:10211   */\n              dup4\n                /* \"#utility.yul\":10204:10220   */\n              add\n                /* \"#utility.yul\":10197:10224   */\n              mstore\n                /* \"#utility.yul\":10127:10230   */\n              pop\n              pop\n              pop\n              jump\t// out\n                /* \"#utility.yul\":10236:10543   */\n            tag_205:\n                /* \"#utility.yul\":10304:10305   */\n              0x00\n                /* \"#utility.yul\":10314:10427   */\n            tag_281:\n                /* \"#utility.yul\":10328:10334   */\n              dup4\n                /* \"#utility.yul\":10325:10326   */\n              dup2\n                /* \"#utility.yul\":10322:10335   */\n              lt\n                /* \"#utility.yul\":10314:10427   */\n              iszero\n              tag_283\n              jumpi\n                /* \"#utility.yul\":10413:10414   */\n              dup1\n                /* \"#utility.yul\":10408:10411   */\n              dup3\n                /* \"#utility.yul\":10404:10415   */\n              add\n                /* \"#utility.yul\":10398:10416   */\n              mload\n                /* \"#utility.yul\":10394:10395   */\n              dup2\n                /* \"#utility.yul\":10389:10392   */\n              dup5\n                /* \"#utility.yul\":10385:10396   */\n              add\n                /* \"#utility.yul\":10378:10417   */\n              mstore\n                /* \"#utility.yul\":10350:10352   */\n              0x20\n                /* \"#utility.yul\":10347:10348   */\n              dup2\n                /* \"#utility.yul\":10343:10353   */\n              add\n                /* \"#utility.yul\":10338:10353   */\n              swap1\n              pop\n                /* \"#utility.yul\":10314:10427   */\n              jump(tag_281)\n            tag_283:\n                /* \"#utility.yul\":10445:10451   */\n              dup4\n                /* \"#utility.yul\":10442:10443   */\n              dup2\n                /* \"#utility.yul\":10439:10452   */\n              gt\n                /* \"#utility.yul\":10436:10438   */\n              iszero\n              tag_284\n              jumpi\n                /* \"#utility.yul\":10525:10526   */\n              0x00\n                /* \"#utility.yul\":10516:10522   */\n              dup5\n                /* \"#utility.yul\":10511:10514   */\n              dup5\n                /* \"#utility.yul\":10507:10523   */\n              add\n                /* \"#utility.yul\":10500:10527   */\n              mstore\n                /* \"#utility.yul\":10436:10438   */\n            tag_284:\n                /* \"#utility.yul\":10285:10543   */\n              pop\n              pop\n              pop\n              pop\n              jump\t// out\n                /* \"#utility.yul\":10549:10869   */\n            tag_89:\n                /* \"#utility.yul\":10593:10599   */\n              0x00\n                /* \"#utility.yul\":10630:10631   */\n              0x02\n                /* \"#utility.yul\":10624:10628   */\n              dup3\n                /* \"#utility.yul\":10620:10632   */\n              div\n                /* \"#utility.yul\":10610:10632   */\n              swap1\n              pop\n                /* \"#utility.yul\":10677:10678   */\n              0x01\n                /* \"#utility.yul\":10671:10675   */\n              dup3\n                /* \"#utility.yul\":10667:10679   */\n              and\n                /* \"#utility.yul\":10698:10716   */\n              dup1\n                /* \"#utility.yul\":10688:10690   */\n              tag_286\n              jumpi\n                /* \"#utility.yul\":10754:10758   */\n              0x7f\n                /* \"#utility.yul\":10746:10752   */\n              dup3\n                /* \"#utility.yul\":10742:10759   */\n              and\n                /* \"#utility.yul\":10732:10759   */\n              swap2\n              pop\n                /* \"#utility.yul\":10688:10690   */\n            tag_286:\n                /* \"#utility.yul\":10816:10818   */\n              0x20\n                /* \"#utility.yul\":10808:10814   */\n              dup3\n                /* \"#utility.yul\":10805:10819   */\n              lt\n                /* \"#utility.yul\":10785:10803   */\n              dup2\n                /* \"#utility.yul\":10782:10820   */\n              eq\n                /* \"#utility.yul\":10779:10781   */\n              iszero\n              tag_287\n              jumpi\n                /* \"#utility.yul\":10835:10853   */\n              tag_288\n              tag_289\n              jump\t// in\n            tag_288:\n                /* \"#utility.yul\":10779:10781   */\n            tag_287:\n                /* \"#utility.yul\":10600:10869   */\n              pop\n              swap2\n              swap1\n              pop\n              jump\t// out\n                /* \"#utility.yul\":10875:11156   */\n            tag_256:\n                /* \"#utility.yul\":10958:10985   */\n              tag_291\n                /* \"#utility.yul\":10980:10984   */\n              dup3\n                /* \"#utility.yul\":10958:10985   */\n              tag_207\n              jump\t// in\n            tag_291:\n                /* \"#utility.yul\":10950:10956   */\n              dup2\n                /* \"#utility.yul\":10946:10986   */\n              add\n                /* \"#utility.yul\":11088:11094   */\n              dup2\n                /* \"#utility.yul\":11076:11086   */\n              dup2\n                /* \"#utility.yul\":11073:11095   */\n              lt\n                /* \"#utility.yul\":11052:11070   */\n              0xffffffffffffffff\n                /* \"#utility.yul\":11040:11050   */\n              dup3\n                /* \"#utility.yul\":11037:11071   */\n              gt\n                /* \"#utility.yul\":11034:11096   */\n              or\n                /* \"#utility.yul\":11031:11033   */\n              iszero\n              tag_292\n              jumpi\n                /* \"#utility.yul\":11099:11117   */\n              tag_293\n              tag_261\n              jump\t// in\n            tag_293:\n                /* \"#utility.yul\":11031:11033   */\n            tag_292:\n                /* \"#utility.yul\":11139:11149   */\n              dup1\n                /* \"#utility.yul\":11135:11137   */\n              0x40\n                /* \"#utility.yul\":11128:11150   */\n              mstore\n                /* \"#utility.yul\":10918:11156   */\n              pop\n              pop\n              pop\n              jump\t// out\n                /* \"#utility.yul\":11162:11395   */\n            tag_105:\n                /* \"#utility.yul\":11201:11204   */\n              0x00\n                /* \"#utility.yul\":11224:11248   */\n              tag_295\n                /* \"#utility.yul\":11242:11247   */\n              dup3\n                /* \"#utility.yul\":11224:11248   */\n              tag_231\n              jump\t// in\n            tag_295:\n                /* \"#utility.yul\":11215:11248   */\n              swap2\n              pop\n                /* \"#utility.yul\":11270:11336   */\n              0xffffffffffffffffffffffffffffffffffffffffffffffffffffffffffffffff\n                /* \"#utility.yul\":11263:11268   */\n              dup3\n                /* \"#utility.yul\":11260:11337   */\n              eq\n                /* \"#utility.yul\":11257:11259   */\n              iszero\n              tag_296\n              jumpi\n                /* \"#utility.yul\":11340:11358   */\n              tag_297\n              tag_298\n              jump\t// in\n            tag_297:\n                /* \"#utility.yul\":11257:11259   */\n            tag_296:\n                /* \"#utility.yul\":11387:11388   */\n              0x01\n                /* \"#utility.yul\":11380:11385   */\n              dup3\n                /* \"#utility.yul\":11376:11389   */\n              add\n                /* \"#utility.yul\":11369:11389   */\n              swap1\n              pop\n                /* \"#utility.yul\":11205:11395   */\n              swap2\n              swap1\n              pop\n              jump\t// out\n                /* \"#utility.yul\":11401:11581   */\n            tag_298:\n                /* \"#utility.yul\":11449:11526   */\n              0x4e487b7100000000000000000000000000000000000000000000000000000000\n                /* \"#utility.yul\":11446:11447   */\n              0x00\n                /* \"#utility.yul\":11439:11527   */\n              mstore\n                /* \"#utility.yul\":11546:11550   */\n              0x11\n                /* \"#utility.yul\":11543:11544   */\n              0x04\n                /* \"#utility.yul\":11536:11551   */\n              mstore\n                /* \"#utility.yul\":11570:11574   */\n              0x24\n                /* \"#utility.yul\":11567:11568   */\n              0x00\n                /* \"#utility.yul\":11560:11575   */\n              revert\n                /* \"#utility.yul\":11587:11767   */\n            tag_270:\n                /* \"#utility.yul\":11635:11712   */\n              0x4e487b7100000000000000000000000000000000000000000000000000000000\n                /* \"#utility.yul\":11632:11633   */\n              0x00\n                /* \"#utility.yul\":11625:11713   */\n              mstore\n                /* \"#utility.yul\":11732:11736   */\n              0x12\n                /* \"#utility.yul\":11729:11730   */\n              0x04\n                /* \"#utility.yul\":11722:11737   */\n              mstore\n                /* \"#utility.yul\":11756:11760   */\n              0x24\n                /* \"#utility.yul\":11753:11754   */\n              0x00\n                /* \"#utility.yul\":11746:11761   */\n              revert\n                /* \"#utility.yul\":11773:11953   */\n            tag_289:\n                /* \"#utility.yul\":11821:11898   */\n              0x4e487b7100000000000000000000000000000000000000000000000000000000\n                /* \"#utility.yul\":11818:11819   */\n              0x00\n                /* \"#utility.yul\":11811:11899   */\n              mstore\n                /* \"#utility.yul\":11918:11922   */\n              0x22\n                /* \"#utility.yul\":11915:11916   */\n              0x04\n                /* \"#utility.yul\":11908:11923   */\n              mstore\n                /* \"#utility.yul\":11942:11946   */\n              0x24\n                /* \"#utility.yul\":11939:11940   */\n              0x00\n                /* \"#utility.yul\":11932:11947   */\n              revert\n                /* \"#utility.yul\":11959:12139   */\n            tag_261:\n                /* \"#utility.yul\":12007:12084   */\n              0x4e487b7100000000000000000000000000000000000000000000000000000000\n                /* \"#utility.yul\":12004:12005   */\n              0x00\n                /* \"#utility.yul\":11997:12085   */\n              mstore\n                /* \"#utility.yul\":12104:12108   */\n              0x41\n                /* \"#utility.yul\":12101:12102   */\n              0x04\n                /* \"#utility.yul\":12094:12109   */\n              mstore\n                /* \"#utility.yul\":12128:12132   */\n              0x24\n                /* \"#utility.yul\":12125:12126   */\n              0x00\n                /* \"#utility.yul\":12118:12133   */\n              revert\n                /* \"#utility.yul\":12145:12262   */\n            tag_157:\n                /* \"#utility.yul\":12254:12255   */\n              0x00\n                /* \"#utility.yul\":12251:12252   */\n              dup1\n                /* \"#utility.yul\":12244:12256   */\n              revert\n                /* \"#utility.yul\":12268:12385   */\n            tag_146:\n                /* \"#utility.yul\":12377:12378   */\n              0x00\n                /* \"#utility.yul\":12374:12375   */\n              dup1\n                /* \"#utility.yul\":12367:12379   */\n              revert\n                /* \"#utility.yul\":12391:12508   */\n            tag_173:\n                /* \"#utility.yul\":12500:12501   */\n              0x00\n                /* \"#utility.yul\":12497:12498   */\n              dup1\n                /* \"#utility.yul\":12490:12502   */\n              revert\n                /* \"#utility.yul\":12514:12631   */\n            tag_166:\n                /* \"#utility.yul\":12623:12624   */\n              0x00\n                /* \"#utility.yul\":12620:12621   */\n              dup1\n                /* \"#utility.yul\":12613:12625   */\n              revert\n                /* \"#utility.yul\":12637:12739   */\n            tag_207:\n                /* \"#utility.yul\":12678:12684   */\n              0x00\n                /* \"#utility.yul\":12729:12731   */\n              0x1f\n                /* \"#utility.yul\":12725:12732   */\n              not\n                /* \"#utility.yul\":12720:12722   */\n              0x1f\n                /* \"#utility.yul\":12713:12718   */\n              dup4\n                /* \"#utility.yul\":12709:12723   */\n              add\n                /* \"#utility.yul\":12705:12733   */\n              and\n                /* \"#utility.yul\":12695:12733   */\n              swap1\n              pop\n                /* \"#utility.yul\":12685:12739   */\n              swap2\n              swap1\n              pop\n              jump\t// out\n                /* \"#utility.yul\":12745:12969   */\n            tag_212:\n                /* \"#utility.yul\":12885:12919   */\n              0x54686973207265717565737420646964206e6f742077696e20746865206d616a\n                /* \"#utility.yul\":12881:12882   */\n              0x00\n                /* \"#utility.yul\":12873:12879   */\n              dup3\n                /* \"#utility.yul\":12869:12883   */\n              add\n                /* \"#utility.yul\":12862:12920   */\n              mstore\n                /* \"#utility.yul\":12954:12961   */\n              0x6f72697479000000000000000000000000000000000000000000000000000000\n                /* \"#utility.yul\":12949:12951   */\n              0x20\n                /* \"#utility.yul\":12941:12947   */\n              dup3\n                /* \"#utility.yul\":12937:12952   */\n              add\n                /* \"#utility.yul\":12930:12962   */\n              mstore\n                /* \"#utility.yul\":12851:12969   */\n              pop\n              jump\t// out\n                /* \"#utility.yul\":12975:13200   */\n            tag_217:\n                /* \"#utility.yul\":13115:13149   */\n              0x5468697320726571756573742068617320616c7265616479206265656e20636f\n                /* \"#utility.yul\":13111:13112   */\n              0x00\n                /* \"#utility.yul\":13103:13109   */\n              dup3\n                /* \"#utility.yul\":13099:13113   */\n              add\n                /* \"#utility.yul\":13092:13150   */\n              mstore\n                /* \"#utility.yul\":13184:13192   */\n              0x6e73756d65640000000000000000000000000000000000000000000000000000\n                /* \"#utility.yul\":13179:13181   */\n              0x20\n                /* \"#utility.yul\":13171:13177   */\n              dup3\n                /* \"#utility.yul\":13167:13182   */\n              add\n                /* \"#utility.yul\":13160:13193   */\n              mstore\n                /* \"#utility.yul\":13081:13200   */\n              pop\n              jump\t// out\n                /* \"#utility.yul\":13206:13498   */\n            tag_222:\n                /* \"#utility.yul\":13346:13380   */\n              0x436f6e747269627574696f6e20616d6f756e74206c657373207468616e206d69\n                /* \"#utility.yul\":13342:13343   */\n              0x00\n                /* \"#utility.yul\":13334:13340   */\n              dup3\n                /* \"#utility.yul\":13330:13344   */\n              add\n                /* \"#utility.yul\":13323:13381   */\n              mstore\n                /* \"#utility.yul\":13415:13449   */\n              0x6e696d616c20636f6e747269627574696f6e20666f7220746869732063616d70\n                /* \"#utility.yul\":13410:13412   */\n              0x20\n                /* \"#utility.yul\":13402:13408   */\n              dup3\n                /* \"#utility.yul\":13398:13413   */\n              add\n                /* \"#utility.yul\":13391:13450   */\n              mstore\n                /* \"#utility.yul\":13484:13490   */\n              0x6169676e00000000000000000000000000000000000000000000000000000000\n                /* \"#utility.yul\":13479:13481   */\n              0x40\n                /* \"#utility.yul\":13471:13477   */\n              dup3\n                /* \"#utility.yul\":13467:13482   */\n              add\n                /* \"#utility.yul\":13460:13491   */\n              mstore\n                /* \"#utility.yul\":13312:13498   */\n              pop\n              jump\t// out\n                /* \"#utility.yul\":13504:13731   */\n            tag_227:\n                /* \"#utility.yul\":13644:13678   */\n              0x4f6e6c792074686520666f756e6465722063616e206578656375746520746869\n                /* \"#utility.yul\":13640:13641   */\n              0x00\n                /* \"#utility.yul\":13632:13638   */\n              dup3\n                /* \"#utility.yul\":13628:13642   */\n              add\n                /* \"#utility.yul\":13621:13679   */\n              mstore\n                /* \"#utility.yul\":13713:13723   */\n              0x7320616374696f6e000000000000000000000000000000000000000000000000\n                /* \"#utility.yul\":13708:13710   */\n              0x20\n                /* \"#utility.yul\":13700:13706   */\n              dup3\n                /* \"#utility.yul\":13696:13711   */\n              add\n                /* \"#utility.yul\":13689:13724   */\n              mstore\n                /* \"#utility.yul\":13610:13731   */\n              pop\n              jump\t// out\n                /* \"#utility.yul\":13737:13859   */\n            tag_152:\n                /* \"#utility.yul\":13810:13834   */\n              tag_313\n                /* \"#utility.yul\":13828:13833   */\n              dup2\n                /* \"#utility.yul\":13810:13834   */\n              tag_193\n              jump\t// in\n            tag_313:\n                /* \"#utility.yul\":13803:13808   */\n              dup2\n                /* \"#utility.yul\":13800:13835   */\n              eq\n                /* \"#utility.yul\":13790:13792   */\n              tag_314\n              jumpi\n                /* \"#utility.yul\":13849:13850   */\n              0x00\n                /* \"#utility.yul\":13846:13847   */\n              dup1\n                /* \"#utility.yul\":13839:13851   */\n              revert\n                /* \"#utility.yul\":13790:13792   */\n            tag_314:\n                /* \"#utility.yul\":13780:13859   */\n              pop\n              jump\t// out\n                /* \"#utility.yul\":13865:13987   */\n            tag_162:\n                /* \"#utility.yul\":13938:13962   */\n              tag_316\n                /* \"#utility.yul\":13956:13961   */\n              dup2\n                /* \"#utility.yul\":13938:13962   */\n              tag_231\n              jump\t// in\n            tag_316:\n                /* \"#utility.yul\":13931:13936   */\n              dup2\n                /* \"#utility.yul\":13928:13963   */\n              eq\n                /* \"#utility.yul\":13918:13920   */\n              tag_317\n              jumpi\n                /* \"#utility.yul\":13977:13978   */\n              0x00\n                /* \"#utility.yul\":13974:13975   */\n              dup1\n                /* \"#utility.yul\":13967:13979   */\n              revert\n                /* \"#utility.yul\":13918:13920   */\n            tag_317:\n                /* \"#utility.yul\":13908:13987   */\n              pop\n              jump\t// out\n\n            auxdata: 0xa26469706673582212204030f476b93fcc3f8bf14626318b7f8154cf6e83ed2868fac7fde326e02533cb64736f6c63430008060033\n        }\n    }\n\n    auxdata: 0xa26469706673582212202b5fbb41e3844160f1765233c6cbfb6dd172567f454505f59bcd131f0ba958cc64736f6c63430008060033\n}\n","bytecode":{"linkReferences":{},"object":"608060405234801561001057600080fd5b506119f5806100206000396000f3fe608060405234801561001057600080fd5b50600436106100415760003560e01c80635a9b372214610046578063a7d4d13214610076578063d8cd531314610094575b600080fd5b610060600480360381019061005b9190610240565b6100b0565b60405161006d9190610310565b60405180910390f35b61007e6100ef565b60405161008b919061032b565b60405180910390f35b6100ae60048036038101906100a99190610240565b61017d565b005b600081815481106100c057600080fd5b906000526020600020016000915054906101000a900473ffffffffffffffffffffffffffffffffffffffff1681565b6060600080548060200260200160405190810160405280929190818152602001828054801561017357602002820191906000526020600020905b8160009054906101000a900473ffffffffffffffffffffffffffffffffffffffff1673ffffffffffffffffffffffffffffffffffffffff1681526020019060010190808311610129575b5050505050905090565b6000813360405161018d9061021e565b61019892919061034d565b604051809103906000f0801580156101b4573d6000803e3d6000fd5b5090506000819080600181540180825580915050600190039060005260206000200160009091909190916101000a81548173ffffffffffffffffffffffffffffffffffffffff021916908373ffffffffffffffffffffffffffffffffffffffff1602179055505050565b6115b88061040883390190565b60008135905061023a816103f0565b92915050565b600060208284031215610256576102556103eb565b5b60006102648482850161022b565b91505092915050565b60006102798383610285565b60208301905092915050565b61028e816103af565b82525050565b61029d816103af565b82525050565b60006102ae82610386565b6102b8818561039e565b93506102c383610376565b8060005b838110156102f45781516102db888261026d565b97506102e683610391565b9250506001810190506102c7565b5085935050505092915050565b61030a816103e1565b82525050565b60006020820190506103256000830184610294565b92915050565b6000602082019050818103600083015261034581846102a3565b905092915050565b60006040820190506103626000830185610301565b61036f6020830184610294565b9392505050565b6000819050602082019050919050565b600081519050919050565b6000602082019050919050565b600082825260208201905092915050565b60006103ba826103c1565b9050919050565b600073ffffffffffffffffffffffffffffffffffffffff82169050919050565b6000819050919050565b600080fd5b6103f9816103e1565b811461040457600080fd5b5056fe60806040523480156200001157600080fd5b50604051620015b8380380620015b88339818101604052810190620000379190620000ed565b81600181905550806000806101000a81548173ffffffffffffffffffffffffffffffffffffffff021916908373ffffffffffffffffffffffffffffffffffffffff1602179055507f4860a979207f9627f5143e066655de8cd6ba791950619a1f7f9731b33f431e5a33604051620000af91906200016c565b60405180910390a1505062000275565b600081519050620000d08162000241565b92915050565b600081519050620000e7816200025b565b92915050565b60008060408385031215620001075762000106620001ed565b5b60006200011785828601620000d6565b92505060206200012a85828601620000bf565b9150509250929050565b6200013f81620001af565b82525050565b6000620001546026836200019e565b91506200016182620001f2565b604082019050919050565b600060408201905062000183600083018462000134565b8181036020830152620001968162000145565b905092915050565b600082825260208201905092915050565b6000620001bc82620001c3565b9050919050565b600073ffffffffffffffffffffffffffffffffffffffff82169050919050565b6000819050919050565b600080fd5b7f48617320737461727465642061206e65772063726f776466756e64696e67207060008201527f726f6a6563740000000000000000000000000000000000000000000000000000602082015250565b6200024c81620001af565b81146200025857600080fd5b50565b6200026681620001e3565b81146200027257600080fd5b50565b61133380620002856000396000f3fe60806040526004361061009c5760003560e01c80635dc4086f116100645780635dc4086f1461015a578063744ce792146101975780638810c6d9146101c2578063a0ba95df146101eb578063cf5699771461022c578063d7d1bbdb146102575761009c565b80630d3546ac146100a15780632a45c222146100ab578063434d4604146100c75780634377cf651461010457806346bb28331461012f575b600080fd5b6100a9610280565b005b6100c560048036038101906100c09190610c08565b610294565b005b3480156100d357600080fd5b506100ee60048036038101906100e99190610c35565b61034f565b6040516100fb9190610d91565b60405180910390f35b34801561011057600080fd5b5061011961037e565b6040516101269190610e86565b60405180910390f35b34801561013b57600080fd5b50610144610384565b6040516101519190610d76565b60405180910390f35b34801561016657600080fd5b50610181600480360381019061017c9190610b6c565b6103a8565b60405161018e9190610d91565b60405180910390f35b3480156101a357600080fd5b506101ac6103c8565b6040516101b99190610e86565b60405180910390f35b3480156101ce57600080fd5b506101e960048036038101906101e49190610b99565b6103ce565b005b3480156101f757600080fd5b50610212600480360381019061020d9190610c08565b610522565b604051610223959493929190610dac565b60405180910390f35b34801561023857600080fd5b5061024161060d565b60405161024e9190610e86565b60405180910390f35b34801561026357600080fd5b5061027e60048036038101906102799190610c08565b610613565b005b61028934610630565b61029233610678565b565b60008054906101000a900473ffffffffffffffffffffffffffffffffffffffff1673ffffffffffffffffffffffffffffffffffffffff163373ffffffffffffffffffffffffffffffffffffffff1614610322576040517f08c379a000000000000000000000000000000000000000000000000000000000815260040161031990610e66565b60405180910390fd5b6000600660008381526020019081526020016000209050610342816106eb565b61034b81610794565b5050565b60056020528160005260406000206020528060005260406000206000915091509054906101000a900460ff1681565b60035481565b60008054906101000a900473ffffffffffffffffffffffffffffffffffffffff1681565b60046020528060005260406000206000915054906101000a900460ff1681565b60015481565b60008054906101000a900473ffffffffffffffffffffffffffffffffffffffff1673ffffffffffffffffffffffffffffffffffffffff163373ffffffffffffffffffffffffffffffffffffffff161461045c576040517f08c379a000000000000000000000000000000000000000000000000000000000815260040161045390610e66565b60405180910390fd5b6000610469848484610823565b905080600660006002548152602001908152602001600020600082015181600001908051906020019061049d9291906109e8565b506020820151816001015560408201518160020160006101000a81548173ffffffffffffffffffffffffffffffffffffffff021916908373ffffffffffffffffffffffffffffffffffffffff1602179055506060820151816003015560808201518160040160006101000a81548160ff02191690831515021790555090505050505050565b600660205280600052604060002060009150905080600001805461054590610fe0565b80601f016020809104026020016040519081016040528092919081815260200182805461057190610fe0565b80156105be5780601f10610593576101008083540402835291602001916105be565b820191906000526020600020905b8154815290600101906020018083116105a157829003601f168201915b5050505050908060010154908060020160009054906101000a900473ffffffffffffffffffffffffffffffffffffffff16908060030154908060040160009054906101000a900460ff16905085565b60025481565b6000339050610622818361088d565b61062c818361094f565b5050565b600154811015610675576040517f08c379a000000000000000000000000000000000000000000000000000000000815260040161066c90610e46565b60405180910390fd5b50565b6001600460008373ffffffffffffffffffffffffffffffffffffffff1673ffffffffffffffffffffffffffffffffffffffff16815260200190815260200160002060006101000a81548160ff021916908315150217905550600360008154809291906106e390611043565b919050555050565b8060040160009054906101000a900460ff161561073d576040517f08c379a000000000000000000000000000000000000000000000000000000000815260040161073490610e26565b60405180910390fd5b600260035461074c9190610f13565b816003015411610791576040517f08c379a000000000000000000000000000000000000000000000000000000000815260040161078890610e06565b60405180910390fd5b50565b60018160040160006101000a81548160ff0219169083151502179055508060020160009054906101000a900473ffffffffffffffffffffffffffffffffffffffff1673ffffffffffffffffffffffffffffffffffffffff166108fc82600101549081150290604051600060405180830381858888f1935050505015801561081f573d6000803e3d6000fd5b5050565b61082b610a6e565b6002600081548092919061083e90611043565b91905055506040518060a001604052808581526020018481526020018373ffffffffffffffffffffffffffffffffffffffff168152602001600081526020016000151581525090509392505050565b600460008373ffffffffffffffffffffffffffffffffffffffff1673ffffffffffffffffffffffffffffffffffffffff16815260200190815260200160002060009054906101000a900460ff166108e357600080fd5b6005600082815260200190815260200160002060008373ffffffffffffffffffffffffffffffffffffffff1673ffffffffffffffffffffffffffffffffffffffff16815260200190815260200160002060009054906101000a900460ff161561094b57600080fd5b5050565b60066000828152602001908152602001600020600301600081548092919061097690611043565b919050555060016005600083815260200190815260200160002060008473ffffffffffffffffffffffffffffffffffffffff1673ffffffffffffffffffffffffffffffffffffffff16815260200190815260200160002060006101000a81548160ff0219169083151502179055505050565b8280546109f490610fe0565b90600052602060002090601f016020900481019282610a165760008555610a5d565b82601f10610a2f57805160ff1916838001178555610a5d565b82800160010185558215610a5d579182015b82811115610a5c578251825591602001919060010190610a41565b5b509050610a6a9190610ab5565b5090565b6040518060a001604052806060815260200160008152602001600073ffffffffffffffffffffffffffffffffffffffff168152602001600081526020016000151581525090565b5b80821115610ace576000816000905550600101610ab6565b5090565b6000610ae5610ae084610ec6565b610ea1565b905082815260208101848484011115610b0157610b0061114d565b5b610b0c848285610f9e565b509392505050565b600081359050610b23816112cf565b92915050565b600082601f830112610b3e57610b3d611148565b5b8135610b4e848260208601610ad2565b91505092915050565b600081359050610b66816112e6565b92915050565b600060208284031215610b8257610b81611157565b5b6000610b9084828501610b14565b91505092915050565b600080600060608486031215610bb257610bb1611157565b5b600084013567ffffffffffffffff811115610bd057610bcf611152565b5b610bdc86828701610b29565b9350506020610bed86828701610b57565b9250506040610bfe86828701610b14565b9150509250925092565b600060208284031215610c1e57610c1d611157565b5b6000610c2c84828501610b57565b91505092915050565b60008060408385031215610c4c57610c4b611157565b5b6000610c5a85828601610b57565b9250506020610c6b85828601610b14565b9150509250929050565b610c7e81610f56565b82525050565b610c8d81610f44565b82525050565b610c9c81610f68565b82525050565b6000610cad82610ef7565b610cb78185610f02565b9350610cc7818560208601610fad565b610cd08161115c565b840191505092915050565b6000610ce8602583610f02565b9150610cf38261116d565b604082019050919050565b6000610d0b602683610f02565b9150610d16826111bc565b604082019050919050565b6000610d2e604483610f02565b9150610d398261120b565b606082019050919050565b6000610d51602883610f02565b9150610d5c82611280565b604082019050919050565b610d7081610f94565b82525050565b6000602082019050610d8b6000830184610c84565b92915050565b6000602082019050610da66000830184610c93565b92915050565b600060a0820190508181036000830152610dc68188610ca2565b9050610dd56020830187610d67565b610de26040830186610c75565b610def6060830185610d67565b610dfc6080830184610c93565b9695505050505050565b60006020820190508181036000830152610e1f81610cdb565b9050919050565b60006020820190508181036000830152610e3f81610cfe565b9050919050565b60006020820190508181036000830152610e5f81610d21565b9050919050565b60006020820190508181036000830152610e7f81610d44565b9050919050565b6000602082019050610e9b6000830184610d67565b92915050565b6000610eab610ebc565b9050610eb78282611012565b919050565b6000604051905090565b600067ffffffffffffffff821115610ee157610ee0611119565b5b610eea8261115c565b9050602081019050919050565b600081519050919050565b600082825260208201905092915050565b6000610f1e82610f94565b9150610f2983610f94565b925082610f3957610f386110bb565b5b828204905092915050565b6000610f4f82610f74565b9050919050565b6000610f6182610f74565b9050919050565b60008115159050919050565b600073ffffffffffffffffffffffffffffffffffffffff82169050919050565b6000819050919050565b82818337600083830152505050565b60005b83811015610fcb578082015181840152602081019050610fb0565b83811115610fda576000848401525b50505050565b60006002820490506001821680610ff857607f821691505b6020821081141561100c5761100b6110ea565b5b50919050565b61101b8261115c565b810181811067ffffffffffffffff8211171561103a57611039611119565b5b80604052505050565b600061104e82610f94565b91507fffffffffffffffffffffffffffffffffffffffffffffffffffffffffffffffff8214156110815761108061108c565b5b600182019050919050565b7f4e487b7100000000000000000000000000000000000000000000000000000000600052601160045260246000fd5b7f4e487b7100000000000000000000000000000000000000000000000000000000600052601260045260246000fd5b7f4e487b7100000000000000000000000000000000000000000000000000000000600052602260045260246000fd5b7f4e487b7100000000000000000000000000000000000000000000000000000000600052604160045260246000fd5b600080fd5b600080fd5b600080fd5b600080fd5b6000601f19601f8301169050919050565b7f54686973207265717565737420646964206e6f742077696e20746865206d616a60008201527f6f72697479000000000000000000000000000000000000000000000000000000602082015250565b7f5468697320726571756573742068617320616c7265616479206265656e20636f60008201527f6e73756d65640000000000000000000000000000000000000000000000000000602082015250565b7f436f6e747269627574696f6e20616d6f756e74206c657373207468616e206d6960008201527f6e696d616c20636f6e747269627574696f6e20666f7220746869732063616d7060208201527f6169676e00000000000000000000000000000000000000000000000000000000604082015250565b7f4f6e6c792074686520666f756e6465722063616e20657865637574652074686960008201527f7320616374696f6e000000000000000000000000000000000000000000000000602082015250565b6112d881610f44565b81146112e357600080fd5b50565b6112ef81610f94565b81146112fa57600080fd5b5056fea26469706673582212204030f476b93fcc3f8bf14626318b7f8154cf6e83ed2868fac7fde326e02533cb64736f6c63430008060033a26469706673582212202b5fbb41e3844160f1765233c6cbfb6dd172567f454505f59bcd131f0ba958cc64736f6c63430008060033","opcodes":"PUSH1 0x80 PUSH1 0x40 MSTORE CALLVALUE DUP1 ISZERO PUSH2 0x10 JUMPI PUSH1 0x0 DUP1 REVERT JUMPDEST POP PUSH2 0x19F5 DUP1 PUSH2 0x20 PUSH1 0x0 CODECOPY PUSH1 0x0 RETURN INVALID PUSH1 0x80 PUSH1 0x40 MSTORE CALLVALUE DUP1 ISZERO PUSH2 0x10 JUMPI PUSH1 0x0 DUP1 REVERT JUMPDEST POP PUSH1 0x4 CALLDATASIZE LT PUSH2 0x41 JUMPI PUSH1 0x0 CALLDATALOAD PUSH1 0xE0 SHR DUP1 PUSH4 0x5A9B3722 EQ PUSH2 0x46 JUMPI DUP1 PUSH4 0xA7D4D132 EQ PUSH2 0x76 JUMPI DUP1 PUSH4 0xD8CD5313 EQ PUSH2 0x94 JUMPI JUMPDEST PUSH1 0x0 DUP1 REVERT JUMPDEST PUSH2 0x60 PUSH1 0x4 DUP1 CALLDATASIZE SUB DUP2 ADD SWAP1 PUSH2 0x5B SWAP2 SWAP1 PUSH2 0x240 JUMP JUMPDEST PUSH2 0xB0 JUMP JUMPDEST PUSH1 0x40 MLOAD PUSH2 0x6D SWAP2 SWAP1 PUSH2 0x310 JUMP JUMPDEST PUSH1 0x40 MLOAD DUP1 SWAP2 SUB SWAP1 RETURN JUMPDEST PUSH2 0x7E PUSH2 0xEF JUMP JUMPDEST PUSH1 0x40 MLOAD PUSH2 0x8B SWAP2 SWAP1 PUSH2 0x32B JUMP JUMPDEST PUSH1 0x40 MLOAD DUP1 SWAP2 SUB SWAP1 RETURN JUMPDEST PUSH2 0xAE PUSH1 0x4 DUP1 CALLDATASIZE SUB DUP2 ADD SWAP1 PUSH2 0xA9 SWAP2 SWAP1 PUSH2 0x240 JUMP JUMPDEST PUSH2 0x17D JUMP JUMPDEST STOP JUMPDEST PUSH1 0x0 DUP2 DUP2 SLOAD DUP2 LT PUSH2 0xC0 JUMPI PUSH1 0x0 DUP1 REVERT JUMPDEST SWAP1 PUSH1 0x0 MSTORE PUSH1 0x20 PUSH1 0x0 KECCAK256 ADD PUSH1 0x0 SWAP2 POP SLOAD SWAP1 PUSH2 0x100 EXP SWAP1 DIV PUSH20 0xFFFFFFFFFFFFFFFFFFFFFFFFFFFFFFFFFFFFFFFF AND DUP2 JUMP JUMPDEST PUSH1 0x60 PUSH1 0x0 DUP1 SLOAD DUP1 PUSH1 0x20 MUL PUSH1 0x20 ADD PUSH1 0x40 MLOAD SWAP1 DUP2 ADD PUSH1 0x40 MSTORE DUP1 SWAP3 SWAP2 SWAP1 DUP2 DUP2 MSTORE PUSH1 0x20 ADD DUP3 DUP1 SLOAD DUP1 ISZERO PUSH2 0x173 JUMPI PUSH1 0x20 MUL DUP3 ADD SWAP2 SWAP1 PUSH1 0x0 MSTORE PUSH1 0x20 PUSH1 0x0 KECCAK256 SWAP1 JUMPDEST DUP2 PUSH1 0x0 SWAP1 SLOAD SWAP1 PUSH2 0x100 EXP SWAP1 DIV PUSH20 0xFFFFFFFFFFFFFFFFFFFFFFFFFFFFFFFFFFFFFFFF AND PUSH20 0xFFFFFFFFFFFFFFFFFFFFFFFFFFFFFFFFFFFFFFFF AND DUP2 MSTORE PUSH1 0x20 ADD SWAP1 PUSH1 0x1 ADD SWAP1 DUP1 DUP4 GT PUSH2 0x129 JUMPI JUMPDEST POP POP POP POP POP SWAP1 POP SWAP1 JUMP JUMPDEST PUSH1 0x0 DUP2 CALLER PUSH1 0x40 MLOAD PUSH2 0x18D SWAP1 PUSH2 0x21E JUMP JUMPDEST PUSH2 0x198 SWAP3 SWAP2 SWAP1 PUSH2 0x34D JUMP JUMPDEST PUSH1 0x40 MLOAD DUP1 SWAP2 SUB SWAP1 PUSH1 0x0 CREATE DUP1 ISZERO DUP1 ISZERO PUSH2 0x1B4 JUMPI RETURNDATASIZE PUSH1 0x0 DUP1 RETURNDATACOPY RETURNDATASIZE PUSH1 0x0 REVERT JUMPDEST POP SWAP1 POP PUSH1 0x0 DUP2 SWAP1 DUP1 PUSH1 0x1 DUP2 SLOAD ADD DUP1 DUP3 SSTORE DUP1 SWAP2 POP POP PUSH1 0x1 SWAP1 SUB SWAP1 PUSH1 0x0 MSTORE PUSH1 0x20 PUSH1 0x0 KECCAK256 ADD PUSH1 0x0 SWAP1 SWAP2 SWAP1 SWAP2 SWAP1 SWAP2 PUSH2 0x100 EXP DUP2 SLOAD DUP2 PUSH20 0xFFFFFFFFFFFFFFFFFFFFFFFFFFFFFFFFFFFFFFFF MUL NOT AND SWAP1 DUP4 PUSH20 0xFFFFFFFFFFFFFFFFFFFFFFFFFFFFFFFFFFFFFFFF AND MUL OR SWAP1 SSTORE POP POP POP JUMP JUMPDEST PUSH2 0x15B8 DUP1 PUSH2 0x408 DUP4 CODECOPY ADD SWAP1 JUMP JUMPDEST PUSH1 0x0 DUP2 CALLDATALOAD SWAP1 POP PUSH2 0x23A DUP2 PUSH2 0x3F0 JUMP JUMPDEST SWAP3 SWAP2 POP POP JUMP JUMPDEST PUSH1 0x0 PUSH1 0x20 DUP3 DUP5 SUB SLT ISZERO PUSH2 0x256 JUMPI PUSH2 0x255 PUSH2 0x3EB JUMP JUMPDEST JUMPDEST PUSH1 0x0 PUSH2 0x264 DUP5 DUP3 DUP6 ADD PUSH2 0x22B JUMP JUMPDEST SWAP2 POP POP SWAP3 SWAP2 POP POP JUMP JUMPDEST PUSH1 0x0 PUSH2 0x279 DUP4 DUP4 PUSH2 0x285 JUMP JUMPDEST PUSH1 0x20 DUP4 ADD SWAP1 POP SWAP3 SWAP2 POP POP JUMP JUMPDEST PUSH2 0x28E DUP2 PUSH2 0x3AF JUMP JUMPDEST DUP3 MSTORE POP POP JUMP JUMPDEST PUSH2 0x29D DUP2 PUSH2 0x3AF JUMP JUMPDEST DUP3 MSTORE POP POP JUMP JUMPDEST PUSH1 0x0 PUSH2 0x2AE DUP3 PUSH2 0x386 JUMP JUMPDEST PUSH2 0x2B8 DUP2 DUP6 PUSH2 0x39E JUMP JUMPDEST SWAP4 POP PUSH2 0x2C3 DUP4 PUSH2 0x376 JUMP JUMPDEST DUP1 PUSH1 0x0 JUMPDEST DUP4 DUP2 LT ISZERO PUSH2 0x2F4 JUMPI DUP2 MLOAD PUSH2 0x2DB DUP9 DUP3 PUSH2 0x26D JUMP JUMPDEST SWAP8 POP PUSH2 0x2E6 DUP4 PUSH2 0x391 JUMP JUMPDEST SWAP3 POP POP PUSH1 0x1 DUP2 ADD SWAP1 POP PUSH2 0x2C7 JUMP JUMPDEST POP DUP6 SWAP4 POP POP POP POP SWAP3 SWAP2 POP POP JUMP JUMPDEST PUSH2 0x30A DUP2 PUSH2 0x3E1 JUMP JUMPDEST DUP3 MSTORE POP POP JUMP JUMPDEST PUSH1 0x0 PUSH1 0x20 DUP3 ADD SWAP1 POP PUSH2 0x325 PUSH1 0x0 DUP4 ADD DUP5 PUSH2 0x294 JUMP JUMPDEST SWAP3 SWAP2 POP POP JUMP JUMPDEST PUSH1 0x0 PUSH1 0x20 DUP3 ADD SWAP1 POP DUP2 DUP2 SUB PUSH1 0x0 DUP4 ADD MSTORE PUSH2 0x345 DUP2 DUP5 PUSH2 0x2A3 JUMP JUMPDEST SWAP1 POP SWAP3 SWAP2 POP POP JUMP JUMPDEST PUSH1 0x0 PUSH1 0x40 DUP3 ADD SWAP1 POP PUSH2 0x362 PUSH1 0x0 DUP4 ADD DUP6 PUSH2 0x301 JUMP JUMPDEST PUSH2 0x36F PUSH1 0x20 DUP4 ADD DUP5 PUSH2 0x294 JUMP JUMPDEST SWAP4 SWAP3 POP POP POP JUMP JUMPDEST PUSH1 0x0 DUP2 SWAP1 POP PUSH1 0x20 DUP3 ADD SWAP1 POP SWAP2 SWAP1 POP JUMP JUMPDEST PUSH1 0x0 DUP2 MLOAD SWAP1 POP SWAP2 SWAP1 POP JUMP JUMPDEST PUSH1 0x0 PUSH1 0x20 DUP3 ADD SWAP1 POP SWAP2 SWAP1 POP JUMP JUMPDEST PUSH1 0x0 DUP3 DUP3 MSTORE PUSH1 0x20 DUP3 ADD SWAP1 POP SWAP3 SWAP2 POP POP JUMP JUMPDEST PUSH1 0x0 PUSH2 0x3BA DUP3 PUSH2 0x3C1 JUMP JUMPDEST SWAP1 POP SWAP2 SWAP1 POP JUMP JUMPDEST PUSH1 0x0 PUSH20 0xFFFFFFFFFFFFFFFFFFFFFFFFFFFFFFFFFFFFFFFF DUP3 AND SWAP1 POP SWAP2 SWAP1 POP JUMP JUMPDEST PUSH1 0x0 DUP2 SWAP1 POP SWAP2 SWAP1 POP JUMP JUMPDEST PUSH1 0x0 DUP1 REVERT JUMPDEST PUSH2 0x3F9 DUP2 PUSH2 0x3E1 JUMP JUMPDEST DUP2 EQ PUSH2 0x404 JUMPI PUSH1 0x0 DUP1 REVERT JUMPDEST POP JUMP INVALID PUSH1 0x80 PUSH1 0x40 MSTORE CALLVALUE DUP1 ISZERO PUSH3 0x11 JUMPI PUSH1 0x0 DUP1 REVERT JUMPDEST POP PUSH1 0x40 MLOAD PUSH3 0x15B8 CODESIZE SUB DUP1 PUSH3 0x15B8 DUP4 CODECOPY DUP2 DUP2 ADD PUSH1 0x40 MSTORE DUP2 ADD SWAP1 PUSH3 0x37 SWAP2 SWAP1 PUSH3 0xED JUMP JUMPDEST DUP2 PUSH1 0x1 DUP2 SWAP1 SSTORE POP DUP1 PUSH1 0x0 DUP1 PUSH2 0x100 EXP DUP2 SLOAD DUP2 PUSH20 0xFFFFFFFFFFFFFFFFFFFFFFFFFFFFFFFFFFFFFFFF MUL NOT AND SWAP1 DUP4 PUSH20 0xFFFFFFFFFFFFFFFFFFFFFFFFFFFFFFFFFFFFFFFF AND MUL OR SWAP1 SSTORE POP PUSH32 0x4860A979207F9627F5143E066655DE8CD6BA791950619A1F7F9731B33F431E5A CALLER PUSH1 0x40 MLOAD PUSH3 0xAF SWAP2 SWAP1 PUSH3 0x16C JUMP JUMPDEST PUSH1 0x40 MLOAD DUP1 SWAP2 SUB SWAP1 LOG1 POP POP PUSH3 0x275 JUMP JUMPDEST PUSH1 0x0 DUP2 MLOAD SWAP1 POP PUSH3 0xD0 DUP2 PUSH3 0x241 JUMP JUMPDEST SWAP3 SWAP2 POP POP JUMP JUMPDEST PUSH1 0x0 DUP2 MLOAD SWAP1 POP PUSH3 0xE7 DUP2 PUSH3 0x25B JUMP JUMPDEST SWAP3 SWAP2 POP POP JUMP JUMPDEST PUSH1 0x0 DUP1 PUSH1 0x40 DUP4 DUP6 SUB SLT ISZERO PUSH3 0x107 JUMPI PUSH3 0x106 PUSH3 0x1ED JUMP JUMPDEST JUMPDEST PUSH1 0x0 PUSH3 0x117 DUP6 DUP3 DUP7 ADD PUSH3 0xD6 JUMP JUMPDEST SWAP3 POP POP PUSH1 0x20 PUSH3 0x12A DUP6 DUP3 DUP7 ADD PUSH3 0xBF JUMP JUMPDEST SWAP2 POP POP SWAP3 POP SWAP3 SWAP1 POP JUMP JUMPDEST PUSH3 0x13F DUP2 PUSH3 0x1AF JUMP JUMPDEST DUP3 MSTORE POP POP JUMP JUMPDEST PUSH1 0x0 PUSH3 0x154 PUSH1 0x26 DUP4 PUSH3 0x19E JUMP JUMPDEST SWAP2 POP PUSH3 0x161 DUP3 PUSH3 0x1F2 JUMP JUMPDEST PUSH1 0x40 DUP3 ADD SWAP1 POP SWAP2 SWAP1 POP JUMP JUMPDEST PUSH1 0x0 PUSH1 0x40 DUP3 ADD SWAP1 POP PUSH3 0x183 PUSH1 0x0 DUP4 ADD DUP5 PUSH3 0x134 JUMP JUMPDEST DUP2 DUP2 SUB PUSH1 0x20 DUP4 ADD MSTORE PUSH3 0x196 DUP2 PUSH3 0x145 JUMP JUMPDEST SWAP1 POP SWAP3 SWAP2 POP POP JUMP JUMPDEST PUSH1 0x0 DUP3 DUP3 MSTORE PUSH1 0x20 DUP3 ADD SWAP1 POP SWAP3 SWAP2 POP POP JUMP JUMPDEST PUSH1 0x0 PUSH3 0x1BC DUP3 PUSH3 0x1C3 JUMP JUMPDEST SWAP1 POP SWAP2 SWAP1 POP JUMP JUMPDEST PUSH1 0x0 PUSH20 0xFFFFFFFFFFFFFFFFFFFFFFFFFFFFFFFFFFFFFFFF DUP3 AND SWAP1 POP SWAP2 SWAP1 POP JUMP JUMPDEST PUSH1 0x0 DUP2 SWAP1 POP SWAP2 SWAP1 POP JUMP JUMPDEST PUSH1 0x0 DUP1 REVERT JUMPDEST PUSH32 0x48617320737461727465642061206E65772063726F776466756E64696E672070 PUSH1 0x0 DUP3 ADD MSTORE PUSH32 0x726F6A6563740000000000000000000000000000000000000000000000000000 PUSH1 0x20 DUP3 ADD MSTORE POP JUMP JUMPDEST PUSH3 0x24C DUP2 PUSH3 0x1AF JUMP JUMPDEST DUP2 EQ PUSH3 0x258 JUMPI PUSH1 0x0 DUP1 REVERT JUMPDEST POP JUMP JUMPDEST PUSH3 0x266 DUP2 PUSH3 0x1E3 JUMP JUMPDEST DUP2 EQ PUSH3 0x272 JUMPI PUSH1 0x0 DUP1 REVERT JUMPDEST POP JUMP JUMPDEST PUSH2 0x1333 DUP1 PUSH3 0x285 PUSH1 0x0 CODECOPY PUSH1 0x0 RETURN INVALID PUSH1 0x80 PUSH1 0x40 MSTORE PUSH1 0x4 CALLDATASIZE LT PUSH2 0x9C JUMPI PUSH1 0x0 CALLDATALOAD PUSH1 0xE0 SHR DUP1 PUSH4 0x5DC4086F GT PUSH2 0x64 JUMPI DUP1 PUSH4 0x5DC4086F EQ PUSH2 0x15A JUMPI DUP1 PUSH4 0x744CE792 EQ PUSH2 0x197 JUMPI DUP1 PUSH4 0x8810C6D9 EQ PUSH2 0x1C2 JUMPI DUP1 PUSH4 0xA0BA95DF EQ PUSH2 0x1EB JUMPI DUP1 PUSH4 0xCF569977 EQ PUSH2 0x22C JUMPI DUP1 PUSH4 0xD7D1BBDB EQ PUSH2 0x257 JUMPI PUSH2 0x9C JUMP JUMPDEST DUP1 PUSH4 0xD3546AC EQ PUSH2 0xA1 JUMPI DUP1 PUSH4 0x2A45C222 EQ PUSH2 0xAB JUMPI DUP1 PUSH4 0x434D4604 EQ PUSH2 0xC7 JUMPI DUP1 PUSH4 0x4377CF65 EQ PUSH2 0x104 JUMPI DUP1 PUSH4 0x46BB2833 EQ PUSH2 0x12F JUMPI JUMPDEST PUSH1 0x0 DUP1 REVERT JUMPDEST PUSH2 0xA9 PUSH2 0x280 JUMP JUMPDEST STOP JUMPDEST PUSH2 0xC5 PUSH1 0x4 DUP1 CALLDATASIZE SUB DUP2 ADD SWAP1 PUSH2 0xC0 SWAP2 SWAP1 PUSH2 0xC08 JUMP JUMPDEST PUSH2 0x294 JUMP JUMPDEST STOP JUMPDEST CALLVALUE DUP1 ISZERO PUSH2 0xD3 JUMPI PUSH1 0x0 DUP1 REVERT JUMPDEST POP PUSH2 0xEE PUSH1 0x4 DUP1 CALLDATASIZE SUB DUP2 ADD SWAP1 PUSH2 0xE9 SWAP2 SWAP1 PUSH2 0xC35 JUMP JUMPDEST PUSH2 0x34F JUMP JUMPDEST PUSH1 0x40 MLOAD PUSH2 0xFB SWAP2 SWAP1 PUSH2 0xD91 JUMP JUMPDEST PUSH1 0x40 MLOAD DUP1 SWAP2 SUB SWAP1 RETURN JUMPDEST CALLVALUE DUP1 ISZERO PUSH2 0x110 JUMPI PUSH1 0x0 DUP1 REVERT JUMPDEST POP PUSH2 0x119 PUSH2 0x37E JUMP JUMPDEST PUSH1 0x40 MLOAD PUSH2 0x126 SWAP2 SWAP1 PUSH2 0xE86 JUMP JUMPDEST PUSH1 0x40 MLOAD DUP1 SWAP2 SUB SWAP1 RETURN JUMPDEST CALLVALUE DUP1 ISZERO PUSH2 0x13B JUMPI PUSH1 0x0 DUP1 REVERT JUMPDEST POP PUSH2 0x144 PUSH2 0x384 JUMP JUMPDEST PUSH1 0x40 MLOAD PUSH2 0x151 SWAP2 SWAP1 PUSH2 0xD76 JUMP JUMPDEST PUSH1 0x40 MLOAD DUP1 SWAP2 SUB SWAP1 RETURN JUMPDEST CALLVALUE DUP1 ISZERO PUSH2 0x166 JUMPI PUSH1 0x0 DUP1 REVERT JUMPDEST POP PUSH2 0x181 PUSH1 0x4 DUP1 CALLDATASIZE SUB DUP2 ADD SWAP1 PUSH2 0x17C SWAP2 SWAP1 PUSH2 0xB6C JUMP JUMPDEST PUSH2 0x3A8 JUMP JUMPDEST PUSH1 0x40 MLOAD PUSH2 0x18E SWAP2 SWAP1 PUSH2 0xD91 JUMP JUMPDEST PUSH1 0x40 MLOAD DUP1 SWAP2 SUB SWAP1 RETURN JUMPDEST CALLVALUE DUP1 ISZERO PUSH2 0x1A3 JUMPI PUSH1 0x0 DUP1 REVERT JUMPDEST POP PUSH2 0x1AC PUSH2 0x3C8 JUMP JUMPDEST PUSH1 0x40 MLOAD PUSH2 0x1B9 SWAP2 SWAP1 PUSH2 0xE86 JUMP JUMPDEST PUSH1 0x40 MLOAD DUP1 SWAP2 SUB SWAP1 RETURN JUMPDEST CALLVALUE DUP1 ISZERO PUSH2 0x1CE JUMPI PUSH1 0x0 DUP1 REVERT JUMPDEST POP PUSH2 0x1E9 PUSH1 0x4 DUP1 CALLDATASIZE SUB DUP2 ADD SWAP1 PUSH2 0x1E4 SWAP2 SWAP1 PUSH2 0xB99 JUMP JUMPDEST PUSH2 0x3CE JUMP JUMPDEST STOP JUMPDEST CALLVALUE DUP1 ISZERO PUSH2 0x1F7 JUMPI PUSH1 0x0 DUP1 REVERT JUMPDEST POP PUSH2 0x212 PUSH1 0x4 DUP1 CALLDATASIZE SUB DUP2 ADD SWAP1 PUSH2 0x20D SWAP2 SWAP1 PUSH2 0xC08 JUMP JUMPDEST PUSH2 0x522 JUMP JUMPDEST PUSH1 0x40 MLOAD PUSH2 0x223 SWAP6 SWAP5 SWAP4 SWAP3 SWAP2 SWAP1 PUSH2 0xDAC JUMP JUMPDEST PUSH1 0x40 MLOAD DUP1 SWAP2 SUB SWAP1 RETURN JUMPDEST CALLVALUE DUP1 ISZERO PUSH2 0x238 JUMPI PUSH1 0x0 DUP1 REVERT JUMPDEST POP PUSH2 0x241 PUSH2 0x60D JUMP JUMPDEST PUSH1 0x40 MLOAD PUSH2 0x24E SWAP2 SWAP1 PUSH2 0xE86 JUMP JUMPDEST PUSH1 0x40 MLOAD DUP1 SWAP2 SUB SWAP1 RETURN JUMPDEST CALLVALUE DUP1 ISZERO PUSH2 0x263 JUMPI PUSH1 0x0 DUP1 REVERT JUMPDEST POP PUSH2 0x27E PUSH1 0x4 DUP1 CALLDATASIZE SUB DUP2 ADD SWAP1 PUSH2 0x279 SWAP2 SWAP1 PUSH2 0xC08 JUMP JUMPDEST PUSH2 0x613 JUMP JUMPDEST STOP JUMPDEST PUSH2 0x289 CALLVALUE PUSH2 0x630 JUMP JUMPDEST PUSH2 0x292 CALLER PUSH2 0x678 JUMP JUMPDEST JUMP JUMPDEST PUSH1 0x0 DUP1 SLOAD SWAP1 PUSH2 0x100 EXP SWAP1 DIV PUSH20 0xFFFFFFFFFFFFFFFFFFFFFFFFFFFFFFFFFFFFFFFF AND PUSH20 0xFFFFFFFFFFFFFFFFFFFFFFFFFFFFFFFFFFFFFFFF AND CALLER PUSH20 0xFFFFFFFFFFFFFFFFFFFFFFFFFFFFFFFFFFFFFFFF AND EQ PUSH2 0x322 JUMPI PUSH1 0x40 MLOAD PUSH32 0x8C379A000000000000000000000000000000000000000000000000000000000 DUP2 MSTORE PUSH1 0x4 ADD PUSH2 0x319 SWAP1 PUSH2 0xE66 JUMP JUMPDEST PUSH1 0x40 MLOAD DUP1 SWAP2 SUB SWAP1 REVERT JUMPDEST PUSH1 0x0 PUSH1 0x6 PUSH1 0x0 DUP4 DUP2 MSTORE PUSH1 0x20 ADD SWAP1 DUP2 MSTORE PUSH1 0x20 ADD PUSH1 0x0 KECCAK256 SWAP1 POP PUSH2 0x342 DUP2 PUSH2 0x6EB JUMP JUMPDEST PUSH2 0x34B DUP2 PUSH2 0x794 JUMP JUMPDEST POP POP JUMP JUMPDEST PUSH1 0x5 PUSH1 0x20 MSTORE DUP2 PUSH1 0x0 MSTORE PUSH1 0x40 PUSH1 0x0 KECCAK256 PUSH1 0x20 MSTORE DUP1 PUSH1 0x0 MSTORE PUSH1 0x40 PUSH1 0x0 KECCAK256 PUSH1 0x0 SWAP2 POP SWAP2 POP SWAP1 SLOAD SWAP1 PUSH2 0x100 EXP SWAP1 DIV PUSH1 0xFF AND DUP2 JUMP JUMPDEST PUSH1 0x3 SLOAD DUP2 JUMP JUMPDEST PUSH1 0x0 DUP1 SLOAD SWAP1 PUSH2 0x100 EXP SWAP1 DIV PUSH20 0xFFFFFFFFFFFFFFFFFFFFFFFFFFFFFFFFFFFFFFFF AND DUP2 JUMP JUMPDEST PUSH1 0x4 PUSH1 0x20 MSTORE DUP1 PUSH1 0x0 MSTORE PUSH1 0x40 PUSH1 0x0 KECCAK256 PUSH1 0x0 SWAP2 POP SLOAD SWAP1 PUSH2 0x100 EXP SWAP1 DIV PUSH1 0xFF AND DUP2 JUMP JUMPDEST PUSH1 0x1 SLOAD DUP2 JUMP JUMPDEST PUSH1 0x0 DUP1 SLOAD SWAP1 PUSH2 0x100 EXP SWAP1 DIV PUSH20 0xFFFFFFFFFFFFFFFFFFFFFFFFFFFFFFFFFFFFFFFF AND PUSH20 0xFFFFFFFFFFFFFFFFFFFFFFFFFFFFFFFFFFFFFFFF AND CALLER PUSH20 0xFFFFFFFFFFFFFFFFFFFFFFFFFFFFFFFFFFFFFFFF AND EQ PUSH2 0x45C JUMPI PUSH1 0x40 MLOAD PUSH32 0x8C379A000000000000000000000000000000000000000000000000000000000 DUP2 MSTORE PUSH1 0x4 ADD PUSH2 0x453 SWAP1 PUSH2 0xE66 JUMP JUMPDEST PUSH1 0x40 MLOAD DUP1 SWAP2 SUB SWAP1 REVERT JUMPDEST PUSH1 0x0 PUSH2 0x469 DUP5 DUP5 DUP5 PUSH2 0x823 JUMP JUMPDEST SWAP1 POP DUP1 PUSH1 0x6 PUSH1 0x0 PUSH1 0x2 SLOAD DUP2 MSTORE PUSH1 0x20 ADD SWAP1 DUP2 MSTORE PUSH1 0x20 ADD PUSH1 0x0 KECCAK256 PUSH1 0x0 DUP3 ADD MLOAD DUP2 PUSH1 0x0 ADD SWAP1 DUP1 MLOAD SWAP1 PUSH1 0x20 ADD SWAP1 PUSH2 0x49D SWAP3 SWAP2 SWAP1 PUSH2 0x9E8 JUMP JUMPDEST POP PUSH1 0x20 DUP3 ADD MLOAD DUP2 PUSH1 0x1 ADD SSTORE PUSH1 0x40 DUP3 ADD MLOAD DUP2 PUSH1 0x2 ADD PUSH1 0x0 PUSH2 0x100 EXP DUP2 SLOAD DUP2 PUSH20 0xFFFFFFFFFFFFFFFFFFFFFFFFFFFFFFFFFFFFFFFF MUL NOT AND SWAP1 DUP4 PUSH20 0xFFFFFFFFFFFFFFFFFFFFFFFFFFFFFFFFFFFFFFFF AND MUL OR SWAP1 SSTORE POP PUSH1 0x60 DUP3 ADD MLOAD DUP2 PUSH1 0x3 ADD SSTORE PUSH1 0x80 DUP3 ADD MLOAD DUP2 PUSH1 0x4 ADD PUSH1 0x0 PUSH2 0x100 EXP DUP2 SLOAD DUP2 PUSH1 0xFF MUL NOT AND SWAP1 DUP4 ISZERO ISZERO MUL OR SWAP1 SSTORE POP SWAP1 POP POP POP POP POP POP JUMP JUMPDEST PUSH1 0x6 PUSH1 0x20 MSTORE DUP1 PUSH1 0x0 MSTORE PUSH1 0x40 PUSH1 0x0 KECCAK256 PUSH1 0x0 SWAP2 POP SWAP1 POP DUP1 PUSH1 0x0 ADD DUP1 SLOAD PUSH2 0x545 SWAP1 PUSH2 0xFE0 JUMP JUMPDEST DUP1 PUSH1 0x1F ADD PUSH1 0x20 DUP1 SWAP2 DIV MUL PUSH1 0x20 ADD PUSH1 0x40 MLOAD SWAP1 DUP2 ADD PUSH1 0x40 MSTORE DUP1 SWAP3 SWAP2 SWAP1 DUP2 DUP2 MSTORE PUSH1 0x20 ADD DUP3 DUP1 SLOAD PUSH2 0x571 SWAP1 PUSH2 0xFE0 JUMP JUMPDEST DUP1 ISZERO PUSH2 0x5BE JUMPI DUP1 PUSH1 0x1F LT PUSH2 0x593 JUMPI PUSH2 0x100 DUP1 DUP4 SLOAD DIV MUL DUP4 MSTORE SWAP2 PUSH1 0x20 ADD SWAP2 PUSH2 0x5BE JUMP JUMPDEST DUP3 ADD SWAP2 SWAP1 PUSH1 0x0 MSTORE PUSH1 0x20 PUSH1 0x0 KECCAK256 SWAP1 JUMPDEST DUP2 SLOAD DUP2 MSTORE SWAP1 PUSH1 0x1 ADD SWAP1 PUSH1 0x20 ADD DUP1 DUP4 GT PUSH2 0x5A1 JUMPI DUP3 SWAP1 SUB PUSH1 0x1F AND DUP3 ADD SWAP2 JUMPDEST POP POP POP POP POP SWAP1 DUP1 PUSH1 0x1 ADD SLOAD SWAP1 DUP1 PUSH1 0x2 ADD PUSH1 0x0 SWAP1 SLOAD SWAP1 PUSH2 0x100 EXP SWAP1 DIV PUSH20 0xFFFFFFFFFFFFFFFFFFFFFFFFFFFFFFFFFFFFFFFF AND SWAP1 DUP1 PUSH1 0x3 ADD SLOAD SWAP1 DUP1 PUSH1 0x4 ADD PUSH1 0x0 SWAP1 SLOAD SWAP1 PUSH2 0x100 EXP SWAP1 DIV PUSH1 0xFF AND SWAP1 POP DUP6 JUMP JUMPDEST PUSH1 0x2 SLOAD DUP2 JUMP JUMPDEST PUSH1 0x0 CALLER SWAP1 POP PUSH2 0x622 DUP2 DUP4 PUSH2 0x88D JUMP JUMPDEST PUSH2 0x62C DUP2 DUP4 PUSH2 0x94F JUMP JUMPDEST POP POP JUMP JUMPDEST PUSH1 0x1 SLOAD DUP2 LT ISZERO PUSH2 0x675 JUMPI PUSH1 0x40 MLOAD PUSH32 0x8C379A000000000000000000000000000000000000000000000000000000000 DUP2 MSTORE PUSH1 0x4 ADD PUSH2 0x66C SWAP1 PUSH2 0xE46 JUMP JUMPDEST PUSH1 0x40 MLOAD DUP1 SWAP2 SUB SWAP1 REVERT JUMPDEST POP JUMP JUMPDEST PUSH1 0x1 PUSH1 0x4 PUSH1 0x0 DUP4 PUSH20 0xFFFFFFFFFFFFFFFFFFFFFFFFFFFFFFFFFFFFFFFF AND PUSH20 0xFFFFFFFFFFFFFFFFFFFFFFFFFFFFFFFFFFFFFFFF AND DUP2 MSTORE PUSH1 0x20 ADD SWAP1 DUP2 MSTORE PUSH1 0x20 ADD PUSH1 0x0 KECCAK256 PUSH1 0x0 PUSH2 0x100 EXP DUP2 SLOAD DUP2 PUSH1 0xFF MUL NOT AND SWAP1 DUP4 ISZERO ISZERO MUL OR SWAP1 SSTORE POP PUSH1 0x3 PUSH1 0x0 DUP2 SLOAD DUP1 SWAP3 SWAP2 SWAP1 PUSH2 0x6E3 SWAP1 PUSH2 0x1043 JUMP JUMPDEST SWAP2 SWAP1 POP SSTORE POP POP JUMP JUMPDEST DUP1 PUSH1 0x4 ADD PUSH1 0x0 SWAP1 SLOAD SWAP1 PUSH2 0x100 EXP SWAP1 DIV PUSH1 0xFF AND ISZERO PUSH2 0x73D JUMPI PUSH1 0x40 MLOAD PUSH32 0x8C379A000000000000000000000000000000000000000000000000000000000 DUP2 MSTORE PUSH1 0x4 ADD PUSH2 0x734 SWAP1 PUSH2 0xE26 JUMP JUMPDEST PUSH1 0x40 MLOAD DUP1 SWAP2 SUB SWAP1 REVERT JUMPDEST PUSH1 0x2 PUSH1 0x3 SLOAD PUSH2 0x74C SWAP2 SWAP1 PUSH2 0xF13 JUMP JUMPDEST DUP2 PUSH1 0x3 ADD SLOAD GT PUSH2 0x791 JUMPI PUSH1 0x40 MLOAD PUSH32 0x8C379A000000000000000000000000000000000000000000000000000000000 DUP2 MSTORE PUSH1 0x4 ADD PUSH2 0x788 SWAP1 PUSH2 0xE06 JUMP JUMPDEST PUSH1 0x40 MLOAD DUP1 SWAP2 SUB SWAP1 REVERT JUMPDEST POP JUMP JUMPDEST PUSH1 0x1 DUP2 PUSH1 0x4 ADD PUSH1 0x0 PUSH2 0x100 EXP DUP2 SLOAD DUP2 PUSH1 0xFF MUL NOT AND SWAP1 DUP4 ISZERO ISZERO MUL OR SWAP1 SSTORE POP DUP1 PUSH1 0x2 ADD PUSH1 0x0 SWAP1 SLOAD SWAP1 PUSH2 0x100 EXP SWAP1 DIV PUSH20 0xFFFFFFFFFFFFFFFFFFFFFFFFFFFFFFFFFFFFFFFF AND PUSH20 0xFFFFFFFFFFFFFFFFFFFFFFFFFFFFFFFFFFFFFFFF AND PUSH2 0x8FC DUP3 PUSH1 0x1 ADD SLOAD SWAP1 DUP2 ISZERO MUL SWAP1 PUSH1 0x40 MLOAD PUSH1 0x0 PUSH1 0x40 MLOAD DUP1 DUP4 SUB DUP2 DUP6 DUP9 DUP9 CALL SWAP4 POP POP POP POP ISZERO DUP1 ISZERO PUSH2 0x81F JUMPI RETURNDATASIZE PUSH1 0x0 DUP1 RETURNDATACOPY RETURNDATASIZE PUSH1 0x0 REVERT JUMPDEST POP POP JUMP JUMPDEST PUSH2 0x82B PUSH2 0xA6E JUMP JUMPDEST PUSH1 0x2 PUSH1 0x0 DUP2 SLOAD DUP1 SWAP3 SWAP2 SWAP1 PUSH2 0x83E SWAP1 PUSH2 0x1043 JUMP JUMPDEST SWAP2 SWAP1 POP SSTORE POP PUSH1 0x40 MLOAD DUP1 PUSH1 0xA0 ADD PUSH1 0x40 MSTORE DUP1 DUP6 DUP2 MSTORE PUSH1 0x20 ADD DUP5 DUP2 MSTORE PUSH1 0x20 ADD DUP4 PUSH20 0xFFFFFFFFFFFFFFFFFFFFFFFFFFFFFFFFFFFFFFFF AND DUP2 MSTORE PUSH1 0x20 ADD PUSH1 0x0 DUP2 MSTORE PUSH1 0x20 ADD PUSH1 0x0 ISZERO ISZERO DUP2 MSTORE POP SWAP1 POP SWAP4 SWAP3 POP POP POP JUMP JUMPDEST PUSH1 0x4 PUSH1 0x0 DUP4 PUSH20 0xFFFFFFFFFFFFFFFFFFFFFFFFFFFFFFFFFFFFFFFF AND PUSH20 0xFFFFFFFFFFFFFFFFFFFFFFFFFFFFFFFFFFFFFFFF AND DUP2 MSTORE PUSH1 0x20 ADD SWAP1 DUP2 MSTORE PUSH1 0x20 ADD PUSH1 0x0 KECCAK256 PUSH1 0x0 SWAP1 SLOAD SWAP1 PUSH2 0x100 EXP SWAP1 DIV PUSH1 0xFF AND PUSH2 0x8E3 JUMPI PUSH1 0x0 DUP1 REVERT JUMPDEST PUSH1 0x5 PUSH1 0x0 DUP3 DUP2 MSTORE PUSH1 0x20 ADD SWAP1 DUP2 MSTORE PUSH1 0x20 ADD PUSH1 0x0 KECCAK256 PUSH1 0x0 DUP4 PUSH20 0xFFFFFFFFFFFFFFFFFFFFFFFFFFFFFFFFFFFFFFFF AND PUSH20 0xFFFFFFFFFFFFFFFFFFFFFFFFFFFFFFFFFFFFFFFF AND DUP2 MSTORE PUSH1 0x20 ADD SWAP1 DUP2 MSTORE PUSH1 0x20 ADD PUSH1 0x0 KECCAK256 PUSH1 0x0 SWAP1 SLOAD SWAP1 PUSH2 0x100 EXP SWAP1 DIV PUSH1 0xFF AND ISZERO PUSH2 0x94B JUMPI PUSH1 0x0 DUP1 REVERT JUMPDEST POP POP JUMP JUMPDEST PUSH1 0x6 PUSH1 0x0 DUP3 DUP2 MSTORE PUSH1 0x20 ADD SWAP1 DUP2 MSTORE PUSH1 0x20 ADD PUSH1 0x0 KECCAK256 PUSH1 0x3 ADD PUSH1 0x0 DUP2 SLOAD DUP1 SWAP3 SWAP2 SWAP1 PUSH2 0x976 SWAP1 PUSH2 0x1043 JUMP JUMPDEST SWAP2 SWAP1 POP SSTORE POP PUSH1 0x1 PUSH1 0x5 PUSH1 0x0 DUP4 DUP2 MSTORE PUSH1 0x20 ADD SWAP1 DUP2 MSTORE PUSH1 0x20 ADD PUSH1 0x0 KECCAK256 PUSH1 0x0 DUP5 PUSH20 0xFFFFFFFFFFFFFFFFFFFFFFFFFFFFFFFFFFFFFFFF AND PUSH20 0xFFFFFFFFFFFFFFFFFFFFFFFFFFFFFFFFFFFFFFFF AND DUP2 MSTORE PUSH1 0x20 ADD SWAP1 DUP2 MSTORE PUSH1 0x20 ADD PUSH1 0x0 KECCAK256 PUSH1 0x0 PUSH2 0x100 EXP DUP2 SLOAD DUP2 PUSH1 0xFF MUL NOT AND SWAP1 DUP4 ISZERO ISZERO MUL OR SWAP1 SSTORE POP POP POP JUMP JUMPDEST DUP3 DUP1 SLOAD PUSH2 0x9F4 SWAP1 PUSH2 0xFE0 JUMP JUMPDEST SWAP1 PUSH1 0x0 MSTORE PUSH1 0x20 PUSH1 0x0 KECCAK256 SWAP1 PUSH1 0x1F ADD PUSH1 0x20 SWAP1 DIV DUP2 ADD SWAP3 DUP3 PUSH2 0xA16 JUMPI PUSH1 0x0 DUP6 SSTORE PUSH2 0xA5D JUMP JUMPDEST DUP3 PUSH1 0x1F LT PUSH2 0xA2F JUMPI DUP1 MLOAD PUSH1 0xFF NOT AND DUP4 DUP1 ADD OR DUP6 SSTORE PUSH2 0xA5D JUMP JUMPDEST DUP3 DUP1 ADD PUSH1 0x1 ADD DUP6 SSTORE DUP3 ISZERO PUSH2 0xA5D JUMPI SWAP2 DUP3 ADD JUMPDEST DUP3 DUP2 GT ISZERO PUSH2 0xA5C JUMPI DUP3 MLOAD DUP3 SSTORE SWAP2 PUSH1 0x20 ADD SWAP2 SWAP1 PUSH1 0x1 ADD SWAP1 PUSH2 0xA41 JUMP JUMPDEST JUMPDEST POP SWAP1 POP PUSH2 0xA6A SWAP2 SWAP1 PUSH2 0xAB5 JUMP JUMPDEST POP SWAP1 JUMP JUMPDEST PUSH1 0x40 MLOAD DUP1 PUSH1 0xA0 ADD PUSH1 0x40 MSTORE DUP1 PUSH1 0x60 DUP2 MSTORE PUSH1 0x20 ADD PUSH1 0x0 DUP2 MSTORE PUSH1 0x20 ADD PUSH1 0x0 PUSH20 0xFFFFFFFFFFFFFFFFFFFFFFFFFFFFFFFFFFFFFFFF AND DUP2 MSTORE PUSH1 0x20 ADD PUSH1 0x0 DUP2 MSTORE PUSH1 0x20 ADD PUSH1 0x0 ISZERO ISZERO DUP2 MSTORE POP SWAP1 JUMP JUMPDEST JUMPDEST DUP1 DUP3 GT ISZERO PUSH2 0xACE JUMPI PUSH1 0x0 DUP2 PUSH1 0x0 SWAP1 SSTORE POP PUSH1 0x1 ADD PUSH2 0xAB6 JUMP JUMPDEST POP SWAP1 JUMP JUMPDEST PUSH1 0x0 PUSH2 0xAE5 PUSH2 0xAE0 DUP5 PUSH2 0xEC6 JUMP JUMPDEST PUSH2 0xEA1 JUMP JUMPDEST SWAP1 POP DUP3 DUP2 MSTORE PUSH1 0x20 DUP2 ADD DUP5 DUP5 DUP5 ADD GT ISZERO PUSH2 0xB01 JUMPI PUSH2 0xB00 PUSH2 0x114D JUMP JUMPDEST JUMPDEST PUSH2 0xB0C DUP5 DUP3 DUP6 PUSH2 0xF9E JUMP JUMPDEST POP SWAP4 SWAP3 POP POP POP JUMP JUMPDEST PUSH1 0x0 DUP2 CALLDATALOAD SWAP1 POP PUSH2 0xB23 DUP2 PUSH2 0x12CF JUMP JUMPDEST SWAP3 SWAP2 POP POP JUMP JUMPDEST PUSH1 0x0 DUP3 PUSH1 0x1F DUP4 ADD SLT PUSH2 0xB3E JUMPI PUSH2 0xB3D PUSH2 0x1148 JUMP JUMPDEST JUMPDEST DUP2 CALLDATALOAD PUSH2 0xB4E DUP5 DUP3 PUSH1 0x20 DUP7 ADD PUSH2 0xAD2 JUMP JUMPDEST SWAP2 POP POP SWAP3 SWAP2 POP POP JUMP JUMPDEST PUSH1 0x0 DUP2 CALLDATALOAD SWAP1 POP PUSH2 0xB66 DUP2 PUSH2 0x12E6 JUMP JUMPDEST SWAP3 SWAP2 POP POP JUMP JUMPDEST PUSH1 0x0 PUSH1 0x20 DUP3 DUP5 SUB SLT ISZERO PUSH2 0xB82 JUMPI PUSH2 0xB81 PUSH2 0x1157 JUMP JUMPDEST JUMPDEST PUSH1 0x0 PUSH2 0xB90 DUP5 DUP3 DUP6 ADD PUSH2 0xB14 JUMP JUMPDEST SWAP2 POP POP SWAP3 SWAP2 POP POP JUMP JUMPDEST PUSH1 0x0 DUP1 PUSH1 0x0 PUSH1 0x60 DUP5 DUP7 SUB SLT ISZERO PUSH2 0xBB2 JUMPI PUSH2 0xBB1 PUSH2 0x1157 JUMP JUMPDEST JUMPDEST PUSH1 0x0 DUP5 ADD CALLDATALOAD PUSH8 0xFFFFFFFFFFFFFFFF DUP2 GT ISZERO PUSH2 0xBD0 JUMPI PUSH2 0xBCF PUSH2 0x1152 JUMP JUMPDEST JUMPDEST PUSH2 0xBDC DUP7 DUP3 DUP8 ADD PUSH2 0xB29 JUMP JUMPDEST SWAP4 POP POP PUSH1 0x20 PUSH2 0xBED DUP7 DUP3 DUP8 ADD PUSH2 0xB57 JUMP JUMPDEST SWAP3 POP POP PUSH1 0x40 PUSH2 0xBFE DUP7 DUP3 DUP8 ADD PUSH2 0xB14 JUMP JUMPDEST SWAP2 POP POP SWAP3 POP SWAP3 POP SWAP3 JUMP JUMPDEST PUSH1 0x0 PUSH1 0x20 DUP3 DUP5 SUB SLT ISZERO PUSH2 0xC1E JUMPI PUSH2 0xC1D PUSH2 0x1157 JUMP JUMPDEST JUMPDEST PUSH1 0x0 PUSH2 0xC2C DUP5 DUP3 DUP6 ADD PUSH2 0xB57 JUMP JUMPDEST SWAP2 POP POP SWAP3 SWAP2 POP POP JUMP JUMPDEST PUSH1 0x0 DUP1 PUSH1 0x40 DUP4 DUP6 SUB SLT ISZERO PUSH2 0xC4C JUMPI PUSH2 0xC4B PUSH2 0x1157 JUMP JUMPDEST JUMPDEST PUSH1 0x0 PUSH2 0xC5A DUP6 DUP3 DUP7 ADD PUSH2 0xB57 JUMP JUMPDEST SWAP3 POP POP PUSH1 0x20 PUSH2 0xC6B DUP6 DUP3 DUP7 ADD PUSH2 0xB14 JUMP JUMPDEST SWAP2 POP POP SWAP3 POP SWAP3 SWAP1 POP JUMP JUMPDEST PUSH2 0xC7E DUP2 PUSH2 0xF56 JUMP JUMPDEST DUP3 MSTORE POP POP JUMP JUMPDEST PUSH2 0xC8D DUP2 PUSH2 0xF44 JUMP JUMPDEST DUP3 MSTORE POP POP JUMP JUMPDEST PUSH2 0xC9C DUP2 PUSH2 0xF68 JUMP JUMPDEST DUP3 MSTORE POP POP JUMP JUMPDEST PUSH1 0x0 PUSH2 0xCAD DUP3 PUSH2 0xEF7 JUMP JUMPDEST PUSH2 0xCB7 DUP2 DUP6 PUSH2 0xF02 JUMP JUMPDEST SWAP4 POP PUSH2 0xCC7 DUP2 DUP6 PUSH1 0x20 DUP7 ADD PUSH2 0xFAD JUMP JUMPDEST PUSH2 0xCD0 DUP2 PUSH2 0x115C JUMP JUMPDEST DUP5 ADD SWAP2 POP POP SWAP3 SWAP2 POP POP JUMP JUMPDEST PUSH1 0x0 PUSH2 0xCE8 PUSH1 0x25 DUP4 PUSH2 0xF02 JUMP JUMPDEST SWAP2 POP PUSH2 0xCF3 DUP3 PUSH2 0x116D JUMP JUMPDEST PUSH1 0x40 DUP3 ADD SWAP1 POP SWAP2 SWAP1 POP JUMP JUMPDEST PUSH1 0x0 PUSH2 0xD0B PUSH1 0x26 DUP4 PUSH2 0xF02 JUMP JUMPDEST SWAP2 POP PUSH2 0xD16 DUP3 PUSH2 0x11BC JUMP JUMPDEST PUSH1 0x40 DUP3 ADD SWAP1 POP SWAP2 SWAP1 POP JUMP JUMPDEST PUSH1 0x0 PUSH2 0xD2E PUSH1 0x44 DUP4 PUSH2 0xF02 JUMP JUMPDEST SWAP2 POP PUSH2 0xD39 DUP3 PUSH2 0x120B JUMP JUMPDEST PUSH1 0x60 DUP3 ADD SWAP1 POP SWAP2 SWAP1 POP JUMP JUMPDEST PUSH1 0x0 PUSH2 0xD51 PUSH1 0x28 DUP4 PUSH2 0xF02 JUMP JUMPDEST SWAP2 POP PUSH2 0xD5C DUP3 PUSH2 0x1280 JUMP JUMPDEST PUSH1 0x40 DUP3 ADD SWAP1 POP SWAP2 SWAP1 POP JUMP JUMPDEST PUSH2 0xD70 DUP2 PUSH2 0xF94 JUMP JUMPDEST DUP3 MSTORE POP POP JUMP JUMPDEST PUSH1 0x0 PUSH1 0x20 DUP3 ADD SWAP1 POP PUSH2 0xD8B PUSH1 0x0 DUP4 ADD DUP5 PUSH2 0xC84 JUMP JUMPDEST SWAP3 SWAP2 POP POP JUMP JUMPDEST PUSH1 0x0 PUSH1 0x20 DUP3 ADD SWAP1 POP PUSH2 0xDA6 PUSH1 0x0 DUP4 ADD DUP5 PUSH2 0xC93 JUMP JUMPDEST SWAP3 SWAP2 POP POP JUMP JUMPDEST PUSH1 0x0 PUSH1 0xA0 DUP3 ADD SWAP1 POP DUP2 DUP2 SUB PUSH1 0x0 DUP4 ADD MSTORE PUSH2 0xDC6 DUP2 DUP9 PUSH2 0xCA2 JUMP JUMPDEST SWAP1 POP PUSH2 0xDD5 PUSH1 0x20 DUP4 ADD DUP8 PUSH2 0xD67 JUMP JUMPDEST PUSH2 0xDE2 PUSH1 0x40 DUP4 ADD DUP7 PUSH2 0xC75 JUMP JUMPDEST PUSH2 0xDEF PUSH1 0x60 DUP4 ADD DUP6 PUSH2 0xD67 JUMP JUMPDEST PUSH2 0xDFC PUSH1 0x80 DUP4 ADD DUP5 PUSH2 0xC93 JUMP JUMPDEST SWAP7 SWAP6 POP POP POP POP POP POP JUMP JUMPDEST PUSH1 0x0 PUSH1 0x20 DUP3 ADD SWAP1 POP DUP2 DUP2 SUB PUSH1 0x0 DUP4 ADD MSTORE PUSH2 0xE1F DUP2 PUSH2 0xCDB JUMP JUMPDEST SWAP1 POP SWAP2 SWAP1 POP JUMP JUMPDEST PUSH1 0x0 PUSH1 0x20 DUP3 ADD SWAP1 POP DUP2 DUP2 SUB PUSH1 0x0 DUP4 ADD MSTORE PUSH2 0xE3F DUP2 PUSH2 0xCFE JUMP JUMPDEST SWAP1 POP SWAP2 SWAP1 POP JUMP JUMPDEST PUSH1 0x0 PUSH1 0x20 DUP3 ADD SWAP1 POP DUP2 DUP2 SUB PUSH1 0x0 DUP4 ADD MSTORE PUSH2 0xE5F DUP2 PUSH2 0xD21 JUMP JUMPDEST SWAP1 POP SWAP2 SWAP1 POP JUMP JUMPDEST PUSH1 0x0 PUSH1 0x20 DUP3 ADD SWAP1 POP DUP2 DUP2 SUB PUSH1 0x0 DUP4 ADD MSTORE PUSH2 0xE7F DUP2 PUSH2 0xD44 JUMP JUMPDEST SWAP1 POP SWAP2 SWAP1 POP JUMP JUMPDEST PUSH1 0x0 PUSH1 0x20 DUP3 ADD SWAP1 POP PUSH2 0xE9B PUSH1 0x0 DUP4 ADD DUP5 PUSH2 0xD67 JUMP JUMPDEST SWAP3 SWAP2 POP POP JUMP JUMPDEST PUSH1 0x0 PUSH2 0xEAB PUSH2 0xEBC JUMP JUMPDEST SWAP1 POP PUSH2 0xEB7 DUP3 DUP3 PUSH2 0x1012 JUMP JUMPDEST SWAP2 SWAP1 POP JUMP JUMPDEST PUSH1 0x0 PUSH1 0x40 MLOAD SWAP1 POP SWAP1 JUMP JUMPDEST PUSH1 0x0 PUSH8 0xFFFFFFFFFFFFFFFF DUP3 GT ISZERO PUSH2 0xEE1 JUMPI PUSH2 0xEE0 PUSH2 0x1119 JUMP JUMPDEST JUMPDEST PUSH2 0xEEA DUP3 PUSH2 0x115C JUMP JUMPDEST SWAP1 POP PUSH1 0x20 DUP2 ADD SWAP1 POP SWAP2 SWAP1 POP JUMP JUMPDEST PUSH1 0x0 DUP2 MLOAD SWAP1 POP SWAP2 SWAP1 POP JUMP JUMPDEST PUSH1 0x0 DUP3 DUP3 MSTORE PUSH1 0x20 DUP3 ADD SWAP1 POP SWAP3 SWAP2 POP POP JUMP JUMPDEST PUSH1 0x0 PUSH2 0xF1E DUP3 PUSH2 0xF94 JUMP JUMPDEST SWAP2 POP PUSH2 0xF29 DUP4 PUSH2 0xF94 JUMP JUMPDEST SWAP3 POP DUP3 PUSH2 0xF39 JUMPI PUSH2 0xF38 PUSH2 0x10BB JUMP JUMPDEST JUMPDEST DUP3 DUP3 DIV SWAP1 POP SWAP3 SWAP2 POP POP JUMP JUMPDEST PUSH1 0x0 PUSH2 0xF4F DUP3 PUSH2 0xF74 JUMP JUMPDEST SWAP1 POP SWAP2 SWAP1 POP JUMP JUMPDEST PUSH1 0x0 PUSH2 0xF61 DUP3 PUSH2 0xF74 JUMP JUMPDEST SWAP1 POP SWAP2 SWAP1 POP JUMP JUMPDEST PUSH1 0x0 DUP2 ISZERO ISZERO SWAP1 POP SWAP2 SWAP1 POP JUMP JUMPDEST PUSH1 0x0 PUSH20 0xFFFFFFFFFFFFFFFFFFFFFFFFFFFFFFFFFFFFFFFF DUP3 AND SWAP1 POP SWAP2 SWAP1 POP JUMP JUMPDEST PUSH1 0x0 DUP2 SWAP1 POP SWAP2 SWAP1 POP JUMP JUMPDEST DUP3 DUP2 DUP4 CALLDATACOPY PUSH1 0x0 DUP4 DUP4 ADD MSTORE POP POP POP JUMP JUMPDEST PUSH1 0x0 JUMPDEST DUP4 DUP2 LT ISZERO PUSH2 0xFCB JUMPI DUP1 DUP3 ADD MLOAD DUP2 DUP5 ADD MSTORE PUSH1 0x20 DUP2 ADD SWAP1 POP PUSH2 0xFB0 JUMP JUMPDEST DUP4 DUP2 GT ISZERO PUSH2 0xFDA JUMPI PUSH1 0x0 DUP5 DUP5 ADD MSTORE JUMPDEST POP POP POP POP JUMP JUMPDEST PUSH1 0x0 PUSH1 0x2 DUP3 DIV SWAP1 POP PUSH1 0x1 DUP3 AND DUP1 PUSH2 0xFF8 JUMPI PUSH1 0x7F DUP3 AND SWAP2 POP JUMPDEST PUSH1 0x20 DUP3 LT DUP2 EQ ISZERO PUSH2 0x100C JUMPI PUSH2 0x100B PUSH2 0x10EA JUMP JUMPDEST JUMPDEST POP SWAP2 SWAP1 POP JUMP JUMPDEST PUSH2 0x101B DUP3 PUSH2 0x115C JUMP JUMPDEST DUP2 ADD DUP2 DUP2 LT PUSH8 0xFFFFFFFFFFFFFFFF DUP3 GT OR ISZERO PUSH2 0x103A JUMPI PUSH2 0x1039 PUSH2 0x1119 JUMP JUMPDEST JUMPDEST DUP1 PUSH1 0x40 MSTORE POP POP POP JUMP JUMPDEST PUSH1 0x0 PUSH2 0x104E DUP3 PUSH2 0xF94 JUMP JUMPDEST SWAP2 POP PUSH32 0xFFFFFFFFFFFFFFFFFFFFFFFFFFFFFFFFFFFFFFFFFFFFFFFFFFFFFFFFFFFFFFFF DUP3 EQ ISZERO PUSH2 0x1081 JUMPI PUSH2 0x1080 PUSH2 0x108C JUMP JUMPDEST JUMPDEST PUSH1 0x1 DUP3 ADD SWAP1 POP SWAP2 SWAP1 POP JUMP JUMPDEST PUSH32 0x4E487B7100000000000000000000000000000000000000000000000000000000 PUSH1 0x0 MSTORE PUSH1 0x11 PUSH1 0x4 MSTORE PUSH1 0x24 PUSH1 0x0 REVERT JUMPDEST PUSH32 0x4E487B7100000000000000000000000000000000000000000000000000000000 PUSH1 0x0 MSTORE PUSH1 0x12 PUSH1 0x4 MSTORE PUSH1 0x24 PUSH1 0x0 REVERT JUMPDEST PUSH32 0x4E487B7100000000000000000000000000000000000000000000000000000000 PUSH1 0x0 MSTORE PUSH1 0x22 PUSH1 0x4 MSTORE PUSH1 0x24 PUSH1 0x0 REVERT JUMPDEST PUSH32 0x4E487B7100000000000000000000000000000000000000000000000000000000 PUSH1 0x0 MSTORE PUSH1 0x41 PUSH1 0x4 MSTORE PUSH1 0x24 PUSH1 0x0 REVERT JUMPDEST PUSH1 0x0 DUP1 REVERT JUMPDEST PUSH1 0x0 DUP1 REVERT JUMPDEST PUSH1 0x0 DUP1 REVERT JUMPDEST PUSH1 0x0 DUP1 REVERT JUMPDEST PUSH1 0x0 PUSH1 0x1F NOT PUSH1 0x1F DUP4 ADD AND SWAP1 POP SWAP2 SWAP1 POP JUMP JUMPDEST PUSH32 0x54686973207265717565737420646964206E6F742077696E20746865206D616A PUSH1 0x0 DUP3 ADD MSTORE PUSH32 0x6F72697479000000000000000000000000000000000000000000000000000000 PUSH1 0x20 DUP3 ADD MSTORE POP JUMP JUMPDEST PUSH32 0x5468697320726571756573742068617320616C7265616479206265656E20636F PUSH1 0x0 DUP3 ADD MSTORE PUSH32 0x6E73756D65640000000000000000000000000000000000000000000000000000 PUSH1 0x20 DUP3 ADD MSTORE POP JUMP JUMPDEST PUSH32 0x436F6E747269627574696F6E20616D6F756E74206C657373207468616E206D69 PUSH1 0x0 DUP3 ADD MSTORE PUSH32 0x6E696D616C20636F6E747269627574696F6E20666F7220746869732063616D70 PUSH1 0x20 DUP3 ADD MSTORE PUSH32 0x6169676E00000000000000000000000000000000000000000000000000000000 PUSH1 0x40 DUP3 ADD MSTORE POP JUMP JUMPDEST PUSH32 0x4F6E6C792074686520666F756E6465722063616E206578656375746520746869 PUSH1 0x0 DUP3 ADD MSTORE PUSH32 0x7320616374696F6E000000000000000000000000000000000000000000000000 PUSH1 0x20 DUP3 ADD MSTORE POP JUMP JUMPDEST PUSH2 0x12D8 DUP2 PUSH2 0xF44 JUMP JUMPDEST DUP2 EQ PUSH2 0x12E3 JUMPI PUSH1 0x0 DUP1 REVERT JUMPDEST POP JUMP JUMPDEST PUSH2 0x12EF DUP2 PUSH2 0xF94 JUMP JUMPDEST DUP2 EQ PUSH2 0x12FA JUMPI PUSH1 0x0 DUP1 REVERT JUMPDEST POP JUMP INVALID LOG2 PUSH5 0x6970667358 0x22 SLT KECCAK256 BLOCKHASH ADDRESS DELEGATECALL PUSH23 0xB93FCC3F8BF14626318B7F8154CF6E83ED2868FAC7FDE3 0x26 0xE0 0x25 CALLER 0xCB PUSH5 0x736F6C6343 STOP ADDMOD MOD STOP CALLER LOG2 PUSH5 0x6970667358 0x22 SLT KECCAK256 0x2B 0x5F 0xBB COINBASE 0xE3 DUP5 COINBASE PUSH1 0xF1 PUSH23 0x5233C6CBFB6DD172567F454505F59BCD131F0BA958CC64 PUSH20 0x6F6C634300080600330000000000000000000000 "},"gasEstimates":{"creation":{"codeDepositCost":"1329000","executionCost":"1383","totalCost":"1330383"},"external":{"deployNewCrowdfundingCampaign(uint256)":"infinite","deployedCrowdfundingCampaigns(uint256)":"4934","getAllDeployedCrowdfundingCampaigns()":"infinite"}},"methodIdentifiers":{"deployNewCrowdfundingCampaign(uint256)":"d8cd5313","deployedCrowdfundingCampaigns(uint256)":"5a9b3722","getAllDeployedCrowdfundingCampaigns()":"a7d4d132"}},"storageLayout":{"storage":[{"astId":4,"contract":"Crowdfunding.sol:CrowdfundingFactory","label":"deployedCrowdfundingCampaigns","offset":0,"slot":"0","type":"t_array(t_address)dyn_storage"}],"types":{"t_address":{"encoding":"inplace","label":"address","numberOfBytes":"20"},"t_array(t_address)dyn_storage":{"base":"t_address","encoding":"dynamic_array","label":"address[]","numberOfBytes":"32"}}},"userdoc":{"kind":"user","methods":{},"version":1}}